:020000040800F2
:10000000403D00244D5600086D5000083956000848
:10001000395600083956000839560008000000001B
:100020000000000000000000000000008D570008E4
:10003000395600080000000059570008359700089D
:100040000D5900080D5900080D5900080D590008F8
:100050000D5900080D5900080D5900080D590008E8
:100060000D5900080D5900080D5900080D590008D8
:100070000D5900080D5900080D5900080D590008C8
:0402CC00FFFFFFFF32
:1002D00081F0004102E000BF83F0004330B54FEAF7
:1002E00041044FEA430594EA050F08BF90EA020F64
:1002F0001FBF54EA000C55EA020C7FEA645C7FEAF7
:10030000655C00F0E2804FEA5454D4EB5555B8BF19
:100310006D420CDD2C4480EA020281EA030382EA8A
:10032000000083EA010180EA020281EA0303362D1C
:1003300088BF30BD11F0004F4FEA01314FF4801CEF
:100340004CEA113102D0404261EB410113F0004F01
:100350004FEA03334CEA133302D0524263EB4303B8
:1003600094EA050F00F0A780A4F10104D5F1200E56
:100370000DDB02FA0EFC22FA05F2801841F10001B1
:1003800003FA0EF2801843FA05F359410EE0A5F185
:1003900020050EF1200E012A03FA0EFC28BF4CF0B6
:1003A000020C43FA05F3C01851EBE37101F000456C
:1003B00007D54FF0000EDCF1000C7EEB00006EEB79
:1003C0000101B1F5801F1BD3B1F5001F0CD3490803
:1003D0005FEA30004FEA3C0C04F101044FEA44525A
:1003E00012F5800F80F09A80BCF1004F08BF5FEAE1
:1003F000500C50F1000041EB045141EA050130BDC1
:100400005FEA4C0C404141EB0101013C28BFB1F5D2
:10041000801FE9D291F0000F04BF01460020B1FA1D
:1004200081F308BF2033A3F10B03B3F120020CDAF0
:100430000C3208DD02F1140CC2F10C0201FA0CF0CE
:1004400021FA02F10CE002F11402D8BFC2F1200C33
:1004500001FA02F120FA0CFCDCBF41EA0C019040E9
:10046000E41AA2BF01EB0451294330BD6FEA040432
:100470001F3C1CDA0C340EDC04F11404C4F120021D
:1004800020FA04F001FA02F340EA030021FA04F32F
:1004900045EA030130BDC4F10C04C4F1200220FA86
:1004A00002F001FA04F340EA0300294630BD21FAC4
:1004B00004F0294630BD94F0000F83F4801306BF8A
:1004C00081F480110134013D4EE77FEA645C18BF7E
:1004D0007FEA655C29D094EA050F08BF90EA020F15
:1004E00005D054EA000C04BF1946104630BD91EA0D
:1004F000030F1EBF0021002030BD5FEA545C05D110
:100500004000494128BF41F0004130BD14F580044E
:100510003CBF01F5801130BD01F0004545F0FE41C2
:1005200041F470014FF0000030BD7FEA645C1ABFF7
:10053000194610467FEA655C1CBF0B46024650EA2E
:10054000013406BF52EA033591EA030F41F400215A
:1005500030BD00BF90F0000F04BF0021704730B5E0
:100560004FF4806404F132044FF000054FF00001B5
:1005700050E700BF90F0000F04BF0021704730B576
:100580004FF4806404F1320410F0004548BF40424B
:100590004FF000013EE700BF42004FEAE2014FEAA0
:1005A00031014FEA02701FBF12F07F4393F07F4F7B
:1005B00081F06051704732F07F4208BF704793F07E
:1005C0007F4F04BF41F40021704730B54FF4607491
:1005D00001F0004521F000411CE700BF50EA010294
:1005E00008BF704730B54FF000050AE050EA01023D
:1005F00008BF704730B511F0004502D5404261EBAD
:1006000041014FF4806404F132045FEA915C3FF4ED
:10061000D8AE4FF003025FEADC0C18BF03325FEA8A
:10062000DC0C18BF033202EBDC02C2F1200300FA3B
:1006300003FC20FA02F001FA03FE40EA0E0021FA60
:1006400002F11444BDE600BF4FF0FF3C06E000BFDE
:100650004FF0010C02E000BF4FF0010C4DF804CD4B
:100660004FEA410C7FEA6C5C4FEA430C18BF7FEA0B
:100670006C5C1BD001B050EA410C0CBF52EA430C39
:1006800091EA030F02BF90EA020F0020704710F1B9
:10069000000F91EA030F58BF994208BF90422CBF48
:1006A000D8176FEAE37040F0010070474FEA410C41
:1006B0007FEA6C5C02D150EA013C07D14FEA430C5F
:1006C0007FEA6C5CD6D152EA033CD3D05DF8040BD0
:1006D000704700BF8446104662468C461946634602
:1006E00000E000BF01B5FFF7B7FF002848BF10F1D9
:1006F000000F01BD4DF808EDFFF7F4FF0CBF01201E
:1007000000205DF808FB00BF4DF808EDFFF7EAFF99
:1007100034BF012000205DF808FB00BF4DF808ED54
:10072000FFF7E0FF94BF012000205DF808FB00BF49
:100730004DF808EDFFF7CEFF94BF012000205DF8D3
:1007400008FB00BF4DF808EDFFF7C4FF34BF0120E0
:1007500000205DF808FB00BF4FEA4102B2F1E04320
:1007600024BFB3F5001CDCF1FE5C0DD901F0004C98
:100770004FEAC0024CEA5070B2F1004F40EB8300E8
:1007800008BF20F00100704711F0804F21D113F114
:100790003872BCBF01F00040704741F480114FEA4D
:1007A0005252C2F11802C2F1200C10FA0CF320FAD6
:1007B00002F018BF40F001004FEAC1234FEAD323F3
:1007C00003FA0CFC40EA0C0023FA02F34FEA43035D
:1007D000CCE77FEA625307D150EA01331EBF4FF0E6
:1007E000FE4040F44000704701F0004040F0FE4001
:1007F00040F40000704700BF80F0004002E000BFFE
:1008000081F0004142001FBF5FEA410392EA030FFB
:100810007FEA226C7FEA236C6AD04FEA1262D2EB45
:100820001363C1BFD218414048404140B8BF5B424A
:10083000192B88BF704710F0004F40F4000020F0E3
:100840007F4018BF404211F0004F41F4000121F0F9
:100850007F4118BF494292EA030F3FD0A2F1010243
:1008600041FA03FC10EB0C00C3F1200301FA03F181
:1008700000F0004302D5494260EB4000B0F5000FA4
:1008800013D3B0F1807F06D340084FEA310102F163
:100890000102FE2A51D2B1F1004F40EBC25008BF15
:1008A00020F0010040EA03007047490040EB0000DF
:1008B000013A28BFB0F5000FEDD2B0FA80FCACF1E0
:1008C000080CB2EB0C0200FA0CF0AABF00EBC2500D
:1008D00052421843BCBFD0401843704792F0000FFB
:1008E00081F4000106BF80F400000132013BB5E74E
:1008F0004FEA41037FEA226C18BF7FEA236C21D0C4
:1009000092EA030F04D092F0000F08BF0846704728
:1009100090EA010F1CBF0020704712F07F4F04D1F6
:10092000400028BF40F00040704712F100723CBF09
:1009300000F50000704700F0004343F0FE4040F433
:10094000000070477FEA226216BF08467FEA2363F1
:100950000146420206BF5FEA412390EA010F40F4DC
:10096000800070474FF0000304E000BF10F0004328
:1009700048BF40425FEA000C08BF704743F096430F
:1009800001464FF000001CE050EA010208BF70472A
:100990004FF000030AE000BF50EA010208BF7047B1
:1009A00011F0004302D5404261EB41015FEA010CC6
:1009B00002BF84460146002043F0B64308BFA3F1BE
:1009C0008053A3F50003BCFA8CF2083AA3EBC253A0
:1009D00010DB01FA02FC634400FA02FCC2F12002BF
:1009E000BCF1004F20FA02F243EB020008BF20F0F6
:1009F0000100704702F1200201FA02FCC2F120025C
:100A000050EA4C0021FA02F243EB020008BF20EA50
:100A1000DC7070474FF0FF0C1CEAD0521EBF1CEA7E
:100A2000D15392EA0C0F93EA0C0F6FD01A4480EA6C
:100A3000010C400218BF5FEA41211ED04FF0006355
:100A400043EA501043EA5111A0FB01310CF0004081
:100A5000B1F5000F3EBF490041EAD3715B0040EAA7
:100A6000010062F17F02FD2A1DD8B3F1004F40EB77
:100A7000C25008BF20F00100704790F0000F0CF04A
:100A8000004C08BF49024CEA502040EA51207F3A0E
:100A9000C2BFD2F1FF0340EAC250704740F40000E9
:100AA0004FF00003013A5DDC12F1190FDCBF00F0DA
:100AB00000407047C2F10002410021FA02F1C2F188
:100AC000200200FA02FC5FEA310040F1000053EA24
:100AD0004C0308BF20EADC70704792F0000F00F072
:100AE000004C02BF400010F4000F013AF9D040EA78
:100AF0000C0093F0000F01F0004C02BF490011F40C
:100B0000000F013BF9D041EA0C018FE70CEAD15309
:100B100092EA0C0F18BF93EA0C0F0AD030F0004C89
:100B200018BF31F0004CD8D180EA010000F000403D
:100B3000704790F0000F17BF90F0004F084691F0FB
:100B4000000F91F0004F14D092EA0C0F01D1420235
:100B50000FD193EA0C0F03D14B0218BF084608D1FE
:100B600080EA010000F0004040F0FE4040F4000048
:100B7000704740F0FE4040F4400070474FF0FF0CDB
:100B80001CEAD0521EBF1CEAD15392EA0C0F93EA22
:100B90000C0F69D0A2EB030280EA010C49024FEA74
:100BA000402037D04FF0805343EA111143EA10132D
:100BB0000CF000408B4238BF5B0042F17D024FF4E5
:100BC000000C8B4224BF5B1A40EA0C00B3EB510FC0
:100BD00024BFA3EB510340EA5C00B3EB910F24BFA9
:100BE000A3EB910340EA9C00B3EBD10F24BFA3EB2E
:100BF000D10340EADC001B0118BF5FEA1C1CE0D1F6
:100C0000FD2A3FF650AF8B4240EBC25008BF20F0A8
:100C1000010070470CF0004C4CEA50207F32C2BFFC
:100C2000D2F1FF0340EAC250704740F400004FF099
:100C30000003013A37E792F0000F00F0004C02BFCA
:100C4000400010F4000F013AF9D040EA0C0093F094
:100C5000000F01F0004C02BF490011F4000F013BEE
:100C6000F9D041EA0C0195E70CEAD15392EA0C0F56
:100C700008D142027FF47DAF93EA0C0F7FF470AF8E
:100C8000084676E793EA0C0F04D14B023FF44CAFD1
:100C900008466EE730F0004C18BF31F0004CCAD166
:100CA00030F000427FF45CAF31F000437FF43CAFA2
:100CB0005FE700BF4FF0FF3C06E000BF4FF0010CC4
:100CC00002E000BF4FF0010C4DF804CD4FEA4002A6
:100CD0004FEA41037FEA226C18BF7FEA236C11D0F0
:100CE00001B052EA530C18BF90EA010F58BFB2EBA3
:100CF000030088BFC81738BF6FEAE17018BF40F023
:100D0000010070477FEA226C02D15FEA402C05D1D6
:100D10007FEA236CE4D15FEA412CE1D05DF8040B5B
:100D2000704700BF844608466146FFE70FB5FFF7EE
:100D3000C9FF002848BF10F1000F0FBD4DF808EDA6
:100D4000FFF7F4FF0CBF012000205DF808FB00BF97
:100D50004DF808EDFFF7EAFF34BF012000205DF8F1
:100D600008FB00BF4DF808EDFFF7E0FF94BF01203E
:100D700000205DF808FB00BF4DF808EDFFF7D2FF3B
:100D800094BF012000205DF808FB00BF4DF808ED7E
:100D9000FFF7C8FF34BF012000205DF808FB00BF4B
:100DA0004FEA4002B2F1FE4F0FD34FF09E03B3EB78
:100DB00012620DD94FEA002343F0004310F0004FB8
:100DC00023FA02F018BF404270474FF0000070470E
:100DD00012F1610F01D1420205D110F0004008BFAD
:100DE0006FF0004070474FF00000704742000ED295
:100DF000B2F1FE4F0BD34FF09E03B3EB126209D456
:100E00004FEA002343F0004323FA02F070474FF00B
:100E10000000704712F1610F01D1420202D14FF080
:100E2000FF3070474FF00000704700BF7BB972B9C8
:100E30000029BEBF00204FF0004106E008BF002897
:100E40001CBF6FF000414FF0FF3000F057B8ADF11C
:100E5000080C6DE904CE002909DB002B1ADB00F039
:100E600069F8DDF804E0DDE9022304B07047404290
:100E700061EB4101002B1BDB00F05CF8DDF804E0C6
:100E8000DDE9022304B0404261EB4101524263EBD1
:100E900043037047524263EB430300F04BF8DDF825
:100EA00004E0DDE9022304B0404261EB41017047F8
:100EB000524263EB430300F03DF8DDF804E0DDE966
:100EC000022304B0524263EB4303704753B94AB95B
:100ED000002908BF00281CBF4FF0FF314FF0FF3042
:100EE00000F00CB8ADF1080C6DE904CE00F022F86A
:100EF000DDF804E0DDE9022304B07047704700BF6D
:100F000010F8012B11F8013B012A28BF9A42F7D0B3
:100F1000D01A7047034611F8012B03F8012B002A61
:100F2000F9D17047034613F8012B002AFBD1181A98
:100F3000013870472DE9F04786468C460846089EE2
:100F4000154674461946002B40F0C2808542B2FA1D
:100F500082F245D94AB1C2F1200300FA02FC2EFA0E
:100F600003F3954043EA0C0C94404FEA154EA8B2A7
:100F7000BCFBFEF8230C0EFB18CC08FB00F943EA7F
:100F80000C43994528D9EB1808F1FF3704D299454D
:100F900002D9A8F102072B44A3EB0903A4B2B3FBC7
:100FA000FEFC0EFB1C330CFB00F044EA0344A042A1
:100FB00014D92C190CF1FF3304D2A04202D9ACF1A0
:100FC00002032C44241A43EA07401EB1D4400023F4
:100FD00034607360BDE8F0874746DDE76346F1E7BC
:100FE00092BB431B01214FEA154EAFB2B3FBFEFC8F
:100FF000200C0EFB1C330CFB07F840EA034398451A
:1010000062D9EB180CF1FF3004D2984502D9ACF14B
:1010100002002B44A3EB0803A4B2B3FBFEFC0EFBBF
:101020001C330CFB07F744EA0344A7424ED92C19A2
:101030000CF1FF3304D2A74202D9ACF102032C44D5
:10104000E41B43EA0040C0E7C2F1200320FA03F1A9
:10105000954090402EFA03F303434FEA154EAFB28A
:10106000B1FBFEFC0EFB1C10190C0CFB07F841EA4F
:101070000041884504FA02F422D969180CF1FF30C6
:1010800004D2884502D9ACF102002944A1EB080141
:101090009BB2B1FBFEFC0EFB1C110CFB07F743EAF5
:1010A00001439F420ED9EB180CF1FF3104D29F424D
:1010B00002D9ACF102012B44DB1B41EA004192E76B
:1010C0006046E3E76146F7E76046A3E76346B7E7B4
:1010D000834206D916B9002108467BE7C6E900E03D
:1010E000F9E7B3FA83F78FB9834201D3724508D881
:1010F000BEEB020460EB030301209C461EB90021F5
:1011000068E73846FAE7C6E9004CF8E7C7F1200C73
:10111000BB4022FA0CF41C432EFA0CF120FA0CF31B
:10112000B84001434FEA14490EFA07F5B3FBF9F84A
:101130001FFA84FE09FB18300B0C08FB0EFA43EA79
:1011400000439A4502FA07F240D9E31808F1FF304C
:1011500004D29A4502D9A8F102002344A3EB0A0362
:1011600089B2B3FBF9F809FB183308FB0EFE41EA1C
:1011700003418E452CD9611808F1FF3304D28E4506
:1011800002D9A8F10203214443EA0040A0FB0298DF
:10119000A1EB0E014145CE46434602D306D14D4553
:1011A00004D2B9EB020E68EB04030138002EA6D07E
:1011B000B5EB0E0261EB030101FA0CFC22FA07F316
:1011C0004CEA0303F940C6E9003198E74046C5E719
:1011D0004346D9E7000000002DE9F04F054685B0F1
:1011E0004FF00108464B1B7863B14FF4FA620023BD
:1011F00003A944480BF042F9041E13DA4249284679
:101200000EF0CFFE414B18688368032201211B6951
:101210009847021E63DB3E49284605B0BDE8F04F03
:101220000EF0BFBEDDF80CA00026DFF8E8900AF152
:10123000020BD9F8004020460CF00EFF3649FFF7AC
:10124000E9FBFFF7ADFD354907B22046FFF7DAFAB3
:101250000446FFF7A1F902460B46CDE9002326A379
:10126000D3E90023FFF764FA48B123A3D3E90023AD
:10127000DDE90001FFF730F8FFF76EFA04462AF8BF
:10128000267040F24E432BF8267001369E42D2D192
:101290001E4E41F2381203993068C9F80040836845
:1012A000DB689847041E05DA22461D4928460EF0E1
:1012B00078FEA7E7B8F1000F0AD0306883680022F3
:1012C00001211B699847041E02DA22461549EDE701
:1012D0000A2000214FF000080BF074FF82E7032181
:1012E00011480EF018F82146104805B0BDE8F04F3F
:1012F0000EF011B8AFF30080182D4454FB211940B3
:101300005E1B00243804002402640108201100241C
:10131000596401080811002400FEFF464A63803D1D
:101320001F640108396401086E64010896640108AD
:101330002DE9F047044688B08846174613F05EF85A
:101340000A220023FFF7C2FDB8F1010F06460D4641
:1013500007D102460B46204627490EF022FE002008
:1013600011E07F6825483946FFF7CAFD70B139465C
:101370002348FFF7C5FD48B120463A4621490EF003
:101380002CFE6FF0040008B0BDE8F0873046294617
:1013900017A3D3E90023FFF749FD06460D46104683
:1013A0001946194A0023FFF741FD80460F461046B3
:1013B00019464EF660220023FFF738FD8246894623
:1013C000104619464FF47A720023FFF72FFDCDE93E
:1013D00002A9CDE90623CDE9040132462B460B498B
:1013E0002046CDE900870EF0DCFDB8E7AFF30080C2
:1013F000005C2605000000001D6A01082E6A010835
:10140000316A01083A6A010880EE3600526A010822
:1014100010B5074C237823B906490EF0C2FD002011
:1014200010BD05490EF0BDFD00232370F7E700BF96
:101430005E1B00248E630108A063010870B5114E85
:1014400088B0054634782CB10F490EF0AAFD002073
:1014500008B070BD0D490EF0A4FD012333700022C9
:1014600000230B4904940B48CDE9062307234FF4CE
:101470008062CDE90243CDE90054074B0BF098FBA5
:10148000E5E700BF5E1B0024B2630108C8630108E2
:10149000C01B002498040024D911000830B5022391
:1014A00085B004468DF800008DF80110CDF804D009
:1014B00002938DF80C300A4801A99DF80C3082681F
:1014C00043F002038DF80C30182395680122A847D9
:1014D000021E03DA214603480DF01DFF05B030BDA2
:1014E000A04B0108DA63010810B500F067F91B484A
:1014F00000F048F81A4C1B48206012F05DFD20B93E
:101500001948BDE810400DF006BF0DF080FB174BE9
:10151000002241F238114FF404701A704FF4FA634C
:10152000134AC2E903134AF64443C2E90003114BCC
:1015300020689360836801211B689847002805DABA
:101540000D480CF005FA0D480DF0E5FE42F2107062
:1015500000210BF037FE0A48D3E700BFB86401084A
:1015600020110024B44B0108C56401085E1B00244F
:101570000C11002438040024DB640108FA6401081B
:101580001A6501082DE9F04FDFF8E091ADF50F7D08
:10159000774B8046484600AFC9F80C30754E04F0D2
:1015A0006DFFC3B2744D337063B12A68500704D025
:1015B000724A012128460EF092FA07F50F77BD46D0
:1015C000BDE8F08FD9F80CB05846FFF7ABFC0446E5
:1015D0004046FFF7A7FC2044023004F02DFC0446EF
:1015E000B0B92B68590713D0EA468AB06A46644BF3
:1015F000C2F81C80C2E9053B624B1362624B42F8A1
:10160000103F4FF421510346284601F0F9F8D54622
:10161000D9F80C102046FFF77DFC5C49204613F0FA
:10162000B2F84146204613F0AEF801222146584850
:1016300004F054FDC3B233705BB12A68520704D082
:10164000544A01214C480EF04AFA204604F00EFCA0
:10165000B3E72C2207F10C014D4804F0EFFD042202
:10166000307007F10C004C4913F0A9F838B9042286
:101670004A4907F1140013F0A2F8804658B12B68CC
:101680005B0704D0464A01213B480EF01FFA404850
:1016900004F0B6FDD9E72B6803F00703022B25D928
:1016A000404A032134480EF011FA2B6803F0070377
:1016B000022B1BD97B6A3C4A03212F480EF00FFAFC
:1016C0002B6803F00703022B10D97B8C374A0321C8
:1016D00029480EF004FA2B6803F00703022B05D902
:1016E000FB8D334A032124480EF0F9F904223149D5
:1016F00007F1300007F1380913F061F800BB082248
:10170000391D234804F09AFD0C22307049462048C8
:1017100004F094FDDFF860A03070274E2B6803F0D2
:101720000703022B06D939F91830032132465046F7
:101730000EF0D5F908F10108B8F1060FEED1A6E7D1
:10174000D7F834B0DFF848A0BBF1000FD7DDBBF508
:10175000007F5A464946504628BF4FF4007204F0B5
:101760006DFD3070C0B2ABEB000BEDE70000002464
:10177000AB6501085F1B0024FC030024B065010871
:10178000CF6501080002010304000002C2680108DD
:101790003811002408660108206601082566010842
:1017A0002A6601084266010851660108666601085A
:1017B000756601088B660108906601082DE9F34102
:1017C0002748284E284DC66004F058FEC3B22B703F
:1017D00053B126480268520714D0254A012102B0AD
:1017E000BDE8F0410EF07BB931466846CDE90033E3
:1017F00004F042FDC4B22C703CB1224631461D4873
:101800000DF089FD02B0BDE8F08131461A4EDFF8D7
:101810006C80771C1A480DF07EFD1749684604F06D
:1018200093FDC0B2287080B9737873B13378012BFF
:1018300005D1394613480DF06EFD0134EDE73269EC
:10184000394640460DF067FDF7E7684604F0F4FDC1
:101850002B7803B92C70024804F0DAFED2E700BFFF
:1018600000000024AB6501085F1B0024FC0300247A
:10187000B06501089966010824110024D4660108A6
:10188000B4660108C96601082DE9F04F91B08407DC
:1018900005460E46009302F00403DDF868900293BB
:1018A000C2F3C203039203F10103059340F0BA812E
:1018B000041D30B1072909D86FF01B0011B0BDE835
:1018C000F08F01F00706341DC6F10806009B4FF0AB
:1018D00000084FF0040A591E4FF0FF334746C34635
:1018E00001935346CDF810800DB1009A22600598FF
:1018F000002800F3E8809848009A824203D3974872
:101900008242C0F0E080039AA4EB050E92074FEAF2
:101910009E0000F103810F2F00F2B180002D00F036
:10192000058107F140020DEB020C019A0CF8200C26
:101930000CF8102C049801300490E7E07A285DD868
:101940004B280ED8472859D829282DD8252852D0D9
:1019500054D820287AD02338D0F1000B4BEB000B61
:1019600074E04C382E2849D8DFE800F07048484829
:1019700048484848484848484B48484848484848E4
:101980004859484B4B595959704B6D487048184B42
:10199000184848827F4B48484B487F0000204FF052
:1019A000000B4FF0040A38E02A380122C0B202FAD4
:1019B00000F010EA0E0F49D110F0625C2FD110EA4E
:1019C000020B43D06046013C5444B4FBFAF40AFBDA
:1019D00004F4002D61D0A3EB050CA444B4453FF6FC
:1019E0006BAF002868D1042B47D159F8043B236022
:1019F000043404232AE0019A013A01924FF0000BCB
:101A000024E011F8010C6C2834D111F8023C0020BC
:101A10006C2B8346C5D14FF0080A5346D3E709F132
:101A20000709073429F0070924F00704F9E802AB95
:101A300035B106982044B0423FF63EAFC4E900AB52
:101A400008344FF0000B4FF0080A534611F8010F0D
:101A5000002878D0BBF1000F7FF470AF2528F5D1B6
:101A6000019B4FF0010B013301934FF0040AECE7A7
:101A7000584694E700208346A5E7082B02D06FF074
:101A800015001BE709F1070929F00709F9E8022306
:101A9000C4E9002308340823D8E768B9042B02D12D
:101AA00009F10409A4E7082BE9D109F1070929F094
:101AB000070909F10809EDE7059A013A059259F875
:101AC000042B009210E7039A900720D5A4EB050E93
:101AD0004FF0010C4FEA9E00BEF5007FCFD20F2FD2
:101AE000CDD8F5B107F14002C0B20DEB020E019A5C
:101AF0000EF8200C0EF8102CBCF1000F3FF41AAFBA
:101B000060F07F0008F101080EF8200C0137C5F1E4
:101B1000080204344FF6DA7E069297E74FF0000C85
:101B2000DAE7BCF1000F01D00136EFE70298023688
:101B30000028EBD10098CDE90631FFF7F3F9064410
:101B4000DDE90631E2E7631BB3F5806F97D23DB95B
:101B5000A6F10804E018B1E624490108548E0108F2
:101B60009B08029A28602B709DF81030C2B1EB7070
:101B700085F80280B8F1000F05D008A80022C5F151
:101B8000010C97420ED1C5F101030DF120094FF070
:101B9000000A0DF1300B0193574512D1601B8DE601
:101BA0006B70E5E710F8013B190608D504EB0C0E45
:101BB00003F07F03B6453FF67FAE04F8013B0132E8
:101BC000DFE7B8F1000F03D099F90020002A17DBF6
:101BD000029BD3B11AF80B2004F8012B0022019BC1
:101BE00098182044B0423FF667AE99F8000000997B
:101BF00004F8010B2046039212F085FD039A144469
:101C00000AF1010A09F10109C6E799F8002055F81F
:101C100022300093029B009845F82230FFF782F9AA
:101C2000421CDCE76FF00D0048E600BF2DE9F04FE5
:101C300097B00446894600AF90F802A0D7F880B06C
:101C40003B62CBF3C003FA62BB6141B945780078CF
:101C50000AEB800020444D4517D8A0EB0409E37837
:101C6000FB61BAF1000F02D01BF0010F16D1FB6926
:101C700053BBFB6A1BB13A6A4946204698474D461A
:101C800028465C37BD46BDE8F08F461C09F10109C6
:101C90003046FFF747F901303044DCE723786268CB
:101CA00099007A62FA6A796104EB8301002A40F0B4
:101CB00004814D460E4601EB0A094FF000084E45DF
:101CC00050D101EB0A0610E01BF0020FD1D02378AF
:101CD0009A0004EB83017A6162687A62FA6A002AE8
:101CE0007BD14D4601EB0A0690461BF0050F0CBF59
:101CF00002230123FB62FB6906EB430A0BF002039C
:101D0000BB625645BCD016F8021B16F8013C54F8CD
:101D100023909B4B994502D39A4B99453AD3BB6983
:101D2000002B44D0786A0DF0CFFA00283FD09648B7
:101D3000036813F0060F13D0E9468AB06A46934B46
:101D400053617B6AC2E906314FF400731384904BF0
:101D500042F8103F00234FF4125100F051FDCD46E0
:101D6000023DCEE716F8013BF96254F82300FFF775
:101D7000D9F8D7F884300130F96A4BB1D7F88830F8
:101D800098453EBFD7F8843023F8180008F10108C1
:101D9000054494E7BB6923B1786A0DF095FA0028F1
:101DA000C5D11BF0010F05D1FB6AED1AA9E7BB6A8B
:101DB000002BA6D04846FFF7B5F8D7F8843053B1CA
:101DC000D7F8883098453FBF431CD7F8842022F8C5
:101DD000183008F10108054493E7BAF1000F72D0FA
:101DE0001BF0040672D0D046002607F14800524688
:101DF0003B61B96212F087FCB96A3B6901EB0A02E8
:101E0000F969BA62FA695200FA60BA6A02EB4102F1
:101E10003A610BF00202BA603A69B96A8A4257D154
:101E20001BF0020F62780CBF4FEA580100217A6262
:101E30001BF0010F3244D2B240F09F801BF0040F20
:101E400014BF40460020BB616270A0702046E17064
:101E50003A6A7969FB6A9847051EFFF611AFBB69BC
:101E600041463A6A07F1480023707B6A84F802A071
:101E70006370FB69E370FB6A9847B0F10008C0F239
:101E8000B5807B69A9EB0A013A6AC91AFB68C91ACD
:101E9000D7E90A0398470028C0F2AA80A8444FF067
:101EA000000B07F1380A08EB0005B34572D3002197
:101EB0003A6AFB6A08469847E2E656464FF0000841
:101EC00007F1380093E75646D04697E7B04695E7C6
:101ED000BA6A12F8021B12F8015CBA6254F82500C3
:101EE000274A904202D3274A90421ED3BA6932B1A0
:101EF000786A7B600DF0E8F97B6800288CD1BA68BD
:101F000002BB08F1280207F1300C08F1010008F1CA
:101F10000208944407F158025FFA88F852FA80F0F8
:101F20000CF8101C00F8105C76E7BA693AB1786AD0
:101F30007B600DF0C9F97B6800287FF46DAF1BF062
:101F4000010F09D006F1280207F13000711C1618A4
:101F500006F8205CCEB25FE71BF0040F3FF45CAFE5
:101F600008F1280207F1300008F1010102EB000836
:101F700008F8105C5FFA81F84EE7002063E700BFC5
:101F800024490108548E0108AC030024F7660108B7
:101F9000040000011BF80A3054F8239087F837300A
:101FA000D7F88430FBB133F81B803A6A012107F17E
:101FB0003700FB6A984700281ADB0544B8F1000F88
:101FC00006D14846FEF7AEFF00F101081FFA88F877
:101FD0003A6A41464846FB6A9847002808DB0544B0
:101FE0000BF1010B61E7D7F88480DEE7454647E651
:101FF000054645E6014B1860704700BF24000024E9
:1020000080B505460E46174698460BF0F7F8DFF800
:102010002090034612F07CFC0446424649F800300A
:1020200039463046A84754F8090003F03DFB00BF8D
:1020300008000000044608B5EFF31183102383F372
:102040001288BFF36F8F03F0A1FC03F013FD10F0B3
:102050001AFC204603F016FB02480DF05CF90EF066
:10206000DBFFFCE7AB670108054B00205A6822F054
:1020700002025A605A6822F001025A60704700BF9B
:102080000010005C08B503F0DBFC03F051FC104BC2
:10209000104A1A60104BDA6822F0070242F002027E
:1020A000DA609A6942F440429A619A699204FCD5D6
:1020B0000A4B1A6841F20303B3EB124F06D1084AE8
:1020C000D2F8083143F00103C2F8083108BD00BF5F
:1020D000080300240090D003004802580010005C60
:1020E000008000512DE9F047044607464FF00109F2
:1020F000DFF8508014B93846BDE8F08794FAA4F5AB
:10210000B5FA85F509FA05F32E0108EB05156FEA16
:10211000030A24EA03042B7B002BEBD058F806308B
:102120001B694BB946440422284607EA0A0773682C
:10213000196800F025FBDDE7284698470028D9D12B
:10214000F0E700BF9C51010830B5002289B00F496B
:102150000F4812F055F90022002300240D4D0E49BE
:1021600028460094CDE906230E234FF44072CDE9B2
:102170000334CDE90144094B0AF01AFD0849284609
:102180000AF042FC204609B030BD00BFA52100087E
:10219000100A00245005002400200024C524000853
:1021A0000368010801480AF05FBA00BF7C040024FC
:1021B0002DE9F04780461E480F460DF0E5FB064628
:1021C00078B300252846BDE8F087237B6BB12368F0
:1021D000DB680BB12046984723681B69CBB963685D
:1021E00004222046196800F0CBFA013610344C4521
:1021F000EBD3B8F1000FE5D0002DE2D02846FFF771
:1022000071FF0546002FF7D0002164200AF0DAFFA5
:10221000F2E7204698470028E1D00AFA06F31D436A
:10222000E3E7044C0546DFF810904FF0010ADEE7C3
:10223000A01300249C510108AC51010808B50346C5
:1022400008462BB1044A136000F07CFD002008BD55
:102250006FF01500FBE700BF2800002410B5044C08
:10226000237813B903480AF0FFF90123237010BD46
:10227000601B00247C04002410B504460B480DF0BC
:1022800083FB5CB10A4BBFF35B8F53E8001F01393E
:1022900043E80012002AF8D1BFF35B8F054812F023
:1022A000BBF80548BDE810400AF0DEB998130024D9
:1022B0009C130024100A00247C0400240020064BF8
:1022C000BFF35B8F014653E8000F43E80012002A7A
:1022D000F9D1BFF35B8F70479813002470B5FFF7F7
:1022E000EDFF084C0546084EB44200D370BD63684C
:1022F0005B792BB123685B6813B129462046984768
:102300001034F1E79C510108AC51010810B5044CA0
:10231000044920460DF006F9034B1C6010BD00BFB8
:1023200068030024C45301089013002408B5094A27
:1023300000234FF47A7108481370084A1360084A62
:102340001360FFF77BFFFFF7E1FFBDE8084000F0F7
:1023500067B900BF611B0024A3F90008981300248B
:102360009C13002401460022002301480DF0FBB815
:102370006803002401480DF091B900BF68030024F0
:10238000024B014618680DF0DDB900BF9013002420
:1023900001480DF012BA00BF68030024324B2DE94A
:1023A000F041187800285DD0FFF7E4FF044698B1AB
:1023B0002E4BBFF35B8F53E8001F013943E8001237
:1023C000002AF8D12A4DBFF35B8FDFF8A88045457E
:1023D00026D32046FFF7D4FF274B284C1B68002B41
:1023E00012DD12F00BF80A220023FEF76FFDD4E98C
:1023F0000032C01A40F2E93361EB0201984271F1F8
:10240000000101D3FFF76AFFD4E9003213F57A73B4
:1024100042F10002C4E90032BDE8F041FFF7B8BF65
:102420006B685B793BB121784B0706D52B68214659
:1024300028461B6898471035C9E726882046C1F30F
:10244000C20700F0BDFAC6F382160246002EEDD098
:102450000028EBDB01233946284600F0ABF9B042F7
:10246000E9D3E3E7BDE8F081601B00249C1300245E
:102470009C510108AC51010898130024080A00245B
:1024800070B50D4D297861B90C4C01200C4EFFF749
:102490008FFEB44206D3FFF781FF0028FBD1012352
:1024A0002B7070BD63685B791BB1236820469B6805
:1024B00098471034EDE700BF611B00249C510108D0
:1024C000AC51010800212DE9F0470846FFF770FEE6
:1024D000044658B34FF4FA784FF000091C4B12F041
:1024E00017FA1C4A1B58136033B11B4B1B68092B8E
:1024F00002DD1A480AF0B8F80025194FDFF85CA091
:1025000044B12046FFF7EEFD044618B94FF0FF38FE
:102510004FF0FF39FFF742FF064628B9B5B94246EA
:102520004B4650460AF0D6F83546E9E74FF0FF38FB
:102530004FF0FF39D2E72B689B691BB10022284678
:10254000114698471035BD42F5D3E8E7054DFAE747
:1025500008000000941300249C1300247C04002431
:10256000AC5101089C51010813B518480DF00CFA44
:10257000174B1B7873B1EFF31184102383F3128888
:10258000BFF36F8FFFF70AFF84F31188BFF36F8FDC
:1025900002B010BD0F4B1B68002BF9D050B90022C0
:1025A00000230D48CDE9002342F2107200230BF006
:1025B000DDF8EDE70928EBD1074811F02DFF0748BA
:1025C00002B0BDE810400AF04FB800BF9C130024D1
:1025D000611B002494130024100A00247C040024AE
:1025E000064B10B504461B6898472146A060044876
:1025F0000DF035F8BDE81040FFF7B6BF2800002405
:1026000068030024044A054B9B1AB1EBD30F34BF77
:1026100052F8310000207047F45001089C51010825
:102620000B4800210B4B1B1A043030B5DB080A4C59
:10263000994200D130BD10F831200131256802F0F7
:10264000070225F007052A4344F8042BF0E700BFF2
:10265000F45001089C510108AC030024F8B50B4F5D
:1026600006460B4D0024ED1BED08AC4203D14FF0A4
:10267000FF342046F8BD57F8340020B13146FEF74C
:102680003FFC0028F5D00134EFE700BFF45001080B
:102690009C51010800282DE9F047884615461F4641
:1026A0001DDADFF898904FF0000A254E5446A6EB4D
:1026B00009063609B24509F1100902D12046BDE8E4
:1026C000F08759F80C0C3B462A46414600790AF13E
:1026D000010AFFF7DFFF844238BF0446EAE7194BDF
:1026E000194AD21AB5EBD20F25D203EBC5031C79D8
:1026F000BC4228BF3C46C0B20722144E002100EB6A
:10270000400056F82530824023EA020304F0070215
:1027100082401343032223FA02F0033200F0070041
:10272000814238BF01461E2AF5D123F007030B432F
:1027300046F82530C2E70024DDE700BF9C510108C0
:10274000AC510108F45001089C510108AC0300246D
:10275000F8B5094D0646094B0F460024ED1AED0861
:10276000AC4200D3F8BD22B201343B4600213046D2
:10277000A4B20DF031F9F3E79C510108F4500108BF
:1027800038B50B4B0D4611464268C31A04461B115F
:102790000133137143689971FFF7DAFF636801220F
:1027A0001D6063685A71BDE83840FFF757BD00BF30
:1027B0009C51010870B14168097973B1002A17DB97
:1027C000CBB20C4903EB430351F82200D84000F090
:1027D000070070474FF0FF31EFE707490748401AFD
:1027E000B2EBD00F3ABF01EBC2010879184670472F
:1027F00004207047AC030024F45001089C510108E8
:102800002DE9F04F8FB0C1F34A280D46914604AF31
:102810000C0DB8607B60B8F1000F67D0002607F19F
:1028200014034FF0040B4FF00A0AC7F80C8032462D
:102830007E624846C7E90766019307F11C03CDF89D
:1028400008B0CDF800A0F968FFF7F0F9B0F5006F17
:10285000034620D32A48036813F0060F17D06C46AE
:102860008AB0D9F8041004AB264D1A46C3E90551C5
:1028700040F2FF71D9614FF400711984224B42F884
:10288000103F4FF412513346FFF7BAFFA5462C37DD
:10289000BD46BDE8F08FC0F30A0804F117003B60A5
:1028A000184468F3532520F007008008FFF75AFD0D
:1028B000044690B13B6800F11001144A4846F961A2
:1028C000C7E9083607F11403CDF808B0CDE900A335
:1028D00007F11C03F968FFF7A9F968F353257B6832
:1028E000B96820462A460DF0A1F8D0E704F1170098
:1028F00020F007008008FFF735FD0446EDE700BF34
:10290000D8030024186801080400000101FA000837
:102910002DE9F04F87B00446934698460391DDE9D0
:102920001279DDE9105ADFB13B46524610210020F2
:10293000CDF80090CDF81490FEF7A6FFB0F5006F2B
:1029400006460ED31C48036813F0060F30D040F241
:10295000FF731A4A022107B0BDE8F04F0DF0BFB86F
:102960003E4604F0070405F117000BF0070BE400E6
:10297000304444EA8B1420F0070044EA46248008DF
:1029800044EA0554FFF7EEFC054640B13FB13B4633
:10299000524631461030CDF80090FEF775FF4346A1
:1029A00022460399284607B0BDE8F04F0DF03EB827
:1029B00007B0BDE8F08F00BFD803002457680108B6
:1029C000406820B1034BC01A40F38F0070474FF0AE
:1029D000FF307047AC0300240EB403B503AB0146CF
:1029E000054853F8042B019303F0E8F902B05DF8B1
:1029F00004EB03B0704700BF29FB0008CA0605D4EA
:102A00008B064CBF02490349FFF7E6BF704700BF82
:102A1000C36C01088F6801082DE9F04F89B09B460F
:102A200004460D46149B90469DF84CA00693159BBA
:102A3000179E0593169B0493BAF1000F00F09D803A
:102A400006F4807306F0020907930CF0C3FF0246F8
:102A500000283ED091492046FFF7BEFF0746B9F156
:102A6000000F08D016F0440F35D12A468C49204675
:102A7000FFF7B2FF074406F0010353B1894B20462C
:102A8000894953F82A20894B002A08BF1A46FFF7C4
:102A9000A3FF06F48073002B49D006F00803002B37
:102AA00063D1B8F1000F66D0424681492046FFF756
:102AB00093FF0546069B3D44002B6DD1049B002BE4
:102AC00073D1F30700F1E48031462046FFF796FF0B
:102AD000D8E00746C3E7774B18680028CAD0764B82
:102AE0004FF47A794FF461614FF03C0C1B68B5FBF1
:102AF000F3F5B5FBF0F300FB135509FB05F5B3FB4C
:102B0000F1F2B5FBF0FE01FB123100FB1E55B1FBEB
:102B1000FCF309FB05F50CFB1311B5FBF0F5009177
:102B200020466649CDE901E5FFF756FFA2E706F02A
:102B30000803EBB1624B2046624953F82A20FFF7A5
:102B40004BFF0546B8F1000F05D0424658492046D4
:102B5000FFF742FF0544BBF1000FABD05A465A497C
:102B60002046FFF739FF0544A4E74FF0000BE1E7EB
:102B700006F00805E6E745469CE7BBF1010F069B1A
:102B800006D1002B64D1049B002B7BD000250CE0E8
:102B9000002BF8D04D485CE04D48069B22464D493D
:102BA0000CF061FB049B002B68D0DFF82C81DFF870
:102BB0002C91049F4FF0000B31462046102F28BF68
:102BC0001027FFF71BFF5D4545DC059B4FF0010B10
:102BD000494620461A78FFF7FFFE1BF0070F03D186
:102BE00041462046FFF7F8FE5F453BD9059B494625
:102BF000204613F80B20FFF7EFFE0BF1010BBBF1A2
:102C0000100FEAD14FF0000B35492046FFF7E4FEE4
:102C10005A46059B20469A5CA2F120015F29314962
:102C200028BF2E22FFF7D8FE0BF1010BBBF1100FCE
:102C30001DD01BF0070F03D141462046FFF7CCFE05
:102C40005F455A46E5D841462046FFF7C5FEEBE70B
:102C50001F485546A1E7414620460BF1010BFFF7FF
:102C6000BBFEB0E720492046FFF7B6FEC5E7059B4F
:102C70003B440593049BDB1B04939AD1BAF1000FEC
:102C80007FF41FAF204609B0BDE8F04F0CF03FBF06
:102C9000064A20460449FFF79FFE15E7976801089A
:102CA0009B680108D8530108AC6D010892680108BF
:102CB000C0680108A8130024A4130024A468010814
:102CC000EC530108C4680108CA6801085FFB0008EA
:102CD00029FB0008BD5D0008348C0108CF6801089D
:102CE000D5680108BF730108328C010842F20F73E6
:102CF000114A8B4273B5044628BF0B46056805216F
:102D000068460AF045FE636806460B2228465B6863
:102D10000A490CF0EEFE63683246694628465B6855
:102D20000CF0E7FE63681B2205495B6828460CF03F
:102D3000E0FE02B070BD00BF87830108F3680108A0
:102D4000D768010800210123064A904206D8064AA6
:102D500001B901231360054B186070474008012139
:102D60005B00F2E740420F00A4130024A8130024E4
:102D7000014B036001207047005401082DE9F8431E
:102D80000646FEF7CFF80546EFF31188102383F3CC
:102D90001288BFF36F8F114B1C68D3F804909C42CC
:102DA00008BF002434B988F31188BFF36F8F204621
:102DB000BDE8F883A7683846FEF7B4F8A84206D104
:102DC0002A463946304611F0FAFC0028EBD04C4533
:102DD00001D02468E6E70024E5E700BF2C000024CA
:102DE0002DE9F0410E461546FFF7C8FF044640B3F3
:102DF000C36833B31F6927B3062E07D0072E23D02D
:102E00002A4631463B46BDE8F0411847838A3BB924
:102E10002A463146B84750B9A38A0133A38206E057
:102E20004FF6FF72934204D00133A3820020BDE825
:102E3000F081164803685B0703D0154A01210CF0A6
:102E400045FE6FF01500F2E745B12A7832B1002255
:102E5000314682822A461B699847E7E7A38A012BFD
:102E600008D12A4607212046B8470028DFD1A38A87
:102E7000013BD3E70BB1013BD7E70448036813F0EC
:102E8000060FDED0034A0221D9E700BFB0030024B9
:102E90002F6901085169010810B5044608B180681E
:102EA00050B9134803685A0703D0124A01210CF0A5
:102EB0000DFE6FF0150010BDFFF760FF28B10C4844
:102EC00003685B07F5D00C4AF0E7A082EFF31181AD
:102ED000102383F31288BFF36F8F084B5A68C4E93D
:102EE000003214605C6081F31188BFF36F8FE2E7FA
:102EF000B00300246F690108886901082C000024D0
:102F000010B5044606F0E2FC0349024620460DF0E7
:102F100048F8002010BD00BFC869010837B5134646
:102F2000002205460A21019201AA586801F0CEFB51
:102F3000019C4CB920EAE0700A2180FB01010AF0F3
:102F400041F9204603B030BD2246034928460DF022
:102F500044F8019CF5E700BFF4690108034A0449FD
:102F600008B50DF01EF8002008BD00BFE46A010896
:102F7000EB6A01082DE9F34117460023044601AA34
:102F80000A21B868019301F0A1FB019DC6B24DB1C1
:102F90002A46144920460DF020F8019D284602B02B
:102FA000BDE8F081042E09D932460F49204601259B
:102FB0000DF013F820460DF04BF8EFE77868FFF7B7
:102FC0004DFBB0F1000804DA7A68204607490DF09D
:102FD00004F8002133460FFA88F208460CF0FCFC96
:102FE000DCE700BF166B01083D6B0108546B01085C
:102FF00010B5044606F04CFC0749024620460CF08A
:10300000D0FF204605490CF0CCFF214604480AF0C9
:10301000B1F9002010BD00BFE66B0108056C010886
:103020002530000870B58EB004460D46D0F89C607F
:1030300011F0B2F8224A034611F06AFC1058214AF6
:103040002149002B18BF1A46234600921F4A84428A
:1030500018BF0A4628461E490CF0A3FF28461D4902
:10306000D4E90A23CDE9002394F90E30227B0CF039
:1030700098FF06A92022204609F0D6FC636E02467E
:10308000154928460CF08DFF05A9204611F094F84B
:10309000024628B1114928460CF083FF0EB070BDDE
:1030A000059B64222846F11A4A4300910C49B2FB61
:1030B000F6F2CDE9016232460CF073FFEEE700BF95
:1030C000080000000F6C0108348C0108987D01088D
:1030D000126C01081E6C01084A6C0108616C010841
:1030E0008E6C0108F0B591B0002504461C2208AF93
:1030F000294609A8144E11F02EFB1A222021384629
:1031000011F029FB214611480AF034F907AA4FF4BF
:103110000061304611F044F8079A64232046C2F556
:10312000006100974B43DB0A05934FF40063CDE940
:103130000313CDE9013206492B46A6F140020CF0FB
:1031400030FF284611B0F0BDC02B002455310008D7
:10315000DF6C010870B5044688B00D46D0F89C605D
:1031600007A911F029F8024628B10F4928460CF0AA
:1031700018FF08B070BD204611F00EF8079B6422BE
:103180000096F11A4A43B2FBF6F2CDE90131074B42
:103190000749002818BF03462846CDE903622246A6
:1031A0000CF0FFFEE5E700BF616C01080F6C010841
:1031B000286D01082DE9F04387B005461A4F68468F
:1031C000DFF8688008F068FF1423009E0821184A81
:1031D00003FB006628460CF0D7FEDFF85890009CF1
:1031E000B44203D3002007B0BDE8F08323680BB1DD
:1031F0001A7832B923463A46142101A80AF0C8FBCE
:1032000001AB4246082128460CF0BEFE204614348D
:1032100010F0D2FE084B094A0821002808BF4B468F
:1032200028460CF0B1FEDBE7A56D0108AA6D010888
:103230009B6D0108926D01088C6D01081E740108D8
:103240002DE9F041144688460746102200216068A7
:103250000AF040FCB8F1020F064607D82023254AA1
:10326000082138460CF090FE336816E00A2200214F
:10327000A0680AF02FFC1F4AC5B2082138462B4629
:103280000CF082FEB8F1030F1AD1102D0CD0202DB6
:10329000EAD0082D0BD13378DBB2174A0821384623
:1032A0000CF072FE002009E033889BB2F5E7384647
:1032B000124A08210CF068FE6FF01500BDE8F0819D
:1032C00010220021E0680AF005FC0D4A034604467E
:1032D000082138460CF058FE102D06D0202D07D0BE
:1032E000082DE4D1E4B23470DCE7A4B23480D9E72D
:1032F0003460D7E7DE6D0108096E0108F36D01083F
:103300001A6E01082DE9F04F4FF0FF35594B9146E9
:10331000202601222C46DFF860A185B007468846AA
:103320001A6002F0B1FD49465246404602F0D0FD17
:10333000411C06D16A1C50D1504938460CF04DFE54
:103340001CE073281FD0772832D0612816D1DFF80F
:1033500030B110220021DBF800000AF0BBFB05466B
:103360000028E0D1474B11F0D3FA1B58162BDAD1C5
:10337000DBF80020444938460CF02FFE6FF01500B2
:1033800005B0BDE8F08F0022DFF8F4B01146DBF89D
:1033900000000AF09FFB04460028C4D1394B11F00D
:1033A000B7FA1B58162BBED1DBF800203749E2E7ED
:1033B0000022DFF8CCB01146DBF800000AF08AFBEF
:1033C00006460028AFD12F4B11F0A2FA1B58162B3E
:1033D000A9D1DBF800202E49CDE7631C01D12D498E
:1033E000ABE75FFA86F8C6F3C406002C3FD06B4605
:1033F0002946A6EB050C1A460CE0B8F1100F1DD0BB
:10340000B8F1200F20D0B8F1080F2AD10878187031
:1034100031443344A64203D80CEB01001028ECD908
:10342000102CA1462946384628BF4FF01009103508
:103430004B46A4EB090401F021F8D6E7088880B2D6
:103440001870000A5870E3E708684FEA102E1870E9
:1034500083F801E04FEA104E000E83F802E0D870C6
:10346000D6E70D4A082138460CF08EFD86E7204647
:1034700086E700BFB4000024686E01086F6E010883
:10348000641600240C0000002E6E0108416E010835
:10349000546E01088C6E0108F36D010870B50F4E73
:1034A00004460D46337871B123B10D49BDE8704033
:1034B0000CF093BD012333700A4920460CF071FDD6
:1034C0000123337004E083F001033370002BF3D148
:1034D00029462046BDE870400CF0D7BD621B002491
:1034E000A66E0108E16E010870B504463B480378FA
:1034F000182B02D10B78112B31D0013A0B468D18C5
:10350000AB4225D18B5C0A780370A2F13003344CB6
:10351000092B04D922F02003413B052B04D8236852
:103520003049CA54013323602368022B33D110225F
:1035300000212C480AF0CEFA2B4A136803F8010B3D
:1035400013602A4A1368013313600023236022E0CA
:1035500013F8016B182ED3D11E78112ED0D1234D24
:10356000204623492A680CF01CFD20460021FFF765
:1035700095FF204B187870B91F4A2B681168042BEF
:103580000ADC08B111602B6013F003010BD1126843
:1035900013681BBA136070BD0868043B00BA41F899
:1035A000040B0120EBE75B4203F0030358BF5942D1
:1035B000022904D1126813885BBA9BB2EAE7032997
:1035C000E9D1106802681104C2F3074302F47F4294
:1035D00001F47F010B4313430360DCE7631B00240A
:1035E000AC130024651B0024B8130024B01300247E
:1035F0000B6F0108641B0024B41300242DE9F84F5D
:1036000000230C462A490646DFF8A88015460B60C1
:10361000DFF8A4902949DFF8A8B088F800300B60E3
:10362000012C2F4655F804AF1ED9022249465046B8
:1036300011F0C5F880B99AF80220003A18BF0122AB
:10364000924420490222504611F0B9F830B90123C2
:1036500088F80030013CE3E70022F1E74946504694
:10366000FDF74EFCA8B904370022786811460AF02D
:10367000BBF90022144B1146186078680AF0B4F9BF
:10368000124B134918603046FFF708FF0020BDE8D1
:10369000F88F9AF800202D2AE6D19AF80120002A06
:1036A000E2D05246594630460CF07BFCD2E700BFD0
:1036B000AC130024641B0024256F0108B013002400
:1036C0002B6F0108286F0108B8130024B4130024DD
:1036D000E934000807B50A4810F06EFC60B1042315
:1036E000084A0749009301231268074800F02CFF9D
:1036F000002003B05DF804FB6FF01200F9E700BF93
:10370000784B0108F8540108AC51010810B5446821
:10371000A3604023C4E9001242680821D36402F187
:103720005803D16202F150011363002314685363FC
:103730001364116153611362C2F8D030C2E90E33D1
:10374000C2E91133C2E90633C2E90933A36823B1E0
:103750009B6C13B1044920469847A3689B6A0BB140
:1037600020469847002010BD6D3700082DE9F7432B
:1037700004460D4683685B6C03B19847A3685B6B96
:103780000BBB4FF0000905F13008EA6C01A9404677
:103790000CF02CF80746002836D0A36801999B69E5
:1037A0003BB3024620469847064628B3314640467A
:1037B0000CF03CF8B7424FF00109E6D0D5E90131F1
:1037C0000020984703E0204698470028D9D1A368F5
:1037D0005B6A63BB05F11007EA6A01A938460CF081
:1037E00059F8064650BB20460CF051FAC5F8D06097
:1037F0002FE06FF05706D9E7014640460CF016F867
:10380000B9F1000FE3D0D9E71648036813F0060FAB
:1038100003D0154A02210CF059F9A3689B69002BCB
:10382000EED001220DF1030120469847E8E720463B
:1038300098470028CED103B0BDE8F083A368019972
:103840005B695BB1024620469847014638460CF05A
:1038500040F80120D5E901319847ECE76FF05701B6
:10386000F4E700BFEC0300249270010810B58168F2
:103870000446183101F05EF9A1682046024A183169
:10388000BDE8104001F0FCB8D470010838B5836879
:103890000446D3F87831DB071DD4C0690DF01AF95E
:1038A000606803685B689847054620B9E0680DF0DA
:1038B000E5FAA3681D75A3685B6C13B12946204621
:1038C0009847A368002211F023F8C3F82022034B85
:1038D000185801F0E9FE6FF00F05ECE70800000052
:1038E00001490CF072BA00BFC36C0108F7B5044679
:1038F00080680D46D0F878315A0705D500210CF0C4
:103900008CFAE0680DF08CFAE368DB6873B9002D7F
:103910003BD0A66806F1560738460CF063FA00283B
:1039200035D0394606F1D600FDF7F4FAA2680DF15C
:1039300006032946E06856320DF075FA58B9A068BA
:1039400000F1D6015630FDF7E5FAA06856300CF0CC
:1039500049FAADF8060020460CF088FEA368D3F8BB
:1039600074319B0603D50B4960690CF02EFA204692
:1039700000F014FFA268BDF806302046A2F85230CD
:10398000A268A2F850300CF0D7FD03B0F0BD86F865
:10399000D600CBE71C5301082DE9F04FA7B0044631
:1039A0005422002111A810F0D6FE00232046CDE9B4
:1039B0000533A368563302930CF05FFE20460CF0EB
:1039C000A4FD10B96069FFF78BFFA06814220021E5
:1039D000002618304FF0FF3710F0BDFE20460CF0E7
:1039E0003BFDA168E068B246B1F850200DF14408F3
:1039F0005631B3463546B1460DF04CFA20460DF02F
:103A0000CBFA0396DDE90532012A6DD0132B6ED86F
:103A10005FBBBBF1000F0AD020460DF0DAFAA268B6
:103A2000142311A956320DEB03000CF094FBB9F1ED
:103A3000000F0CD099F81130FE2B08D1059B26AA57
:103A400002EB830252F8542C0AB101330593A068AB
:103A5000059D436A002B40F0B680CEB1C3699E42FB
:103A60002DD000F118050D9624E00223029A41465C
:103A700006A80CF070FBD8F80420069903460292C1
:103A800031B101290AD148B16D4A20460CF0A6FE99
:103A90006FF00705284627B0BDE8F08F059B002B87
:103AA00034D0D8F8000001F065F898B166B1A56887
:103AB0000D9618350CAE0FCE0FC533682B6020461F
:103AC0000125FFF7D3FEE5E75E4A012120460CF011
:103AD00085FEDDE7059BCBB1D8F8002029462046BE
:103AE00001F0E4F9022809D1059B132B91D9069B1B
:103AF000022B8ED1544B0121544AC6E7032805D02E
:103B0000059B4FF0010B013305937BE7039B33B912
:103B100007AAD8F8001048460CF014FC054608F136
:103B20000408013F9DB3EB68BBF1000F08D0F3B16F
:103B300020460CF0A2FD20460CF0FEFC444AC4E7EF
:103B4000ABB1A368AE46DDF814A003F1180CBEE8D3
:103B50000F00ACE80F00DEF80030CCF80030AB68A6
:103B60002BB96B7CFE2B04BF2F7C07F1FF37D5F8F8
:103B700004C0BCF1000F08D0AE460CAEBEE80F008A
:103B80000FC6DEF8003033606646A94603E0059BA9
:103B900053B101230393069B17B9022B7FF432AF75
:103BA000059B013305932DE7A368DB6A13B1DB683E
:103BB000002BEED1274B0121274A20460093119B71
:103BC0000CF00CFEE5E790F82830A5EB0A05BBB138
:103BD00090F829104FF6FF72FF2918BF0A469D4240
:103BE00002D313449D420BD9836901211B4A20460D
:103BF0000CF0F4FD20466FF01505FFF737FE49E79E
:103C000001210CF0FFF8A06800F503700CF01EF91C
:103C1000A36811AA29465B6A204602EB8A029847EC
:103C20000546A0684FF0FF324FF0FF3300F50370F8
:103C30000CF0B3F80021A0680CF0E4F82AE700BF0C
:103C4000E2700108F6700108577101086F6B0108F6
:103C500014710108437101084B7401087B7101085C
:103C600010B50222836804461A7583689B6CBBB941
:103C70000CF06AF88368D3F87831DB040BD50321A4
:103C8000084B094A0CF0AAFDA0686FF4805100F5BA
:103C9000BC700CF073F82046BDE8104000F0D2BEB6
:103CA00010BD00BF96710108AC6D01082DE9F04F01
:103CB00004468068B1B0012100F5BC700CF04FF8EB
:103CC000A3681B7D022B20D100230993A3686068A1
:103CD0009E6C03681D6909AB0EB310221BA9A8478F
:103CE000099B93B10121A0680CF08CF8099A1BA9DB
:103CF0002046B0470021A0680CF084F8A3689B6CB4
:103D0000002BE3D12046FFF7ABFFA0686FF0010165
:103D100000F5BC7031B0BDE8F04F0CF02FB80122B7
:103D20000DF12301A847099B002BEED09DF923201C
:103D30009DF82310002AA368C8DB5A7D032A00F2ED
:103D40009482DFE812F004008102980292020D29A9
:103D50007CD00A2958D0B3F8782109296FF3CA0218
:103D6000A3F87821A06800F086803DD80029ADD066
:103D7000082900F0F8810346D3F874219207A5D5ED
:103D800001391629A2D801A252F821F019430008DE
:103D9000A1410008A9410008994100080D4300080D
:103DA000C7410008CD3C0008CD3C0008CD3C0008D0
:103DB000CD3C0008CF410008D7410008CD3C0008A9
:103DC00001420008CD3C00080B420008CD3C000831
:103DD000CD3C0008CD3C0008CD3C00080F42000857
:103DE000CD3C0008394200081B2941D07F2900F052
:103DF000C681A1F1200203465E2ABDD801210CF044
:103E00000CF89DF82310B7E0D3F87821C2F3C7026D
:103E10002AB1D3F87821C2F3C7020A2AACD1B3F889
:103E2000782161F3CA02A3F87821A568B5F850108B
:103E3000C1B928460BF0F1FFE0680CF0F1FF6069B2
:103E4000FFF74EFD2046FFF70BFF3FE7D3F8782141
:103E5000C2F3C702002AE2D0D3F87821C2F3C70226
:103E60000D2ADBE72046FFF797FDC5F82402E9E7B6
:103E7000012343752AE7D0F874319B077FF526AFFD
:103E800001210BF0CAFFA068B0F850307F2B3FF43F
:103E90001DAFB0F8522000F15601D630002510F0C9
:103EA00032FCA3681BA90BA8B3F85220134483F873
:103EB000D6501423A268D6320CF04DF90B99142970
:103EC0003FF604AF30AB03EB810343F8545CA368C7
:103ED000B3F85220002A53D0134493F85530202BC6
:103EE00002D0093B042B4BD800294CD100250A9560
:103EF00030AA0A9B002602EB8303B346B04653F870
:103F000054AC374650460BF06DFF814616AA394631
:103F1000284600F0A1FB0346002840D1012EA768E7
:103F200065D130AA0A9B02EB830353F8540C0BF0C3
:103F300059FF07F1180206464146284600F08CFB5F
:103F4000056828460BF04EFF864205D0821BA91952
:103F5000204692B20CF089FCA068B0F852300344BD
:103F600093F85630202B31D0093B042B2ED9D0F8B2
:103F70007431DF072FD42021204600F02BFDA5E669
:103F80000129B3D9013900200CAB1BAA00930AAB5D
:103F900001900CF003FA05460028A9D196E61B68AB
:103FA0004A4651461846039310F009FC60B9039B3A
:103FB0001846FCF7B7FF584538BF5846002E08BFD3
:103FC000B84601361FFA80FB01379FE701212046E2
:103FD0000CF0E6FA7AE600210BF029FF20212046BA
:103FE00000F0F8FC0121A0680BF021FF6EE60490C0
:103FF0007FF66CAE30AB0A9AC14603EB820252F8F0
:10400000543C184603930BF0EDFE049B0590A7F873
:1040100040300496A2684946284609F10109183241
:1040200000F01AFB039BD0F800A04BB1BAF1000FCF
:1040300006D0059A1946504610F0C1FB0028E9D178
:10404000A168BAF1000F4CD1A1F840A0049B013B3C
:104050000493DFD1606908F1010AFFF741FC2046B3
:1040600000F0F0FC30AA0A9B02EB830353F8540CD7
:104070000BF0B8FE414611AA8146284600F0ECFA42
:104080000746A0687F223968D63010F0AAFB3B684B
:104090004FF6FF770393B84616AA514628460AF111
:1040A000010B00F0D9FA002851D0A1680022036862
:1040B000D53111F801EF985C704503D110B1013290
:1040C0004245F6D1B9F1000F01D04A4507DBBA42AB
:1040D00006F1FF36A8BF3A46012E97B237D0DA462E
:1040E000DAE7994806910BF07DFE069900EB0B0785
:1040F0004A8FBFB20791121A504692FBF7F292B262
:1041000006920BF06FFE07993F1A069AB1F840002D
:10411000BFB200F1010CA1F840C0B0FBF2F102FB0C
:10412000110080B260B9884B0621884A2046CDF83C
:1041300000A00CF053FB3946204600F019FB85E740
:104140005346834A062120460CF048FBF3E7002F34
:104150003FF4BCADA7EB09020399204692B2494453
:104160000CF083FBB2E5D0F874319E077FF5AEAD5D
:1041700001210BF052FE20460CF098FBA6E5D0F88A
:1041800074319D077FF5A2AD01210BF046FEA368B7
:10419000D3F874311907EED420460CF068FB95E58E
:1041A00020460CF073FA91E520460CF066FA2046A2
:1041B0000CF0ABF910B96069FFF792FB0121A06820
:1041C0000BF02BFE3EE620460CF069FA7EE5204619
:1041D0000CF070FA7AE5D3F874319B0603D55D498B
:1041E00060690BF0F2FDA368D3F874319F0603D524
:1041F000594960690BF0E9FD204600F023FC65E5B4
:1042000000212046FFF772FB60E50121F9E7204617
:104210000CF02CFA20460BF097FD0121A0680BF062
:10422000FCFDA368D3F874319E067FF54FAD4B4972
:1042300060690BF0CAFD49E5204600F029FB012129
:10424000A0680BF0EAFD41E55B2902D102225A7514
:104250003CE5D3F874319D0706D5622907D14FF0AC
:10426000FF3120460CF0C4F9A3680022EFE766296D
:10427000FAD10121F5E700225A75A268D2F874310B
:1042800098077FF523ADA1F131031B2B3FF61EAD3F
:1042900001A151F823F000BF154300082143000895
:1042A0003543000809430008CD3C0008CD3C000818
:1042B000CD3C0008CD3C0008CD3C0008CD3C0008BA
:1042C000CD3C0008CD3C0008CD3C0008CD3C0008AA
:1042D000CD3C0008CD3C00080B420008014200081C
:1042E000C7410008A1410008CD3C00080D4300086B
:1042F000CD3C000819430008CD3C0008CD3C000827
:10430000CD3C0008254300080323537520460CF0DC
:10431000B4F9DBE40323537520460CF0A7F9D5E488
:1043200003235375A068D0F8741101F0010181F0E6
:10433000010159E603235375A368D3F874319B0731
:104340007FF5C4AC28E700BF338C0108DA7101089F
:10435000AC6D010821530108265301081C530108C4
:104360002DE9F04104468068154600F5BC7000292F
:1043700037D04FF480410BF0F2FCA3680021DD64DC
:10438000606803689B68984700284BD120460BF073
:1043900083FD002846D1244E244FDFF89480A06886
:1043A00000F5DE704FF0FF324FF0FF33032109F0CC
:1043B00017FA0546A0684FF0FF324FF0FF3300F5C3
:1043C00003709DB10BF0E9FC20462B46194A0121F0
:1043D0000CF004FAA068BDE8F04100F503700BF0A2
:1043E00035BD6FF480410BF0C9FCC6E70BF0D5FC7E
:1043F0003246022120460BF0D2FC3A46294620469E
:104400000BF0CDFC2046424601210BF0C8FC606851
:1044100003685B6903B19847A06800F503700BF06F
:1044200015FDBCE7BDE8F0818D380008AD3C000803
:1044300051FE0008E071010810B504460A490BF06E
:10444000B0FD0A4920460BF0ACFD204608490BF0B0
:10445000A8FD204607490BF0A4FD2046064A00218E
:1044600000F00EFB002010BDF77101083572010845
:1044700094720108E872010882730108F8B51E46BB
:1044800017460A46294904460BF08BFD3EB3012529
:104490003A78274920460BF084FD6A0703D1254965
:1044A00020460BF07EFDAE421ED97A5D20462049A3
:1044B0000BF077FD0135102DEFD11F4920460BF091
:1044C00070FDB6B901251B4920460BF06AFDAE42CE
:1044D0002B4610D8174920460BF063FD15E0012547
:1044E000164920460BF05DFD144920460BF059FD9E
:1044F000E0E700252B46FA5C20461149A2F1200393
:104500005F2B28BF2E220BF04CFD0135102D06D05D
:104510006B07DCD1074920460BF043FDD7E7204667
:104520000849BDE8F8400BF03CBD00BF9873010896
:10453000CF680108348C0108D5680108328C010865
:10454000BF7301089F7301082DE9F043044680689A
:10455000884689B0D0F8201215461F46002960D140
:104560004FF40A7210F0F7F8E0680CF0FBFCA0685A
:1045700000F503704FF4DE794FF4BE760FF0B1FD15
:10458000A068304410F0AAF8A06800220121831925
:104590001036484409F1140910F077F8B6F5DE7FBB
:1045A000EED1A369002602211E6066F38205A06891
:1045B00000F5BC700BF0D3FBA368502220465A874D
:1045C0001822A3681A8721680BF015FDA368164A04
:1045D0004146C3F87451606803681D682346A847C4
:1045E0000546D0B9A36801221A75D4E90A01002250
:1045F000002304950094CDE906230E234FF40062B6
:104600000393109BCDE90173084B08F0D1FAA3681E
:10461000C3F82002616A08F0F7F9284609B0BDE83E
:10462000F0836FF07705F8E7F1FD000861430008BB
:1046300010B5044613460A460146064801F0BEFB83
:1046400023691B7923B12046BDE810400BF023BD40
:1046500010BD00BFAF00010838B50B46154648B97C
:104660001449154A521AB3EB920F05D251F8235050
:10467000284638BD84680CB90025F9E70F4A9442F2
:104680000AD30F4A944207D2184622682946904717
:104690002B68002BECD1EFE70A4A944202D30A4A76
:1046A000944205D3246814225343E518E358F0E7F5
:1046B0000133F8E7DC5101080C520108FC520108F3
:1046C000FC5201080C520108FC520108F7B51646CD
:1046D0000278002304462D2A019305D16FF01503BB
:1046E0000020336003B0F0BD0C4F10F011F9054607
:1046F0000A46C35101A9204609F0ECF9EB59222BD7
:1047000002D16FF02103EBE7002BE7D1019BA3421D
:10471000E4D01B78002BE5D0E0E700BF0C000000E0
:104720008368D3F874319B0603D5024940690BF0C6
:10473000CDBE70472C53010801490BF0C7BE00BF26
:10474000C36C01080A1E0DDC0ED042238168D1F82B
:104750007411890608D5002A04494069B8BF52423D
:104760000BF0B4BE4123F1E7704700BFBB730108F3
:104770000A1E0DDC0ED044238168D1F8741189061D
:1047800008D5002A04494069B8BF52420BF09EBECA
:104790004323F1E7704700BFBB7301082DE9F047E1
:1047A00085680446DFF8649005F15600FCF7BAFB13
:1047B000002386B295F83C709846A268558FED1B91
:1047C000B54209DB002E1FDD5633606910491A44DB
:1047D000BDE8F0470BF07ABE1D44563349462A44E3
:1047E00092F856A082F85680A26860691A440BF0CD
:1047F0006DFEA3682B4483F856A0A3685B8FDB1B78
:104800000027F61A2B46D8E7BDE8F0876F6B010842
:10481000AC6D010808290A4617D8836893F83E1042
:10482000914212D083F83E20082A8368D3F874316D
:1048300005D0990609D5054940690BF047BE9B068E
:1048400003D5034940690BF041BE7047C2730108AC
:104850003153010838B50D4609780446FFF7DAFFF1
:104860006A78072A11D8A36893F83F1091420CD0B8
:1048700083F83F20A368D3F874319B0605D560699F
:104880000249BDE838400BF021BE38BDCB730108AA
:10489000F8B583680446B3F85020002A55D0B3F821
:1048A0005210002951D0553103F156050B441846DA
:1048B000A84206D3014611F80169202E3CD0A84237
:1048C0003CD286B2471C9DB2AB1B9BB2591CD21A7C
:1048D000014438460FF025FFA268711B2046B2F84C
:1048E000503013FA81F309B2A2F85030A368B3F83C
:1048F00050201344002283F856200BF051FEA36889
:10490000D3F874319A0603D5104960690BF0DEFDC7
:104910003B460F4A082120460BF060FF2046FFF778
:10492000FFFEA368D3F874319B060ED56069094970
:10493000BDE8F8400BF0CABD0846B9E7014611F8DA
:104940000169202EBDD00846B9E7F8BD36530108ED
:10495000AC6D01083A5301082DE9F04104460D46BB
:1049600017460AB1FFF7DCFEA368B3F85220D3F86C
:104970007411563213444A0721D51846DFF84C808B
:10498000FCF7D0FA0646A6B9A368B3F85020A3F8FE
:104990005220A0680BF0A7FD20B107B115B16069E6
:1049A000FFF7CAFE6942204609B2BDE8F0410BF0AC
:1049B000F7BD41466069013E0BF088FDE3E7044A1C
:1049C000082120460BF00AFFDEE700BF987D0108B2
:1049D000AC6D010813B5836804468DF80710D3F851
:1049E0007421D00725D5B3F85210B3F850208A426D
:1049F0001FD0481C9DF80720A3F852000B4483F8F1
:104A00005620A368D3F87411890710D5D3F87431F0
:104A1000606913F0040F0A4918BF2A220BF056FDF3
:104A200020460BF072FD10B16069FFF785FE02B001
:104A300010BD01220DF1070120460BF0DCFEF6E768
:104A4000BF73010810B504468368094A02210BF0C0
:104A5000C5FEA368D3F874319B0707D52046FFF73E
:104A60009DFE2046BDE810400BF075BD10BD00BF97
:104A7000AC6D010801490CF0A2B800BFC36C01087D
:104A80002DE9F04F0E46002189B0044617460D4629
:104A900003AA304601F10108FFF7DEFDB0B995B178
:104AA00027B13A46082120460BF098FE00211E4F00
:104AB000DFF87890DFF878A003AA304601F101080A
:104AC000FFF7CAFD60B909B0BDE8F08F006810B10A
:104AD000FCF728FA80B28542414638BF0546D7E741
:104AE00003688BB11A787AB1D0F804B04A4608212D
:104AF0002046CDE900533B460BF070FEBBF1000FA2
:104B000004D16069FFF7B6FF4146D5E7524620461B
:104B10003B4608210BF062FEAA1D5946204692B280
:104B20000CF05AF8F0E700BFE9730108D4730108EC
:104B3000CA680108F7B50F6805460E46A7B13846A2
:104B4000FCF7F0F984B2094B2846094A0821009382
:104B50003B460BF043FEE21C7168284692B203B05C
:104B6000BDE8F0400CF038B83C46ECE7E5730108CE
:104B7000DB71010810B507490446FCF7C1F938B1EB
:104B800005492046FCF7BCF9B0FA80F0400910BD99
:104B90000120FCE7DB730108DE73010810B58368B0
:104BA0000446D3F874319B0603D5064940690CF0DE
:104BB0008AF8A368502200205A871822A3681A870F
:104BC00010BD00BF3E53010808B5836902491A6849
:104BD0000BF0E7F9002008BDEC7301082DE9F34163
:104BE0000E4905460E4C0BF0DCF90E4E0022DFF8A4
:104BF0003880B44202F1010703D3002002B0BDE8BF
:104C0000F081636A92B2414628460093303454F8EA
:104C1000283C0BF0C6F93A46EBE700BFFC730108ED
:104C2000AC510108DC51010814740108024908B5AF
:104C30000BF0E1F9002008BDC46C010873B504460F
:104C400000250C4EA2680DF106030121E068D63262
:104C50000CF0E9F8BDF80600A36838B12A46D6334F
:104C60003146204601350BF09CF9EBE783F8D6007E
:104C700002B070BD2574010810B504460BF0FDF9B3
:104C80000349024620460BF08CF9002010BD00BFFE
:104C9000FE630108022907B50BD153680C49009344
:104CA0000C4B12680BF099F96FF0150003B05DF82A
:104CB00004FB8368084AD3F87431084913F0020FE3
:104CC000074B18BF1A460BF06CF90020EEE700BF47
:104CD00048740108337401082F74010851740108E5
:104CE000036B010810B583680446D3F874319A0643
:104CF00003D5074940690BF0E6FFA368D3F8743188
:104D00009B0603D5034960690BF0DDFF002010BD51
:104D1000455301084A5301080129F0B5044685B0FE
:104D20000AD053685B4900935B4B12680BF055F94E
:104D30006FF0150005B0F0BD8368D3F874319906A3
:104D400003D5564940690BF0BEFF6FF0F9012046CC
:104D5000FFF7F8FCFA2120460025FFF709FDA068BF
:104D600080222946D6308DF80B504FF47A760FF01A
:104D7000F2FC4B4960690BF0A6FF60690BF08BF900
:104D8000606801220DF10B0103681F6903ABB8478E
:104D9000039BEBB9013E4FF47A700FF0FDF8B6B209
:104DA000002EEDD1A368D3F874319B0603D53D499D
:104DB00060690BF088FFA368502220463A495A8761
:104DC0001822A3681A870BF0FAF86FF00700B1E712
:104DD0009DF80B20A3681B2A4FD093F8D6101B29EF
:104DE000CED1522A49D15A19002382F8D630A6686A
:104DF00096F8D7205B2A29D106F1D700022510F8B2
:104E0000011F2A4601353B29ADB222D17F2AC9D0E4
:104E1000D63216FA82F1002211F8010F10BBFA2ADD
:104E200086F8D600A16828BFFA22FA2B4A8728BF45
:104E3000FA23A2681387A368D3F874319A0603D5BE
:104E4000184960690BF03FFF002073E786F8D63001
:104E5000A8E703EB83033039802D01EB43018BB2CC
:104E6000CDD19FE7013502EB82023038ADB200EBC5
:104E70004200802D82B2CFD194E72B440135ADB2F0
:104E800083F8D620092D7FF67BAFA368002283F834
:104E9000D62087E74874010833740108505301088D
:104EA0009C74010854530108627401082DE9F04F05
:104EB000074689B01546894621B110460CF058F8CE
:104EC00000285AD1032454E05C463CE029460AF10C
:104ED000D6000FF0A2FC0646002853D0FCF722F8BB
:104EE000314682B2601C08F10108013230440FF0F3
:104EF00018FC2246594630460FF005FC4FF02003BF
:104F00003355BAF8543001331C44AAF854400024F5
:104F100001994B1C03AA48460193FFF79DFB0646E7
:104F2000E8B10022316828460CF0C4F90028EFD11E
:104F3000D6F800B0D7F808A0BBF1000FC4D058468F
:104F4000FBF7F0FF84B2BAF8543023447F2BBDDD69
:104F500001242B460C4A032138460BF03FFCB8F1E4
:104F6000000F06D0B8682A4600F15401D6300BF085
:104F7000C2F9204609B0BDE8F08F4FF000080224C6
:104F80004146C6E70224EAE75C7901082DE9F843C7
:104F9000054600AF0C46002948D0DFF8B890D9F894
:104FA00000305A0742D06E468AB0A3686A46D1E9FB
:104FB0000001DFF8A4C04FF00508C2E905C0C2E94E
:104FC000071342F8108F00234FF421514846FDF794
:104FD00017FCD9F80030B5465B0727D08AB0636963
:104FE000D4E903016A46DFF874C0C2E90713C2E9D5
:104FF00005C042F8108F002348464FF42151FDF7B9
:10500000FFFBD9F80030B54658070FD0E3690121FE
:10501000134A48460AF063FDD9F80030590705D015
:10502000A369104A012148460AF059FD012D0AD111
:10503000EFF3058307480268520704D00A4A103B81
:1050400029460AF04CFD2146284607F045F8BD46A2
:10505000BDE8F883E4030024AE790108DD79010896
:105060000C7A01081B7A0108497A010808B5034B3C
:105070001B689847BDE8084000F026B8740000247B
:1050800030BFFFF7FDBF00BF2DE9F0410B4E0546D5
:10509000DFF82C80324606EB0807CC1B0949204676
:1050A0000FF031FBA019083C424600210FF053FBE2
:1050B00007F10800C5F8A840BDE8F0810000000035
:1050C00008000000FC520108074A936893F90E108B
:1050D000002907DB5269934204D0044A536843F025
:1050E00080535360704700BF201B002400ED00E098
:1050F000F8B5374C06460D4623685B0703D03549A3
:1051000020460BF07AFF344B9B6ADF0451D52368AD
:10511000580703D031492E480BF06FFF17202E4B54
:105120009B6A190507D523685A0703D02C492848DC
:105130000BF063FF1820284FBB6A9B0519D5236825
:10514000580703D0274922480BF057FFBB6BBA6AB8
:1051500011040DD52268520704D0234A01211C48AE
:105160000AF0BDFC26B11C4A936A23F40043936203
:105170001920194B9B6A5B0507D523685F0703D08D
:105180001A4913480BF039FF1A20134B9A6AD605B7
:1051900011D52368590703D015490D480BF02DFF91
:1051A0001B200D4A936A43F47F43936200232B70C4
:1051B000F8BD1620B3E79B6A9A04F2D523685B0713
:1051C00003D00C4902480BF018FF1C20E9E700BF90
:1051D000E40300245C7A010800ED00E0727A010823
:1051E000837A0108967A0108AF7A0108C47A010827
:1051F000DF7A0108F77A010810B52D4C23685A07A9
:1052000003D02C4920460BF0F8FE2B4B9B6A9B01E8
:105210004BD52368580703D0284925480BF0EDFEED
:105220001E20254B9B6AD90107D523685A0703D056
:1052300023491F480BF0E1FE1F201F4B9B6A1B03F5
:1052400007D52368580703D01E4919480BF0D5FE2F
:105250002120194B9B6A590307D523685A0703D0AD
:10526000194913480BF0C9FE2220134B9B6A9B037C
:1052700007D52368590703D014490D480BF0BDFE2C
:1052800023200D4B9B6ADA0307D523685B0703D005
:105290000F4907480BF0B1FE2420074A936A6FEAD2
:1052A00003436FEA1343936210BD1D20B9E700BFAB
:1052B000E4030024267B010800ED00E03E7B0108AA
:1052C000517B01086B7B0108897B0108AE7B0108DB
:1052D000C87B01082DE9F047454D894680461746B1
:1052E0002B68590703D0434928460BF086FE424BF2
:1052F0009B6ADA0639D52B685B0703D03F493C48E7
:105300000BF07BFE11243C4B9B6A1E0707D52B68D4
:10531000580703D03A4936480BF06FFE1224DFF8E5
:10532000D8A0DAF82830990721D52B685A0703D07E
:1053300034492F480BF061FEDAF83460DAF828308F
:105340001B0651D52B685C0705D02F4A3346012137
:1053500027480AF0C4FBB9F1000F04D0264A936A2B
:1053600023F080039362132403E01024CBE76FF053
:105370001506214B9B6AD80707D52B68590703D020
:1053800022491B480BF039FE14241B4B9B6A9A06DA
:1053900007D52B685B0703D01D4915480BF02DFE80
:1053A0001524154B9A6AD50602D49A6A90070AD535
:1053B0005B68190507D54146304600F059FA10B12F
:1053C00080F3098802240C4B9A6A920603D55A6A24
:1053D00022F400525A629A6A204642F0FF029A6210
:1053E00000233B70BDE8F0876FF01506BBE700BFF8
:1053F000E4030024F37B010800ED00E0097C0108D0
:10540000837A01083C7C0108547C01086A7C01080D
:10541000F77A01082DE9F041744B8AB00446002563
:10542000D3F8048000AFC8F3080685F31188BFF3F2
:105430006F8F02F07F43B3F17F4F0AD102F00C036C
:10544000082B15D16A480368590702D069490BF047
:10545000D4FD00252C460023FB71F31E092B00F21E
:10546000A080DFE803F00A92958E9E9E9E9E9E98F5
:1054700012074CBF0C460125EDE75D4E33685B0714
:1054800003D05D4930460BF0B8FD0023FB71574B4C
:10549000DA6A900708D53368590703D0574954484A
:1054A0000BF0ABFD00233CE0DA6A002A04DA336833
:1054B0005A07F7D05249F2E7DB6A5B00F2D533684E
:1054C000580703D04F494A480BF097FD474BA16955
:1054D0005A6942F480725A61BFF34F8FBFF36F8FE6
:1054E0005A6931F8021C22F480725A61BFF34F8F5F
:1054F000BFF36F8F4DF60272914208D09A6AD2B212
:1055000092B3FA1D01212046FFF7E4FE3BE0336829
:10551000590705D023683C4A012135480AF0DFFAD3
:105520002368FA79E2B907F1080604F1200C206833
:10553000083454F8041C3246644503C21646F6D1BA
:105540007A6A002D4DD0C2F3080121B96FEA5222C8
:105550006FEA42227A6207F108011846FFF716FD4A
:105560002837BD46BDE8F0819A6A12F47F4F04D017
:10557000F91D0120FFF7BCFD05E09B6AB3F5803FF4
:1055800090D3FFF739FE0346CBE7FA1D0021BAE7B7
:10559000F91D0020EEE7164803685A0782D01B4920
:1055A0007EE7134803685B073FF47CAF18F4F87F8D
:1055B000174AE8468AB0174B18BF13466A46164981
:1055C000103EC2E905134FF40073D6611384134BE8
:1055D00042F8103F00234FF41151FDF711F9C54671
:1055E00060E722F4FF7222F00102B3E700ED00E071
:1055F000E4030024B77C0108E27C0108F97C01087F
:105600001A7D0108287D0108477D0108637D010896
:105610009E7C0108897C0108877D01080400000147
:10562000044B5A6942F010025A615A6922F008028A
:105630005A61704700ED00E0EFF30880EFF3098155
:1056400001B57246FFF7E6FE01BD00BF102080F3F2
:1056500011880B484FF0AA014FF404620EF0D7FCFA
:1056600007484FF40461401880F30988EFF3148071
:105670000221084380F31488BFF36F8F00F0BAF85B
:10568000802B0024BFF34F8F0549064BCA6802F4F4
:10569000E0621343CB60BFF34F8F00BFFDE700BF55
:1056A00000ED00E00400FA05084B9B6883420BD133
:1056B000EFF3058343B1064B5A6842F080525A60BB
:1056C0005A6A22F400425A620EF03ABE201B0024AD
:1056D00000ED00E00A4A6FF00A019368C3F8B010C9
:1056E0000849C3F8AC004B6843F080534B6000237B
:1056F00083F31188BFF36F8F9368D3F8B0007047BE
:10570000201B002400ED00E010B50446EFF31183E8
:10571000102383F31288BFF36F8F0C4B4FF000629E
:10572000586998600A4B5A600A4BD0F8A8201A6052
:105730000022D0F8AC30C0F8AC2083F31188BFF35E
:105740006F8F00F0B7F9204610BD00BF201B00246A
:1057500000ED00E0441600240B498A684FF0300049
:105760001044EFF3098C80E8F01F74467046FFF791
:10577000CBFFA64604498A6802F1300090E8F01F8A
:105780008CF3098870470000201B00241EF0040FD2
:105790000CBFEFF30880EFF30980816911F8021C58
:1057A0000229FFD001B50BF024FC01BD00B2002896
:1057B00007DB0123410900F01F00024A834042F841
:1057C0002130704700E100E000B2013100284FEACB
:1057D0000111C9B206DB00F1604000F5614080F8BC
:1057E0000013704700F00F00014B1954704700BFC1
:1057F00014ED00E0104A08B522F07F020F4B9A60CA
:10580000BFF34F8FBFF36F8FD3F8882022F470025D
:10581000C3F88820EFF3148323F0040383F3148880
:10582000BFF36F8F06F058FD07F0C8FD00F062F877
:105830000BF0FFFB06F0A2FD0000000800ED00E009
:1058400042F8203C203A009B08495360019B21F01C
:1058500001019360029B9161D3604FF08073D3612B
:1058600000230265C0F8AC30704700BF012000087B
:105870000A4A0346906878B113F1160FD0F89800E1
:1058800005D0A0F140029A4205D8834203D281425A
:1058900028BF002070470020704700BF201B002455
:1058A00015460D4A0E4608B50C4B9060D0F8A8205E
:1058B0001A6000F0FFF82C4686F309884FF00000CC
:1058C000074B984720464FF000014FF000024FF081
:1058D0000003044C204700BF201B00244416002472
:1058E0000B10010801200008014B10221A617047BB
:1058F00000ED00E0002304481021C2180133A32B5F
:1059000082F80013F9D1704700E100E008B5EFF329
:105910000583064A103B02EBC30152F83300496885
:105920008847BDE80840FFF7CFBB00BFDC4B01084C
:10593000154A70B5536913F4803323D1C2F884300B
:10594000BFF34F8FD2F8803043F6E074C3F3C90041
:10595000C3F34E335B0103EA0406014646EA817550
:105960000139C2F86052F9D2203B13F1200FF2D175
:10597000BFF34F8F536943F480335361BFF34F8FAD
:10598000BFF36F8F70BD00BF00ED00E0134A00232E
:1059900070B5C2F88430BFF34F8F536923F480335E
:1059A0005361BFF34F8FD2F8803043F6E074C3F3F6
:1059B000C900C3F34E335B0103EA0406014646EA1D
:1059C00081750139C2F87452F9D2203B13F1200FCE
:1059D000F2D1BFF34F8FBFF36F8F70BD00ED00E0CA
:1059E000002910DD00F01F030B44BFF34F8F074960
:1059F0000344C1F8680220301A1A002AF9DCBFF308
:105A00004F8FBFF36F8F0020704700BF00ED00E0A5
:105A1000002910DD00F01F030B44BFF34F8F07492F
:105A20000344C1F85C0220301A1A002AF9DCBFF3E3
:105A30004F8FBFF36F8F0020704700BF00ED00E075
:105A40000B4B5A6912F4003211D1BFF34F8FBFF3E1
:105A50006F8FC3F85022BFF34F8FBFF36F8F5A6918
:105A600042F400325A61BFF34F8FBFF36F8F70471C
:105A700000ED00E0BFF34F8FBFF36F8F064B5A6905
:105A800022F400325A610022C3F85022BFF34F8F34
:105A9000BFF36F8F704700BF00ED00E0024B0121A4
:105AA000024A034800F092B80000052400000024D8
:105AB0005C580108D0F898204021054B403A184620
:105AC0001A60044AC3E90112012100F089B800BF3D
:105AD0004816002400000B1508B503461148D0F8FD
:105AE0009020C2F30722013A93420AD90E48026875
:105AF000520703D00D4A012109F0F1FF6FF01500A4
:105B000008BDC0F898300A6822F01F021A4342F01C
:105B10001002C0F89C208A6842F00102C0F8A02060
:105B20001846EDE700ED00E0E00300249E7D01084B
:105B3000F0B50E4685B01F4604460025B54210DA82
:105B4000606828B3AFB1431E18420DD012480368F5
:105B50005B0704D0114A2B46012109F0C0FF6FF00A
:105B60001502104605B0F0BD1F28EFD921680B4281
:105B7000ECD1236801A901930BF05CFAA3680343FD
:105B8000D0B20393FFF7A8FF10F1160FE7D0421C25
:105B900001350C34D2E700BFE0030024C47D0108C6
:105BA000044B0522C3F89420BFF34F8FBFF36F8FD0
:105BB000704700BF00ED00E0BFF35F8F024B002293
:105BC000C3F89420704700BF00ED00E010B5034C0F
:105BD00001232278FFF7ACFF207010BD851B002445
:105BE0000B4A08B500231278FFF7A2FF10F1160F39
:105BF00007D0084A0021D2F89030C3F30723984217
:105C000000DB08BDC2F898000130C2F8A010F2E72E
:105C1000851B002400ED00E0584859492DE9F04368
:105C2000D0F8903085B00D68C3F307239D4200F291
:105C3000A180FFF7C1FF49680022954201F10C01E4
:105C40001AD1504C6846504F2570FDF791F8002549
:105C50000646DFF83881DFF83891AE421FD123784D
:105C600000204649D1F89020C2F3072293427BDB03
:105C70000020FFF795FF4CE0C0F8982051F80C3C4D
:105C800023F01F031343013243F01003C0F89C308C
:105C900051F8043C43F00103C0F8A030CDE7009870
:105CA0004FEA051C00EB0511CB683B40B3F5000F34
:105CB00044D00AD8B3F5001F2ED0B3F5800F34D0EE
:105CC000B3F5801F10D00135C7E7B3F1807F3ED018
:105CD000B3F1007FF7D150F80C3088680BF0AAF9C7
:105CE0004A6840F4802009E050F80C3088680BF0D6
:105CF000A1F940F088504A6840F43020039001A98F
:105D00002078CDE90123FFF7E7FE002828DA6FF0BD
:105D1000150005B0BDE8F08350F80C3088680BF032
