:020000040800F2
:100000000039002409540008294E0008F55300085F
:10001000F5530008F5530008F553000800000000F0
:10002000000000000000000000000000495500082A
:10003000F55300080000000015550008E59200087F
:10004000C9560008C9560008C9560008C956000814
:10005000C9560008C9560008C9560008C956000804
:10006000C9560008C9560008C9560008C9560008F4
:10007000C9560008C9560008C9560008C9560008E4
:0402CC00FFFFFFFF32
:1002D00081F0004102E000BF83F0004330B54FEAF7
:1002E00041044FEA430594EA050F08BF90EA020F64
:1002F0001FBF54EA000C55EA020C7FEA645C7FEAF7
:10030000655C00F0E2804FEA5454D4EB5555B8BF19
:100310006D420CDD2C4480EA020281EA030382EA8A
:10032000000083EA010180EA020281EA0303362D1C
:1003300088BF30BD11F0004F4FEA01314FF4801CEF
:100340004CEA113102D0404261EB410113F0004F01
:100350004FEA03334CEA133302D0524263EB4303B8
:1003600094EA050F00F0A780A4F10104D5F1200E56
:100370000DDB02FA0EFC22FA05F2801841F10001B1
:1003800003FA0EF2801843FA05F359410EE0A5F185
:1003900020050EF1200E012A03FA0EFC28BF4CF0B6
:1003A000020C43FA05F3C01851EBE37101F000456C
:1003B00007D54FF0000EDCF1000C7EEB00006EEB79
:1003C0000101B1F5801F1BD3B1F5001F0CD3490803
:1003D0005FEA30004FEA3C0C04F101044FEA44525A
:1003E00012F5800F80F09A80BCF1004F08BF5FEAE1
:1003F000500C50F1000041EB045141EA050130BDC1
:100400005FEA4C0C404141EB0101013C28BFB1F5D2
:10041000801FE9D291F0000F04BF01460020B1FA1D
:1004200081F308BF2033A3F10B03B3F120020CDAF0
:100430000C3208DD02F1140CC2F10C0201FA0CF0CE
:1004400021FA02F10CE002F11402D8BFC2F1200C33
:1004500001FA02F120FA0CFCDCBF41EA0C019040E9
:10046000E41AA2BF01EB0451294330BD6FEA040432
:100470001F3C1CDA0C340EDC04F11404C4F120021D
:1004800020FA04F001FA02F340EA030021FA04F32F
:1004900045EA030130BDC4F10C04C4F1200220FA86
:1004A00002F001FA04F340EA0300294630BD21FAC4
:1004B00004F0294630BD94F0000F83F4801306BF8A
:1004C00081F480110134013D4EE77FEA645C18BF7E
:1004D0007FEA655C29D094EA050F08BF90EA020F15
:1004E00005D054EA000C04BF1946104630BD91EA0D
:1004F000030F1EBF0021002030BD5FEA545C05D110
:100500004000494128BF41F0004130BD14F580044E
:100510003CBF01F5801130BD01F0004545F0FE41C2
:1005200041F470014FF0000030BD7FEA645C1ABFF7
:10053000194610467FEA655C1CBF0B46024650EA2E
:10054000013406BF52EA033591EA030F41F400215A
:1005500030BD00BF90F0000F04BF0021704730B5E0
:100560004FF4806404F132044FF000054FF00001B5
:1005700050E700BF90F0000F04BF0021704730B576
:100580004FF4806404F1320410F0004548BF40424B
:100590004FF000013EE700BF42004FEAE2014FEAA0
:1005A00031014FEA02701FBF12F07F4393F07F4F7B
:1005B00081F06051704732F07F4208BF704793F07E
:1005C0007F4F04BF41F40021704730B54FF4607491
:1005D00001F0004521F000411CE700BF50EA010294
:1005E00008BF704730B54FF000050AE050EA01023D
:1005F00008BF704730B511F0004502D5404261EBAD
:1006000041014FF4806404F132045FEA915C3FF4ED
:10061000D8AE4FF003025FEADC0C18BF03325FEA8A
:10062000DC0C18BF033202EBDC02C2F1200300FA3B
:1006300003FC20FA02F001FA03FE40EA0E0021FA60
:1006400002F11444BDE600BF4FF0FF3C06E000BFDE
:100650004FF0010C02E000BF4FF0010C4DF804CD4B
:100660004FEA410C7FEA6C5C4FEA430C18BF7FEA0B
:100670006C5C1BD001B050EA410C0CBF52EA430C39
:1006800091EA030F02BF90EA020F0020704710F1B9
:10069000000F91EA030F58BF994208BF90422CBF48
:1006A000D8176FEAE37040F0010070474FEA410C41
:1006B0007FEA6C5C02D150EA013C07D14FEA430C5F
:1006C0007FEA6C5CD6D152EA033CD3D05DF8040BD0
:1006D000704700BF8446104662468C461946634602
:1006E00000E000BF01B5FFF7B7FF002848BF10F1D9
:1006F000000F01BD4DF808EDFFF7F4FF0CBF01201E
:1007000000205DF808FB00BF4DF808EDFFF7EAFF99
:1007100034BF012000205DF808FB00BF4DF808ED54
:10072000FFF7E0FF94BF012000205DF808FB00BF49
:100730004DF808EDFFF7CEFF94BF012000205DF8D3
:1007400008FB00BF4DF808EDFFF7C4FF34BF0120E0
:1007500000205DF808FB00BF4FEA4102B2F1E04320
:1007600024BFB3F5001CDCF1FE5C0DD901F0004C98
:100770004FEAC0024CEA5070B2F1004F40EB8300E8
:1007800008BF20F00100704711F0804F21D113F114
:100790003872BCBF01F00040704741F480114FEA4D
:1007A0005252C2F11802C2F1200C10FA0CF320FAD6
:1007B00002F018BF40F001004FEAC1234FEAD323F3
:1007C00003FA0CFC40EA0C0023FA02F34FEA43035D
:1007D000CCE77FEA625307D150EA01331EBF4FF0E6
:1007E000FE4040F44000704701F0004040F0FE4001
:1007F00040F40000704700BF80F0004002E000BFFE
:1008000081F0004142001FBF5FEA410392EA030FFB
:100810007FEA226C7FEA236C6AD04FEA1262D2EB45
:100820001363C1BFD218414048404140B8BF5B424A
:10083000192B88BF704710F0004F40F4000020F0E3
:100840007F4018BF404211F0004F41F4000121F0F9
:100850007F4118BF494292EA030F3FD0A2F1010243
:1008600041FA03FC10EB0C00C3F1200301FA03F181
:1008700000F0004302D5494260EB4000B0F5000FA4
:1008800013D3B0F1807F06D340084FEA310102F163
:100890000102FE2A51D2B1F1004F40EBC25008BF15
:1008A00020F0010040EA03007047490040EB0000DF
:1008B000013A28BFB0F5000FEDD2B0FA80FCACF1E0
:1008C000080CB2EB0C0200FA0CF0AABF00EBC2500D
:1008D00052421843BCBFD0401843704792F0000FFB
:1008E00081F4000106BF80F400000132013BB5E74E
:1008F0004FEA41037FEA226C18BF7FEA236C21D0C4
:1009000092EA030F04D092F0000F08BF0846704728
:1009100090EA010F1CBF0020704712F07F4F04D1F6
:10092000400028BF40F00040704712F100723CBF09
:1009300000F50000704700F0004343F0FE4040F433
:10094000000070477FEA226216BF08467FEA2363F1
:100950000146420206BF5FEA412390EA010F40F4DC
:10096000800070474FF0000304E000BF10F0004328
:1009700048BF40425FEA000C08BF704743F096430F
:1009800001464FF000001CE050EA010208BF70472A
:100990004FF000030AE000BF50EA010208BF7047B1
:1009A00011F0004302D5404261EB41015FEA010CC6
:1009B00002BF84460146002043F0B64308BFA3F1BE
:1009C0008053A3F50003BCFA8CF2083AA3EBC253A0
:1009D00010DB01FA02FC634400FA02FCC2F12002BF
:1009E000BCF1004F20FA02F243EB020008BF20F0F6
:1009F0000100704702F1200201FA02FCC2F120025C
:100A000050EA4C0021FA02F243EB020008BF20EA50
:100A1000DC7070474FF0FF0C1CEAD0521EBF1CEA7E
:100A2000D15392EA0C0F93EA0C0F6FD01A4480EA6C
:100A3000010C400218BF5FEA41211ED04FF0006355
:100A400043EA501043EA5111A0FB01310CF0004081
:100A5000B1F5000F3EBF490041EAD3715B0040EAA7
:100A6000010062F17F02FD2A1DD8B3F1004F40EB77
:100A7000C25008BF20F00100704790F0000F0CF04A
:100A8000004C08BF49024CEA502040EA51207F3A0E
:100A9000C2BFD2F1FF0340EAC250704740F40000E9
:100AA0004FF00003013A5DDC12F1190FDCBF00F0DA
:100AB00000407047C2F10002410021FA02F1C2F188
:100AC000200200FA02FC5FEA310040F1000053EA24
:100AD0004C0308BF20EADC70704792F0000F00F072
:100AE000004C02BF400010F4000F013AF9D040EA78
:100AF0000C0093F0000F01F0004C02BF490011F40C
:100B0000000F013BF9D041EA0C018FE70CEAD15309
:100B100092EA0C0F18BF93EA0C0F0AD030F0004C89
:100B200018BF31F0004CD8D180EA010000F000403D
:100B3000704790F0000F17BF90F0004F084691F0FB
:100B4000000F91F0004F14D092EA0C0F01D1420235
:100B50000FD193EA0C0F03D14B0218BF084608D1FE
:100B600080EA010000F0004040F0FE4040F4000048
:100B7000704740F0FE4040F4400070474FF0FF0CDB
:100B80001CEAD0521EBF1CEAD15392EA0C0F93EA22
:100B90000C0F69D0A2EB030280EA010C49024FEA74
:100BA000402037D04FF0805343EA111143EA10132D
:100BB0000CF000408B4238BF5B0042F17D024FF4E5
:100BC000000C8B4224BF5B1A40EA0C00B3EB510FC0
:100BD00024BFA3EB510340EA5C00B3EB910F24BFA9
:100BE000A3EB910340EA9C00B3EBD10F24BFA3EB2E
:100BF000D10340EADC001B0118BF5FEA1C1CE0D1F6
:100C0000FD2A3FF650AF8B4240EBC25008BF20F0A8
:100C1000010070470CF0004C4CEA50207F32C2BFFC
:100C2000D2F1FF0340EAC250704740F400004FF099
:100C30000003013A37E792F0000F00F0004C02BFCA
:100C4000400010F4000F013AF9D040EA0C0093F094
:100C5000000F01F0004C02BF490011F4000F013BEE
:100C6000F9D041EA0C0195E70CEAD15392EA0C0F56
:100C700008D142027FF47DAF93EA0C0F7FF470AF8E
:100C8000084676E793EA0C0F04D14B023FF44CAFD1
:100C900008466EE730F0004C18BF31F0004CCAD166
:100CA00030F000427FF45CAF31F000437FF43CAFA2
:100CB0005FE700BF4FF0FF3C06E000BF4FF0010CC4
:100CC00002E000BF4FF0010C4DF804CD4FEA4002A6
:100CD0004FEA41037FEA226C18BF7FEA236C11D0F0
:100CE00001B052EA530C18BF90EA010F58BFB2EBA3
:100CF000030088BFC81738BF6FEAE17018BF40F023
:100D0000010070477FEA226C02D15FEA402C05D1D6
:100D10007FEA236CE4D15FEA412CE1D05DF8040B5B
:100D2000704700BF844608466146FFE70FB5FFF7EE
:100D3000C9FF002848BF10F1000F0FBD4DF808EDA6
:100D4000FFF7F4FF0CBF012000205DF808FB00BF97
:100D50004DF808EDFFF7EAFF34BF012000205DF8F1
:100D600008FB00BF4DF808EDFFF7E0FF94BF01203E
:100D700000205DF808FB00BF4DF808EDFFF7D2FF3B
:100D800094BF012000205DF808FB00BF4DF808ED7E
:100D9000FFF7C8FF34BF012000205DF808FB00BF4B
:100DA0004FEA4002B2F1FE4F0FD34FF09E03B3EB78
:100DB00012620DD94FEA002343F0004310F0004FB8
:100DC00023FA02F018BF404270474FF0000070470E
:100DD00012F1610F01D1420205D110F0004008BFAD
:100DE0006FF0004070474FF00000704742000ED295
:100DF000B2F1FE4F0BD34FF09E03B3EB126209D456
:100E00004FEA002343F0004323FA02F070474FF00B
:100E10000000704712F1610F01D1420202D14FF080
:100E2000FF3070474FF00000704700BF7BB972B9C8
:100E30000029BEBF00204FF0004106E008BF002897
:100E40001CBF6FF000414FF0FF3000F057B8ADF11C
:100E5000080C6DE904CE002909DB002B1ADB00F039
:100E600069F8DDF804E0DDE9022304B07047404290
:100E700061EB4101002B1BDB00F05CF8DDF804E0C6
:100E8000DDE9022304B0404261EB4101524263EBD1
:100E900043037047524263EB430300F04BF8DDF825
:100EA00004E0DDE9022304B0404261EB41017047F8
:100EB000524263EB430300F03DF8DDF804E0DDE966
:100EC000022304B0524263EB4303704753B94AB95B
:100ED000002908BF00281CBF4FF0FF314FF0FF3042
:100EE00000F00CB8ADF1080C6DE904CE00F022F86A
:100EF000DDF804E0DDE9022304B07047704700BF6D
:100F000010F8012B11F8013B012A28BF9A42F7D0B3
:100F1000D01A7047034611F8012B03F8012B002A61
:100F2000F9D17047034613F8012B002AFBD1181A98
:100F3000013870472DE9F04786468C460846089EE2
:100F4000154674461946002B40F0C2808542B2FA1D
:100F500082F245D94AB1C2F1200300FA02FC2EFA0E
:100F600003F3954043EA0C0C94404FEA154EA8B2A7
:100F7000BCFBFEF8230C0EFB18CC08FB00F943EA7F
:100F80000C43994528D9EB1808F1FF3704D299454D
:100F900002D9A8F102072B44A3EB0903A4B2B3FBC7
:100FA000FEFC0EFB1C330CFB00F044EA0344A042A1
:100FB00014D92C190CF1FF3304D2A04202D9ACF1A0
:100FC00002032C44241A43EA07401EB1D4400023F4
:100FD00034607360BDE8F0874746DDE76346F1E7BC
:100FE00092BB431B01214FEA154EAFB2B3FBFEFC8F
:100FF000200C0EFB1C330CFB07F840EA034398451A
:1010000062D9EB180CF1FF3004D2984502D9ACF14B
:1010100002002B44A3EB0803A4B2B3FBFEFC0EFBBF
:101020001C330CFB07F744EA0344A7424ED92C19A2
:101030000CF1FF3304D2A74202D9ACF102032C44D5
:10104000E41B43EA0040C0E7C2F1200320FA03F1A9
:10105000954090402EFA03F303434FEA154EAFB28A
:10106000B1FBFEFC0EFB1C10190C0CFB07F841EA4F
:101070000041884504FA02F422D969180CF1FF30C6
:1010800004D2884502D9ACF102002944A1EB080141
:101090009BB2B1FBFEFC0EFB1C110CFB07F743EAF5
:1010A00001439F420ED9EB180CF1FF3104D29F424D
:1010B00002D9ACF102012B44DB1B41EA004192E76B
:1010C0006046E3E76146F7E76046A3E76346B7E7B4
:1010D000834206D916B9002108467BE7C6E900E03D
:1010E000F9E7B3FA83F78FB9834201D3724508D881
:1010F000BEEB020460EB030301209C461EB90021F5
:1011000068E73846FAE7C6E9004CF8E7C7F1200C73
:10111000BB4022FA0CF41C432EFA0CF120FA0CF31B
:10112000B84001434FEA14490EFA07F5B3FBF9F84A
:101130001FFA84FE09FB18300B0C08FB0EFA43EA79
:1011400000439A4502FA07F240D9E31808F1FF304C
:1011500004D29A4502D9A8F102002344A3EB0A0362
:1011600089B2B3FBF9F809FB183308FB0EFE41EA1C
:1011700003418E452CD9611808F1FF3304D28E4506
:1011800002D9A8F10203214443EA0040A0FB0298DF
:10119000A1EB0E014145CE46434602D306D14D4553
:1011A00004D2B9EB020E68EB04030138002EA6D07E
:1011B000B5EB0E0261EB030101FA0CFC22FA07F316
:1011C0004CEA0303F940C6E9003198E74046C5E719
:1011D0004346D9E7000000002DE9F04F054685B0F1
:1011E0004FF00108464B1B7863B14FF4FA620023BD
:1011F00003A944480AF01AFF041E13DA424928469C
:101200000EF0D7FA414B18688368032201211B694D
:101210009847021E63DB3E49284605B0BDE8F04F03
:101220000EF0C7BADDF80CA00026DFF8E8900AF14E
:10123000020BD9F8004020460CF0E6FC3649FFF7D7
:10124000E9FBFFF7ADFD354907B22046FFF7DAFAB3
:101250000446FFF7A1F902460B46CDE9002326A379
:10126000D3E90023FFF764FA48B123A3D3E90023AD
:10127000DDE90001FFF730F8FFF76EFA04462AF8BF
:10128000267040F24E432BF8267001369E42D2D192
:101290001E4E41F2381203993068C9F80040836845
:1012A000DB689847041E05DA22461D4928460EF0E1
:1012B00080FAA7E7B8F1000F0AD0306883680022EF
:1012C00001211B699847041E02DA22461549EDE701
:1012D0000A2000214FF000080BF04CFD82E70321AB
:1012E00011480DF020FC2146104805B0BDE8F04F34
:1012F0000DF019BCAFF30080182D4454FB211940A8
:101300001E1B002424040024F65B0108081100249D
:101310004D5C0108F010002400FEFF464A63803D4A
:10132000135C01082D5C0108625C01088A5C0108FD
:101330002DE9F047044688B08846174612F066FC4F
:101340000A220023FFF7C2FDB8F1010F06460D4641
:1013500007D102460B46204627490EF02AFA002004
:1013600011E07F6825483946FFF7CAFD70B139465C
:101370002348FFF7C5FD48B120463A4621490EF003
:1013800034FA6FF0040008B0BDE8F0873046294613
:1013900017A3D3E90023FFF749FD06460D46104683
:1013A0001946194A0023FFF741FD80460F461046B3
:1013B00019464EF660220023FFF738FD8246894623
:1013C000104619464FF47A720023FFF72FFDCDE93E
:1013D00002A9CDE90623CDE9040132462B460B498B
:1013E0002046CDE900870EF0E4F9B8E7AFF30080BE
:1013F000005C26050000000012620108236201085B
:10140000266201082F62010880EE3600476201085B
:1014100010B5074C237823B906490EF0CAF900200D
:1014200010BD05490EF0C5F900232370F7E700BF92
:101430001E1B0024825B0108945B010870B5114EED
:1014400088B0054634782CB10F490EF0B2F900206F
:1014500008B070BD0D490EF0ACF9012333700022C5
:1014600000230B4904940B48CDE9062307234FF4CE
:101470008062CDE90243CDE90054074B0BF070F9CF
:10148000E5E700BF1E1B0024A65B0108BC5B01084A
:10149000801B002480040024D911000830B50223E9
:1014A00085B004468DF800008DF80110CDF804D009
:1014B00002938DF80C300A4801A99DF80C3082681F
:1014C00043F002038DF80C30182395680122A847D9
:1014D000021E03DA214603480DF025FB05B030BD9E
:1014E00094430108CE5B010810B500F045F8194C93
:1014F0001948206012F068F920B91848BDE810407A
:101500000DF011BB0DF05BF9154B002241F23811C3
:101510004FF404701A704FF4FA63124AC2E90313CD
:101520004AF64443C2E900030F4B20689360836886
:1015300001211B689847002805DA0C480BF0E0FFF2
:101540000B480DF0F0FA42F2107000210BF012FC83
:101550000848D3E708110024A8430108AC5C01083F
:101560001E1B0024F410002424040024C25C010883
:10157000E15C0108015D01082DE9F3412748284E8F
:10158000284DC66004F052FDC3B22B7053B12648FB
:101590000268520714D0254A012102B0BDE8F0418B
:1015A0000DF0A5BE31466846CDE9003304F03CFCA1
:1015B000C4B22C703CB1224631461D480DF0B3FA3E
:1015C00002B0BDE8F08131461A4EDFF86C80771C1E
:1015D0001A480DF0A8FA1749684604F08DFCC0B20D
:1015E000287080B9737873B13378012B05D13946EF
:1015F00013480DF098FA0134EDE732693946404658
:101600000DF091FAF7E7684604F0EEFC2B7803B989
:101610002C70024804F0D4FDD2E700BF0000002483
:10162000925D01081F1B0024E8030024975D010858
:101630008E5E01080C110024C95E0108A95E010834
:10164000BE5E01082DE9F04F91B0840705460E46B5
:10165000009302F00403DDF868900293C2F3C20322
:10166000039203F10103059340F0BA81041D30B1E8
:10167000072909D86FF01B0011B0BDE8F08F01F009
:101680000706341DC6F10806009B4FF000084FF016
:10169000040A591E4FF0FF334746C3460193534691
:1016A000CDF810800DB1009A22600598002800F353
:1016B000E8809848009A824203D397488242C0F05B
:1016C000E080039AA4EB050E92074FEA9E0000F11A
:1016D00003810F2F00F2B180002D00F0058107F18A
:1016E00040020DEB020C019A0CF8200C0CF8102CA7
:1016F000049801300490E7E07A285DD84B280ED892
:10170000472859D829282DD8252852D054D8202800
:101710007AD02338D0F1000B4BEB000B74E04C383F
:101720002E2849D8DFE800F0704848484848484823
:10173000484848484B484848484848484859484B12
:101740004B595959704B6D487048184B184848828E
:101750007F4B48484B487F0000204FF0000B4FF074
:10176000040A38E02A380122C0B202FA00F010EA76
:101770000E0F49D110F0625C2FD110EA020B43D05A
:101780006046013C5444B4FBFAF40AFB04F4002D17
:1017900061D0A3EB050CA444B4453FF66BAF002821
:1017A00068D1042B47D159F8043B23600434042347
:1017B0002AE0019A013A01924FF0000B24E011F85F
:1017C000010C6C2834D111F8023C00206C2B8346AC
:1017D000C5D14FF0080A5346D3E709F1070907348A
:1017E00029F0070924F00704F9E802AB35B106989F
:1017F0002044B0423FF63EAFC4E900AB08344FF09E
:10180000000B4FF0080A534611F8010F002878D05A
:10181000BBF1000F7FF470AF2528F5D1019B4FF08D
:10182000010B013301934FF0040AECE7584694E7AB
:1018300000208346A5E7082B02D06FF015001BE7B8
:1018400009F1070929F00709F9E80223C4E900238F
:1018500008340823D8E768B9042B02D109F1040938
:10186000A4E7082BE9D109F1070929F0070909F1D3
:101870000809EDE7059A013A059259F8042B009200
:1018800010E7039A900720D5A4EB050E4FF0010C4A
:101890004FEA9E00BEF5007FCFD20F2FCDD8F5B115
:1018A00007F14002C0B20DEB020E019A0EF8200CB7
:1018B0000EF8102CBCF1000F3FF41AAF60F07F005F
:1018C00008F101080EF8200C0137C5F108020434B4
:1018D0004FF6DA7E069297E74FF0000CDAE7BCF19C
:1018E000000F01D00136EFE7029802360028EBD155
:1018F0000098CDE90631FFF715FB0644DDE9063116
:10190000E2E7631BB3F5806F97D23DB9A6F10804F7
:10191000E018B1E618410108208601089B08029AE8
:1019200028602B709DF81030C2B1EB7085F80280F2
:10193000B8F1000F05D008A80022C5F1010C9742AC
:101940000ED1C5F101030DF120094FF0000A0DF190
:10195000300B0193574512D1601B8DE66B70E5E7A4
:1019600010F8013B190608D504EB0C0E03F07F03B9
:10197000B6453FF67FAE04F8013B0132DFE7B8F130
:10198000000F03D099F90020002A17DB029BD3B186
:101990001AF80B2004F8012B0022019B9818204410
:1019A000B0423FF667AE99F80000009904F8010BC9
:1019B0002046039212F0AFFA039A14440AF1010A86
:1019C00009F10109C6E799F8002055F82230009383
:1019D000029B009845F82230FFF7A4FA421CDCE78E
:1019E0006FF00D0048E600BF2DE9F04F97B00446B8
:1019F000894600AF90F802A0D7F880B03B62CBF3E5
:101A0000C003FA62BB6141B9457800780AEB8000F7
:101A100020444D4517D8A0EB0409E378FB61BAF1E7
:101A2000000F02D01BF0010F16D1FB6953BBFB6AFC
:101A30001BB13A6A4946204698474D4628465C37CE
:101A4000BD46BDE8F08F461C09F101093046FFF79D
:101A500069FA01303044DCE72378626899007A62E1
:101A6000FA6A796104EB8301002A40F004814D4653
:101A70000E4601EB0A094FF000084E4550D101EB2C
:101A80000A0610E01BF0020FD1D023789A0004EB75
:101A900083017A6162687A62FA6A002A7BD14D46D4
:101AA00001EB0A0690461BF0050F0CBF0223012331
:101AB000FB62FB6906EB430A0BF00203BB6256456F
:101AC000BCD016F8021B16F8013C54F823909B4B2F
:101AD000994502D39A4B99453AD3BB69002B44D020
:101AE000786A0CF0F9FF00283FD09648036813F09D
:101AF000060F13D0E9468AB06A46934B53617B6A5E
:101B0000C2E906314FF400731384904B42F8103F42
:101B100000234FF4125100F051FDCD46023DCEE7B7
:101B200016F8013BF96254F82300FFF7FBF9D7F8E8
:101B300084300130F96A4BB1D7F8883098453EBF00
:101B4000D7F8843023F8180008F10108054494E719
:101B5000BB6923B1786A0CF0BFFF0028C5D11BF028
:101B6000010F05D1FB6AED1AA9E7BB6A002BA6D0CD
:101B70004846FFF7D7F9D7F8843053B1D7F8883003
:101B800098453FBF431CD7F8842022F8183008F14D
:101B90000108054493E7BAF1000F72D01BF0040668
:101BA00072D0D046002607F1480052463B61B96228
:101BB00012F0B1F9B96A3B6901EB0A02F969BA623C
:101BC000FA695200FA60BA6A02EB41023A610BF01C
:101BD0000202BA603A69B96A8A4257D11BF0020F11
:101BE00062780CBF4FEA580100217A621BF0010FA6
:101BF0003244D2B240F09F801BF0040F14BF404625
:101C00000020BB616270A0702046E1703A6A796979
:101C1000FB6A9847051EFFF611AFBB6941463A6A59
:101C200007F1480023707B6A84F802A06370FB69A7
:101C3000E370FB6A9847B0F10008C0F2B5807B6999
:101C4000A9EB0A013A6AC91AFB68C91AD7E90A035B
:101C500098470028C0F2AA80A8444FF0000B07F173
:101C6000380A08EB0005B34572D300213A6AFB6AD3
:101C700008469847E2E656464FF0000807F138005C
:101C800093E75646D04697E7B04695E7BA6A12F80A
:101C9000021B12F8015CBA6254F82500274A9042F0
:101CA00002D3274A90421ED3BA6932B1786A7B6068
:101CB0000CF012FF7B6800288CD1BA6802BB08F1D7
:101CC000280207F1300C08F1010008F102089444E1
:101CD00007F158025FFA88F852FA80F00CF8101CED
:101CE00000F8105C76E7BA693AB1786A7B600CF06C
:101CF000F3FE7B6800287FF46DAF1BF0010F09D065
:101D000006F1280207F13000711C161806F8205C55
:101D1000CEB25FE71BF0040F3FF45CAF08F128027E
:101D200007F1300008F1010102EB000808F8105C2F
:101D30005FFA81F84EE7002063E700BF1841010811
:101D40002086010898030024EC5E010804000001CD
:101D50001BF80A3054F8239087F83730D7F88430CE
:101D6000FBB133F81B803A6A012107F13700FB6AA7
:101D7000984700281ADB0544B8F1000F06D1484601
:101D8000FFF7D0F800F101081FFA88F83A6A4146D7
:101D90004846FB6A9847002808DB05440BF1010B15
:101DA00061E7D7F88480DEE7454647E6054645E625
:101DB000014B1860704700BF2400002480B5054621
:101DC0000E46174698460AF0F1FFDFF820900346CA
:101DD00012F098F90446424649F800303946304638
:101DE000A84754F8090003F03DFB00BF08000000BD
:101DF000044608B5EFF31183102383F31288BFF371
:101E00006F8F03F0A1FC03F013FD10F044F920469E
:101E100003F016FB02480CF086FE0EF005FDFCE711
:101E2000A05F0108054B00205A6822F002025A60A8
:101E30005A6822F001025A60704700BF0010005C2F
:101E400008B503F0DBFC03F051FC104B104A1A609C
:101E5000104BDA6822F0070242F00202DA609A6957
:101E600042F440429A619A699204FCD50A4B1A687E
:101E700041F20303B3EB124F06D1084AD2F80831FE
:101E800043F00103C2F8083108BD00BFF40200248A
:101E90000090D003004802580010005C0080005100
:101EA0002DE9F047044607464FF00109DFF850805E
:101EB00014B93846BDE8F08794FAA4F5B5FA85F56B
:101EC00009FA05F32E0108EB05156FEA030A24EA67
:101ED00003042B7B002BEBD058F806301B694BB961
:101EE00046440422284607EA0A077368196800F086
:101EF00025FBDDE7284698470028D9D1F0E700BF49
:101F00009049010830B5002289B00F490F4811F0FF
:101F10007FFE0022002300240D4D0E492846009428
:101F2000CDE906230E234FF44072CDE90334CDE909
:101F30000144094B0AF014FC084928460AF03CFB0E
:101F4000204609B030BD00BF611F0008F809002419
:101F500038050024C01F002481220008F85F010812
:101F600001480AF059B900BF680400242DE9F04780
:101F700080461E480F460DF00FF9064678B300253F
:101F80002846BDE8F087237B6BB12368DB680BB183
:101F90002046984723681B69CBB963680422204612
:101FA000196800F0CBFA013610344C45EBD3B8F188
:101FB000000FE5D0002DE2D02846FFF771FF05465F
:101FC000002FF7D0002164200AF0D4FEF2E720466B
:101FD00098470028E1D00AFA06F31D43E3E7044CD2
:101FE0000546DFF810904FF0010ADEE76013002489
:101FF00090490108A049010808B5034608462BB1DD
:10200000044A136000F07CFD002008BD6FF015004D
:10201000FBE700BF2800002410B5044C237813B957
:1020200003480AF0F9F80123237010BD201B002497
:102030006804002410B504460B480DF0ADF85CB1FF
:102040000A4BBFF35B8F53E8001F013943E80012CE
:10205000002AF8D1BFF35B8F054811F0E5FD054874
:10206000BDE810400AF0D8B8581300245C130024CF
:10207000F8090024680400240020064BBFF35B8F9E
:10208000014653E8000F43E80012002AF9D1BFF3DC
:102090005B8F70475813002470B5FFF7EDFF084CB5
:1020A0000546084EB44200D370BD63685B792BB11E
:1020B00023685B6813B12946204698471034F1E73E
:1020C00090490108A049010810B5044C0449204674
:1020D0000CF030FE034B1C6010BD00BF5403002405
:1020E000B84B01085013002408B5094A00234FF4E7
:1020F0007A7108481370084A1360084A1360FFF7A2
:102100007BFFFFF7E1FFBDE8084000F067B900BFC3
:10211000211B0024B3F10008581300245C13002491
:1021200001460022002301480CF025BE5403002480
:1021300001480CF0BBBE00BF54030024024B014613
:1021400018680CF007BF00BF5013002401480CF0C2
:102150003CBF00BF54030024324B2DE9F0411878F6
:1021600000285DD0FFF7E4FF044698B12E4BBFF383
:102170005B8F53E8001F013943E80012002AF8D1B1
:102180002A4DBFF35B8FDFF8A880454526D3204654
:10219000FFF7D4FF274B284C1B68002B12DD11F0F2
:1021A00035FD0A220023FEF791FED4E90032C01A61
:1021B00040F2E93361EB0201984271F1000101D371
:1021C000FFF76AFFD4E9003213F57A7342F1000297
:1021D000C4E90032BDE8F041FFF7B8BF6B685B7936
:1021E0003BB121784B0706D52B68214628461B6852
:1021F00098471035C9E726882046C1F3C20700F08A
:10220000BDFAC6F382160246002EEDD00028EBDBA5
:1022100001233946284600F0ABF9B042E9D3E3E7A1
:10222000BDE8F081201B00245C13002490490108C4
:10223000A049010858130024F009002470B50D4D81
:10224000297861B90C4C01200C4EFFF78FFEB44287
:1022500006D3FFF781FF0028FBD101232B7070BD4F
:1022600063685B791BB1236820469B6898471034EC
:10227000EDE700BF211B002490490108A049010897
:1022800000212DE9F0470846FFF770FE044658B3D9
:102290004FF4FA784FF000091C4B11F033FF1C4A41
:1022A0001B58136033B11B4B1B68092B02DD1A4806
:1022B00009F0B2FF0025194FDFF85CA044B12046B9
:1022C000FFF7EEFD044618B94FF0FF384FF0FF3925
:1022D000FFF742FF064628B9B5B942464B4650467D
:1022E00009F0D0FF3546E9E74FF0FF384FF0FF39EE
:1022F000D2E72B689B691BB10022284611469847FC
:102300001035BD42F5D3E8E7054DFAE708000000B7
:10231000541300245C13002468040024A04901081D
:102320009049010813B518480CF036FF174B1B787D
:1023300073B1EFF31184102383F31288BFF36F8F0F
:10234000FFF70AFF84F31188BFF36F8F02B010BD4F
:102350000F4B1B68002BF9D050B9002200230D4809
:10236000CDE9002342F2107200230AF0D7FFEDE717
:102370000928EBD1074811F057FC074802B0BDE827
:10238000104009F049BF00BF5C130024211B00244A
:1023900054130024F809002468040024064B10B5E7
:1023A00004461B6898472146A06004480CF05FFD76
:1023B000BDE81040FFF7B6BF2800002454030024F6
:1023C000044A054B9B1AB1EBD30F34BF52F83100CE
:1023D00000207047E8480108904901080B48002197
:1023E0000B4B1B1A043030B5DB080A4C994200D164
:1023F00030BD10F831200131256802F0070225F0C8
:1024000007052A4344F8042BF0E700BFE848010819
:102410009049010898030024F8B50B4F06460B4D70
:102420000024ED1BED08AC4203D14FF0FF342046F1
:10243000F8BD57F8340020B13146FEF761FD0028A1
:10244000F5D00134EFE700BFE848010890490108E2
:1024500000282DE9F047884615461F461DDADFF8AB
:1024600098904FF0000A254E5446A6EB090636090F
:10247000B24509F1100902D12046BDE8F08759F8AC
:102480000C0C3B462A46414600790AF1010AFFF747
:10249000DFFF844238BF0446EAE7194B194AD21AD3
:1024A000B5EBD20F25D203EBC5031C79BC4228BF84
:1024B0003C46C0B20722144E002100EB400056F803
:1024C0002530824023EA020304F0070282401343CE
:1024D000032223FA02F0033200F00700814238BFE2
:1024E00001461E2AF5D123F007030B4346F8253099
:1024F000C2E70024DDE700BF90490108A0490108B8
:10250000E84801089049010898030024F8B5094DEE
:102510000646094B0F460024ED1AED08AC4200D3E5
:10252000F8BD22B201343B4600213046A4B20CF083
:102530005BFEF3E790490108E848010838B50B4B0A
:102540000D4611464268C31A04461B11013313712C
:1025500043689971FFF7DAFF636801221D606368C1
:102560005A71BDE83840FFF757BD00BF90490108D8
:1025700070B14168097973B1002A17DBCBB20C49FD
:1025800003EB430351F82200D84000F007007047E6
:102590004FF0FF31EFE707490748401AB2EBD00F81
:1025A0003ABF01EBC2010879184670470420704712
:1025B00098030024E8480108904901082DE9F04FEC
:1025C0008FB0C1F34A280D46914604AF0C0DB86098
:1025D0007B60B8F1000F67D0002607F114034FF0BD
:1025E000040B4FF00A0AC7F80C8032467E62484658
:1025F000C7E90766019307F11C03CDF808B0CDF8D1
:1026000000A0F968FFF7F0F9B0F5006F034620D39A
:102610002A48036813F0060F17D06C468AB0D9F821
:10262000041004AB264D1A46C3E9055140F2FF7170
:10263000D9614FF400711984224B42F8103F4FF4D6
:1026400012513346FFF7BAFFA5462C37BD46BDE809
:10265000F08FC0F30A0804F117003B60184468F3D8
:10266000532520F007008008FFF75AFD044690B17B
:102670003B6800F11001144A4846F961C7E9083681
:1026800007F11403CDF808B0CDE900A307F11C034E
:10269000F968FFF7A9F968F353257B68B968204604
:1026A0002A460CF0CBFDD0E704F1170020F007001C
:1026B0008008FFF735FD0446EDE700BFC4030024A2
:1026C0000D6001080400000111F200082DE9F04F2F
:1026D00087B00446934698460391DDE91279DDE917
:1026E000105ADFB13B46524610210020CDF8009031
:1026F000CDF81490FEF7A6FFB0F5006F06460ED396
:102700001C48036813F0060F30D040F2FF731A4ADA
:10271000022107B0BDE8F04F0CF0E9BD3E4604F0E1
:10272000070405F117000BF0070BE400304444EAFE
:102730008B1420F0070044EA4624800844EA05543C
:10274000FFF7EEFC054640B13FB13B4652463146ED
:102750001030CDF80090FEF775FF434622460399EE
:10276000284607B0BDE8F04F0CF068BD07B0BDE8E3
:10277000F08F00BFC40300244C600108406820B102
:10278000034BC01A40F38F0070474FF0FF30704783
:10279000980300240EB403B503AB0146054853F873
:1027A000042B019303F0E8F902B05DF804EB03B0E9
:1027B000704700BF39F30008CA0605D48B064CBF2A
:1027C00002490349FFF7E6BF704700BFB86401083C
:1027D000846001082DE9F04F89B09B4604460D4600
:1027E000149B90469DF84CA00693159B179E05934D
:1027F000169B0493BAF1000F00F09D8006F48073DD
:1028000006F0020907930CF0EDFC024600283ED0CA
:1028100091492046FFF7BEFF0746B9F1000F08D0E7
:1028200016F0440F35D12A468C492046FFF7B2FFF7
:10283000074406F0010353B1894B2046894953F8F8
:102840002A20894B002A08BF1A46FFF7A3FF06F487
:102850008073002B49D006F00803002B63D1B8F138
:10286000000F66D0424681492046FFF793FF054698
:10287000069B3D44002B6DD1049B002B73D1F307C5
:1028800000F1E48031462046FFF796FFD8E0074686
:10289000C3E7774B18680028CAD0764B4FF47A7993
:1028A0004FF461614FF03C0C1B68B5FBF3F5B5FBD1
:1028B000F0F300FB135509FB05F5B3FBF1F2B5FB93
:1028C000F0FE01FB123100FB1E55B1FBFCF309FBCE
:1028D00005F50CFB1311B5FBF0F500912046664998
:1028E000CDE901E5FFF756FFA2E706F00803EBB1DB
:1028F000624B2046624953F82A20FFF74BFF0546FA
:10290000B8F1000F05D0424658492046FFF742FF74
:102910000544BBF1000FABD05A465A492046FFF799
:1029200039FF0544A4E74FF0000BE1E706F0080586
:10293000E6E745469CE7BBF1010F069B06D1002B5D
:1029400064D1049B002B7BD000250CE0002BF8D039
:102950004D485CE04D48069B22464D490CF08BF8F3
:10296000049B002B68D0DFF82C81DFF82C91049FAA
:102970004FF0000B31462046102F28BF1027FFF7DD
:102980001BFF5D4545DC059B4FF0010B494620468A
:102990001A78FFF7FFFE1BF0070F03D141462046D0
:1029A000FFF7F8FE5F453BD9059B4946204613F8E3
:1029B0000B20FFF7EFFE0BF1010BBBF1100FEAD17B
:1029C0004FF0000B35492046FFF7E4FE5A46059BC1
:1029D00020469A5CA2F120015F29314928BF2E22AE
:1029E000FFF7D8FE0BF1010BBBF1100F1DD01BF050
:1029F000070F03D141462046FFF7CCFE5F455A46FC
:102A0000E5D841462046FFF7C5FEEBE71F4855468F
:102A1000A1E7414620460BF1010BFFF7BBFEB0E7F3
:102A200020492046FFF7B6FEC5E7059B3B440593CA
:102A3000049BDB1B04939AD1BAF1000F7FF41FAF04
:102A4000204609B0BDE8F04F0CF069BC064A2046AC
:102A50000449FFF79FFE15E78C60010890600108AC
:102A6000CC4B0108A165010887600108B560010829
:102A7000681300246413002499600108E04B0108E6
:102A8000B9600108BF6001086FF3000839F300085E
:102A9000795B0008FE830108C4600108CA60010870
:102AA000B46B0108FC83010842F20F73114A8B4298
:102AB00073B5044628BF0B460568052168460AF031
:102AC0003FFD636806460B2228465B680A490CF006
:102AD00018FC63683246694628465B680CF011FCB6
:102AE00063681B2205495B6828460CF00AFC02B0AB
:102AF00070BD00BF517B0108E8600108CC6001088F
:102B000000210123064A904206D8064A01B9012352
:102B10001360054B18607047400801215B00F2E725
:102B200040420F006413002468130024014B03602B
:102B300001207047F44B01082DE9F8430646FEF7E3
:102B4000F1F90546EFF31188102383F31288BFF3E0
:102B50006F8F114B1C68D3F804909C4208BF00246F
:102B600034B988F31188BFF36F8F2046BDE8F8832E
:102B7000A7683846FEF7D6F9A84206D12A46394654
:102B8000304611F015FA0028EBD04C4501D02468EE
:102B9000E6E70024E5E700BF2C0000242DE9F04122
:102BA0000E461546FFF7C8FF044640B3C36833B36B
:102BB0001F6927B3062E07D0072E23D02A46314699
:102BC0003B46BDE8F0411847838A3BB92A46314667
:102BD000B84750B9A38A0133A38206E04FF6FF72CB
:102BE000934204D00133A3820020BDE8F08116484F
:102BF00003685B0703D0154A01210CF06FFB6FF0EF
:102C00001500F2E745B12A7832B1002231468282BE
:102C10002A461B699847E7E7A38A012B08D12A4671
:102C200007212046B8470028DFD1A38A013BD3E71C
:102C30000BB1013BD7E70448036813F0060FDED061
:102C4000034A0221D9E700BF9C0300242461010844
:102C50004661010810B5044608B1806850B91348B0
:102C600003685A0703D0124A01210CF037FB6FF0BA
:102C7000150010BDFFF760FF28B10C4803685B0723
:102C8000F5D00C4AF0E7A082EFF31181102383F313
:102C90001288BFF36F8F084B5A68C4E90032146082
:102CA0005C6081F31188BFF36F8FE2E79C0300241F
:102CB000646101087D6101082C00002410B5044600
:102CC00006F0DCFB0349024620460CF072FD0020B2
:102CD00010BD00BFBD61010837B51346002205468F
:102CE0000A21019201AA586801F0CEFB019C4CB95F
:102CF00020EAE0700A2180FB01010AF03BF820463F
:102D000003B030BD2246034928460CF06EFD019CFD
:102D1000F5E700BFE9610108034A044908B50CF072
:102D200048FD002008BD00BFD9620108E06201082B
:102D30002DE9F34117460023044601AA0A21B86889
:102D4000019301F0A1FB019DC6B24DB12A46144981
:102D500020460CF04AFD019D284602B0BDE8F081F6
:102D6000042E09D932460F49204601250CF03DFDBD
:102D700020460CF075FDEFE77868FFF74DFBB0F1EA
:102D8000000804DA7A68204607490CF02EFD00217D
:102D900033460FFA88F208460CF026FADCE700BF4B
:102DA0000B630108326301084963010810B504464A
:102DB00006F046FB0749024620460CF0FAFC204686
:102DC00005490CF0F6FC214604480AF0ABF8002057
:102DD00010BD00BFDB630108FA630108E12D0008A4
:102DE00070B58EB004460D46D0F89C6010F0DCFD46
:102DF000224A034611F086F91058214A2149002B36
:102E000018BF1A46234600921F4A844218BF0A463A
:102E100028461E490CF0CDFC28461D49D4E90A235A
:102E2000CDE9002394F90E30227B0CF0C2FC06A9F8
:102E30002022204609F0D0FB636E02461549284641
:102E40000CF0B7FC05A9204610F0BEFD024628B1E3
:102E5000114928460CF0ADFC0EB070BD059B6422F4
:102E60002846F11A4A4300910C49B2FBF6F2CDE92B
:102E7000016232460CF09DFCEEE700BF0800000046
:102E800004640108FE8301088D75010807640108C8
:102E9000136401083F640108566401088364010853
:102EA000F0B591B0002504461C2208AF294609A8B8
:102EB000144E11F058F81A222021384611F053F818
:102EC000214611480AF02EF807AA4FF40061304657
:102ED00010F06EFD079A64232046C2F5006100974A
:102EE0004B43DB0A05934FF40063CDE90313CDE9AF
:102EF000013206492B46A6F140020CF05AFC284646
:102F000011B0F0BD802B0024112F0008D4640108FB
:102F100070B5044688B00D46D0F89C6007A910F043
:102F200053FD024628B10F4928460CF042FC08B078
:102F300070BD204610F038FD079B64220096F11A00
:102F40004A43B2FBF6F2CDE90131074B07490028AD
:102F500018BF03462846CDE9036222460CF029FC3F
:102F6000E5E700BF56640108046401081D65010817
:102F70002DE9F04387B005461A4F6846DFF86880B0
:102F800008F062FE1423009E0821184A03FB006625
:102F900028460CF001FCDFF85890009CB44203D3A3
:102FA000002007B0BDE8F08323680BB11A7832B96E
:102FB00023463A46142101A80AF0C2FA01AB424660
:102FC000082128460CF0E8FB2046143410F0FCFBE6
:102FD000084B094A0821002808BF4B4628460CF038
:102FE000DBFBDBE79A6501089F6501089065010836
:102FF0008765010881650108136C01082DE9F0411E
:103000001446884607461022002160680AF03AFB01
:10301000B8F1020F064607D82023254A0821384672
:103020000CF0BAFB336816E00A220021A0680AF00F
:1030300029FB1F4AC5B2082138462B460CF0ACFBD1
:10304000B8F1030F1AD1102D0CD0202DEAD0082D85
:103050000BD13378DBB2174A082138460CF09CFBC1
:10306000002009E033889BB2F5E73846124A082170
:103070000CF092FB6FF01500BDE8F08110220021EA
:10308000E0680AF0FFFA0D4A034604460821384674
:103090000CF082FB102D06D0202D07D0082DE4D196
:1030A000E4B23470DCE7A4B23480D9E73460D7E707
:1030B000D3650108FE650108E86501080F6601088F
:1030C0002DE9F04F4FF0FF35594B91462026012254
:1030D0002C46DFF860A185B0074688461A6002F0EA
:1030E00079FD49465246404602F098FD411C06D102
:1030F0006A1C50D1504938460CF077FB1CE073280D
:103100001FD0772832D0612816D1DFF830B11022D5
:103110000021DBF800000AF0B5FA05460028E0D1EE
:10312000474B10F0EFFF1B58162BDAD1DBF80020CD
:10313000444938460CF059FB6FF0150005B0BDE866
:10314000F08F0022DFF8F4B01146DBF800000AF03F
:1031500099FA04460028C4D1394B10F0D3FF1B580C
:10316000162BBED1DBF800203749E2E70022DFF85A
:10317000CCB01146DBF800000AF084FA06460028BD
:10318000AFD12F4B10F0BEFF1B58162BA9D1DBF887
:1031900000202E49CDE7631C01D12D49ABE75FFA32
:1031A00086F8C6F3C406002C3FD06B462946A6EB32
:1031B000050C1A460CE0B8F1100F1DD0B8F1200F25
:1031C00020D0B8F1080F2AD1087818703144334460
:1031D000A64203D80CEB01001028ECD9102CA14614
:1031E0002946384628BF4FF0100910354B46A4EB4E
:1031F000090401F021F8D6E7088880B21870000AA7
:103200005870E3E708684FEA102E187083F801E061
:103210004FEA104E000E83F802E0D870D6E70D4A50
:10322000082138460CF0B8FA86E7204686E700BF4A
:10323000A00000245D6601086466010824160024CD
:103240000C00000023660108366601084966010883
:1032500081660108E865010870B50F4E04460D4609
:10326000337871B123B10D49BDE870400CF0BDBA9F
:10327000012333700A4920460CF09BFA0123337076
:1032800004E083F001033370002BF3D1294620467C
:10329000BDE870400CF001BB221B00249B660108B6
:1032A000D666010870B504463B480378182B02D156
:1032B0000B78112B31D0013A0B468D18AB4225D13A
:1032C0008B5C0A780370A2F13003344C092B04D9CB
:1032D00022F02003413B052B04D823683049CA540F
:1032E000013323602368022B33D1102200212C48A4
:1032F0000AF0C8F92B4A136803F8010B13602A4A35
:103300001368013313600023236022E013F8016B7C
:10331000182ED3D11E78112ED0D1234D204623490B
:103320002A680CF046FA20460021FFF795FF204B53
:10333000187870B91F4A2B681168042B0ADC08B191
:1033400011602B6013F003010BD1126813681BBAD4
:10335000136070BD0868043B00BA41F8040B0120FB
:10336000EBE75B4203F0030358BF5942022904D143
:10337000126813885BBA9BB2EAE70329E9D11068A7
:1033800002681104C2F3074302F47F4201F47F0193
:103390000B4313430360DCE7231B00246C1300245E
:1033A000251B0024781300247013002400670108F3
:1033B000241B0024741300242DE9F84F00230C462D
:1033C0002A490646DFF8A88015460B60DFF8A4906E
:1033D0002949DFF8A8B088F800300B60012C2F468F
:1033E00055F804AF1ED902224946504610F0E0FDC0
:1033F00080B99AF80220003A18BF0122924420496D
:103400000222504610F0D4FD30B9012388F8003074
:10341000013CE3E70022F1E749465046FDF770FD25
:10342000A8B904370022786811460AF0B5F80022DE
:10343000144B1146186078680AF0AEF8124B134925
:1034400018603046FFF708FF0020BDE8F88F9AF8B3
:1034500000202D2AE6D19AF80120002AE2D0524617
:10346000594630460CF0A5F9D2E700BF6C13002492
:10347000241B00241A670108701300242067010828
:103480001D6701087813002474130024A532000876
:1034900007B50A4810F098F960B10423084A0749B3
:1034A000009301231268074800F02CFF002003B0AE
:1034B0005DF804FB6FF01200F9E700BF6C430108F0
:1034C000EC4C0108A049010810B54468A3604023F2
:1034D000C4E9001242680821D36402F15803D162A2
:1034E00002F15001136300231468536313641161E4
:1034F00053611362C2F8D030C2E90E33C2E911330E
:10350000C2E90633C2E90933A36823B19B6C13B146
:10351000044920469847A3689B6A0BB12046984708
:10352000002010BD293500082DE9F74304460D465B
:1035300083685B6C03B19847A3685B6B0BBB4FF070
:10354000000905F13008EA6C01A940460BF056FD70
:103550000746002836D0A36801999B693BB3024611
:1035600020469847064628B3314640460BF066FD94
:10357000B7424FF00109E6D0D5E901310020984764
:1035800003E0204698470028D9D1A3685B6A63BB53
:1035900005F11007EA6A01A938460BF083FD0646DB
:1035A00050BB20460BF07BFFC5F8D0602FE06FF0DA
:1035B0005706D9E7014640460BF040FDB9F1000F30
:1035C000E3D0D9E71648036813F0060F03D0154A75
:1035D00002210BF083FEA3689B69002BEED0012231
:1035E0000DF1030120469847E8E720469847002858
:1035F000CED103B0BDE8F083A36801995B695BB1EC
:10360000024620469847014638460BF06AFD0120E5
:10361000D5E901319847ECE76FF05701F4E700BFB7
:10362000D80300248768010810B581680446183162
:1036300001F05EF9A1682046024A1831BDE8104049
:1036400001F0FCB8C968010838B583680446D3F8AE
:103650007831DB071DD4C0690CF044FE6068036854
:103660005B689847054620B9E0680DF00FF8A3683D
:103670001D75A3685B6C13B1294620469847A36863
:10368000002210F03FFDC3F82022034B185801F030
:10369000E9FE6FF00F05ECE70800000001490BF0B0
:1036A0009CBF00BFB8640108F7B5044680680D46AA
:1036B000D0F878315A0705D500210BF0B6FFE06845
:1036C0000CF0B6FFE368DB6873B9002D3BD0A66849
:1036D00006F1560738460BF08DFF002835D03946E5
:1036E00006F1D600FDF716FCA2680DF10603294687
:1036F000E06856320CF09FFF58B9A06800F1D6017F
:103700005630FDF707FCA06856300BF073FFADF89C
:10371000060020460CF0B2FBA368D3F874319B0678
:1037200003D50B4960690BF058FF204600F014FFE9
:10373000A268BDF806302046A2F85230A268A2F86E
:1037400050300CF001FB03B0F0BD86F8D600CBE79B
:10375000104B01082DE9F04FA7B004465422002178
:1037600011A810F000FC00232046CDE90533A36822
:10377000563302930CF089FB20460CF0CEFA10B9B8
:103780006069FFF78BFFA068142200210026183023
:103790004FF0FF3710F0E7FB20460CF065FAA16808
:1037A000E068B246B1F850200DF144085631B346F6
:1037B0003546B1460CF076FF20460CF0F5FF039637
:1037C000DDE90532012A6DD0132B6ED85FBBBBF14A
:1037D000000F0AD020460DF004F8A268142311A9A6
:1037E00056320DEB03000CF0BEF8B9F1000F0CD00F
:1037F00099F81130FE2B08D1059B26AA02EB830213
:1038000052F8542C0AB101330593A068059D436A10
:10381000002B40F0B680CEB1C3699E422DD000F19E
:1038200018050D9624E00223029A414606A80CF0E2
:103830009AF8D8F8042006990346029231B101297A
:103840000AD148B16D4A20460CF0D0FB6FF0070555
:10385000284627B0BDE8F08F059B002B34D0D8F860
:10386000000001F065F898B166B1A5680D961835AD
:103870000CAE0FCE0FC533682B6020460125FFF735
:10388000D3FEE5E75E4A012120460CF0AFFBDDE701
:10389000059BCBB1D8F800202946204601F0E4F979
:1038A000022809D1059B132B91D9069B022B8ED19F
:1038B000544B0121544AC6E7032805D0059B4FF01D
:1038C000010B013305937BE7039B33B907AAD8F8B3
:1038D000001048460CF03EF9054608F10408013F87
:1038E0009DB3EB68BBF1000F08D0F3B120460CF09C
:1038F000CCFA20460CF028FA444AC4E7ABB1A368DE
:10390000AE46DDF814A003F1180CBEE80F00ACE8D9
:103910000F00DEF80030CCF80030AB682BB96B7CC0
:10392000FE2B04BF2F7C07F1FF37D5F804C0BCF194
:10393000000F08D0AE460CAEBEE80F000FC6DEF892
:10394000003033606646A94603E0059B53B101236E
:103950000393069B17B9022B7FF432AF059B01330B
:1039600005932DE7A368DB6A13B1DB68002BEED16A
:10397000274B0121274A20460093119B0CF036FB70
:10398000E5E790F82830A5EB0A05BBB190F82910BF
:103990004FF6FF72FF2918BF0A469D4202D3134417
:1039A0009D420BD9836901211B4A20460CF01EFB66
:1039B00020466FF01505FFF737FE49E701210BF0B0
:1039C00029FEA06800F503700BF048FEA36811AA59
:1039D00029465B6A204602EB8A0298470546A068A2
:1039E0004FF0FF324FF0FF3300F503700BF0DDFDB9
:1039F0000021A0680BF00EFE2AE700BFD76801087F
:103A0000EB6801084C690108646301080969010851
:103A100038690108406C01087069010810B502227C
:103A2000836804461A7583689B6CBBB90BF094FDE0
:103A30008368D3F87831DB040BD50321084B094A9E
:103A40000CF0D4FAA0686FF4805100F5BC700BF054
:103A50009DFD2046BDE8104000F0D2BE10BD00BF65
:103A60008B690108A16501082DE9F04F04468068C3
:103A7000B1B0012100F5BC700BF079FDA3681B7D8E
:103A8000022B20D100230993A36860689E6C036811
:103A90001D6909AB0EB310221BA9A847099B93B15E
:103AA0000121A0680BF0B6FD099A1BA92046B0477A
:103AB0000021A0680BF0AEFDA3689B6C002BE3D146
:103AC0002046FFF7ABFFA0686FF0010100F5BC7066
:103AD00031B0BDE8F04F0BF059BD01220DF12301CB
:103AE000A847099B002BEED09DF923209DF82310B9
:103AF000002AA368C8DB5A7D032A00F29482DFE81B
:103B000012F004008102980292020D297CD00A2949
:103B100058D0B3F8782109296FF3CA02A3F87821A5
:103B2000A06800F086803DD80029ADD0082900F0BB
:103B3000F8810346D3F874219207A5D501391629D7
:103B4000A2D801A252F821F0D54000085D3F00083C
:103B5000653F0008553F0008C9400008833F000842
:103B6000893A0008893A0008893A0008893A000829
:103B70008B3F0008933F0008893A0008BD3F0008CA
:103B8000893A0008C73F0008893A0008893A0008C6
:103B9000893A0008893A0008CB3F0008893A0008B2
:103BA000F53F00081B2941D07F2900F0C681A1F113
:103BB000200203465E2ABDD801210BF036FD9DF898
:103BC0002310B7E0D3F87821C2F3C7022AB1D3F8A3
:103BD0007821C2F3C7020A2AACD1B3F8782161F385
:103BE000CA02A3F87821A568B5F85010C1B92846D3
:103BF0000BF01BFDE0680CF01BFD6069FFF74EFD4C
:103C00002046FFF70BFF3FE7D3F87821C2F3C70246
:103C1000002AE2D0D3F87821C2F3C7020D2ADBE7ED
:103C20002046FFF797FDC5F82402E9E70123437515
:103C30002AE7D0F874319B077FF526AF01210BF0FE
:103C4000F4FCA068B0F850307F2B3FF41DAFB0F803
:103C5000522000F15601D630002510F05CF9A3681F
:103C60001BA90BA8B3F85220134483F8D650142391
:103C7000A268D6320BF077FE0B9914293FF604AFF9
:103C800030AB03EB810343F8545CA368B3F85220D4
:103C9000002A53D0134493F85530202B02D0093B0F
:103CA000042B4BD800294CD100250A9530AA0A9B39
:103CB000002602EB8303B346B04653F854AC3746B4
:103CC00050460BF097FC814616AA3946284600F06C
:103CD000A1FB0346002840D1012EA76865D130AA78
:103CE0000A9B02EB830353F8540C0BF083FC07F19F
:103CF000180206464146284600F08CFB0568284617
:103D00000BF078FC864205D0821BA919204692B29E
:103D10000CF0B3F9A068B0F85230034493F8563071
:103D2000202B31D0093B042B2ED9D0F87431DF077A
:103D30002FD42021204600F02BFDA5E60129B3D980
:103D4000013900200CAB1BAA00930AAB01900BF0C9
:103D50002DFF05460028A9D196E61B684A46514624
:103D60001846039310F024F960B9039B1846FDF739
:103D7000D9F8584538BF5846002E08BFB846013616
:103D80001FFA80FB01379FE7012120460CF010F855
:103D90007AE600210BF053FC2021204600F0F8FCCD
:103DA0000121A0680BF04BFC6EE604907FF66CAE30
:103DB00030AB0A9AC14603EB820252F8543C1846D3
:103DC00003930BF017FC049B0590A7F84030049672
:103DD000A2684946284609F10109183200F01AFB89
:103DE000039BD0F800A04BB1BAF1000F06D0059AA2
:103DF0001946504610F0DCF80028E9D1A168BAF164
:103E0000000F4CD1A1F840A0049B013B0493DFD1EB
:103E1000606908F1010AFFF741FC204600F0F0FC60
:103E200030AA0A9B02EB830353F8540C0BF0E2FB1D
:103E3000414611AA8146284600F0ECFA0746A068E0
:103E40007F223968D63010F0C5F83B684FF6FF770F
:103E50000393B84616AA514628460AF1010B00F012
:103E6000D9FA002851D0A16800220368D53111F891
:103E700001EF985C704503D110B101324245F6D193
:103E8000B9F1000F01D04A4507DBBA4206F1FF360F
:103E9000A8BF3A46012E97B237D0DA46DAE79948FA
:103EA00006910BF0A7FB069900EB0B074A8FBFB2F8
:103EB0000791121A504692FBF7F292B206920BF05B
:103EC00099FB07993F1A069AB1F84000BFB200F17A
:103ED000010CA1F840C0B0FBF2F102FB110080B26E
:103EE00060B9884B0621884A2046CDF800A00CF026
:103EF0007DF83946204600F019FB85E75346834A92
:103F0000062120460CF072F8F3E7002F3FF4BCAD19
:103F1000A7EB09020399204692B249440CF0ADF890
:103F2000B2E5D0F874319E077FF5AEAD01210BF0FC
:103F30007CFB20460CF0C2F8A6E5D0F874319D0752
:103F40007FF5A2AD01210BF070FBA368D3F87431AB
:103F50001907EED420460CF092F895E520460BF0B8
:103F60009DFF91E520460BF090FF20460BF0D5FE1B
:103F700010B96069FFF792FB0121A0680BF055FBB7
:103F80003EE620460BF093FF7EE520460BF09AFFBD
:103F90007AE5D3F874319B0603D55D4960690BF06F
:103FA0001CFBA368D3F874319F0603D55949606997
:103FB0000BF013FB204600F023FC65E500212046B2
:103FC000FFF772FB60E50121F9E720460BF056FF91
:103FD00020460BF0C1FA0121A0680BF026FBA36874
:103FE000D3F874319E067FF54FAD4B4960690BF0F5
:103FF000F4FA49E5204600F029FB0121A0680BF006
:1040000014FB41E55B2902D102225A753CE5D3F845
:1040100074319D0706D5622907D14FF0FF31204644
:104020000BF0EEFEA3680022EFE76629FAD101212A
:10403000F5E700225A75A268D2F8743198077FF527
:1040400023ADA1F131031B2B3FF61EAD01A151F8A9
:1040500023F000BFD1400008DD400008F140000817
:10406000C5400008893A0008893A0008893A0008E2
:10407000893A0008893A0008893A0008893A000814
:10408000893A0008893A0008893A0008893A000804
:10409000893A0008C73F0008BD3F0008833F000879
:1040A0005D3F0008893A0008C9400008893A0008C5
:1040B000D5400008893A0008893A0008893A000882
:1040C000E14000080323537520460BF0DEFEDBE4DD
:1040D0000323537520460BF0D1FED5E4032353751B
:1040E000A068D0F8741101F0010181F0010159E6D6
:1040F00003235375A368D3F874319B077FF5C4ACD1
:1041000028E700BFFD830108CF690108A165010808
:10411000154B01081A4B0108104B01082DE9F0411D
:1041200004468068154600F5BC70002937D04FF46E
:1041300080410BF01CFAA3680021DD64606803680D
:104140009B68984700284BD120460BF0ADFA002819
:1041500046D1244E244FDFF89480A06800F5DE702D
:104160004FF0FF324FF0FF33032109F011F90546FC
:10417000A0684FF0FF324FF0FF3300F503709DB1A0
:104180000BF013FA20462B46194A01210BF02EFFA3
:10419000A068BDE8F04100F503700BF05FBA6FF462
:1041A00080410BF0F3F9C6E70BF0FFF9324602212C
:1041B00020460BF0FCF93A46294620460BF0F7F969
:1041C0002046424601210BF0F2F9606803685B6902
:1041D00003B19847A06800F503700BF03FFABCE705
:1041E000BDE8F08149360008693A000861F6000828
:1041F000D569010810B504460A490BF0DAFA0A49F4
:1042000020460BF0D6FA204608490BF0D2FA204699
:1042100007490BF0CEFA2046064A002100F00EFBBB
:10422000002010BDEC6901082A6A0108896A0108AA
:10423000DD6A0108776B0108F8B51E4617460A4685
:10424000294904460BF0B5FA3EB301253A782749CF
:1042500020460BF0AEFA6A0703D1254920460BF041
:10426000A8FAAE421ED97A5D204620490BF0A1FA89
:104270000135102DEFD11F4920460BF09AFAB6B93F
:1042800001251B4920460BF094FAAE422B4610D86C
:10429000174920460BF08DFA15E0012516492046F6
:1042A0000BF087FA144920460BF083FAE0E700256B
:1042B0002B46FA5C20461149A2F120035F2B28BF50
:1042C0002E220BF076FA0135102D06D06B07DCD1CB
:1042D000074920460BF06DFAD7E720460849BDE8AC
:1042E000F8400BF066BA00BF8D6B0108C46001088E
:1042F000FE830108CA600108FC830108B46B010851
:10430000946B01082DE9F04304468068884689B023
:10431000D0F8201215461F46002960D14FF40A72CA
:104320000FF021FEE0680CF025FAA06800F503709C
:104330004FF4DE794FF4BE760FF0DBFAA06830441C
:104340000FF0D4FDA06800220121831910364844E3
:1043500009F114090FF0A1FDB6F5DE7FEED1A369D6
:10436000002602211E6066F38205A06800F5BC707D
:104370000BF0FDF8A368502220465A871822A36844
:104380001A8721680BF03FFAA368164A4146C3F822
:104390007451606803681D682346A8470546D0B974
:1043A000A36801221A75D4E90A01002200230495AA
:1043B0000094CDE906230E234FF400620393109B73
:1043C000CDE90173084B08F0CBF9A368C3F82002CC
:1043D000616A08F0F1F8284609B0BDE8F0836FF093
:1043E0007705F8E701F600081D41000810B50446FE
:1043F00013460A460146064801F0BEFB23691B79B5
:1044000023B12046BDE810400BF04DBA10BD00BFEF
:10441000BFF8000838B50B46154648B91449154A87
:10442000521AB3EB920F05D251F82350284638BDEB
:1044300084680CB90025F9E70F4A94420AD30F4A61
:10444000944207D218462268294690472B68002BD1
:10445000ECD1EFE70A4A944202D30A4A944205D3C8
:10446000246814225343E518E358F0E70133F8E7D2
:10447000D0490108004A0108F04A0108F04A010841
:10448000004A0108F04A0108F7B5164602780023F1
:1044900004462D2A019305D16FF0150300203360E7
:1044A00003B0F0BD0C4F0FF02DFE05460A46C35178
:1044B00001A9204609F0E6F8EB59222B02D16FF052
:1044C0002103EBE7002BE7D1019BA342E4D01B784B
:1044D000002BE5D0E0E700BF0C0000008368D3F8B4
:1044E00074319B0603D5024940690BF0F7BB704756
:1044F000204B010801490BF0F1BB00BFB864010873
:104500000A1E0DDC0ED042238168D1F87411890691
:1045100008D5002A04494069B8BF52420BF0DEBBFF
:104520004123F1E7704700BFB06B01080A1E0DDCA4
:104530000ED044238168D1F87411890608D5002A69
:1045400004494069B8BF52420BF0C8BB4323F1E7AE
:10455000704700BFB06B01082DE9F047856804463D
:10456000DFF8649005F15600FCF7DCFC002386B20E
:1045700095F83C709846A268558FED1BB54209DB53
:10458000002E1FDD5633606910491A44BDE8F0471C
:104590000BF0A4BB1D44563349462A4492F856A05A
:1045A00082F85680A26860691A440BF097FBA368F2
:1045B0002B4483F856A0A3685B8FDB1B0027F61AF9
:1045C0002B46D8E7BDE8F08764630108A1650108C0
:1045D00008290A4617D8836893F83E10914212D0F2
:1045E00083F83E20082A8368D3F8743105D09906F1
:1045F00009D5054940690BF071BB9B0603D50349FA
:1046000040690BF06BBB7047B76B0108254B010885
:1046100038B50D4609780446FFF7DAFF6A78072AAD
:1046200011D8A36893F83F1091420CD083F83F2033
:10463000A368D3F874319B0605D560690249BDE8CB
:1046400038400BF04BBB38BDC06B0108F8B5836830
:104650000446B3F85020002A55D0B3F85210002970
:1046600051D0553103F156050B441846A84206D3E4
:10467000014611F80169202E3CD0A8423CD286B2F6
:10468000471C9DB2AB1B9BB2591CD21A0144384641
:104690000FF04FFCA268711B2046B2F8503013FA9D
:1046A00081F309B2A2F85030A368B3F85020134444
:1046B000002283F856200BF07BFBA368D3F87431FB
:1046C0009A0603D5104960690BF008FB3B460F4A78
:1046D000082120460BF08AFC2046FFF7FFFEA36866
:1046E000D3F874319B060ED560690949BDE8F840DE
:1046F0000BF0F4BA0846B9E7014611F80169202E1B
:10470000BDD00846B9E7F8BD2A4B0108A1650108EC
:104710002E4B01082DE9F04104460D4617460AB11B
:10472000FFF7DCFEA368B3F85220D3F874115632B9
:1047300013444A0721D51846DFF84C80FCF7F2FBFA
:104740000646A6B9A368B3F85020A3F85220A06883
:104750000BF0D1FA20B107B115B16069FFF7CAFEBD
:104760006942204609B2BDE8F0410BF021BB414649
:104770006069013E0BF0B2FAE3E7044A08212046E3
:104780000BF034FCDEE700BF8D750108A165010860
:1047900013B5836804468DF80710D3F87421D00749
:1047A00025D5B3F85210B3F850208A421FD0481CC8
:1047B0009DF80720A3F852000B4483F85620A36805
:1047C000D3F87411890710D5D3F87431606913F0E8
:1047D000040F0A4918BF2A220BF080FA20460BF07A
:1047E0009CFA10B16069FFF785FE02B010BD01228E
:1047F0000DF1070120460BF006FCF6E7B46B01084B
:1048000010B504468368094A02210BF0EFFBA36848
:10481000D3F874319B0707D52046FFF79DFE20464D
:10482000BDE810400BF09FBA10BD00BFA1650108A4
:1048300001490BF0CCBD00BFB86401082DE9F04F71
:104840000E46002189B0044617460D4603AA30469D
:1048500001F10108FFF7DEFDB0B995B127B13A4685
:10486000082120460BF0C2FB00211E4FDFF8789094
:10487000DFF878A003AA304601F10108FFF7CAFD6E
:1048800060B909B0BDE8F08F006810B1FCF74AFBD1
:1048900080B28542414638BF0546D7E703688BB1F1
:1048A0001A787AB1D0F804B04A4608212046CDE9FA
:1048B00000533B460BF09AFBBBF1000F04D160693B
:1048C000FFF7B6FF4146D5E7524620463B46082152
:1048D0000BF08CFBAA1D5946204692B20BF084FDCA
:1048E000F0E700BFDE6B0108C96B0108BF6001087B
:1048F000F7B50F6805460E46A7B13846FCF712FB20
:1049000084B2094B2846094A082100933B460BF024
:104910006DFBE21C7168284692B203B0BDE8F0401E
:104920000BF062BD3C46ECE7DA6B0108D069010888
:1049300010B507490446FCF7E3FA38B105492046AB
:10494000FCF7DEFAB0FA80F0400910BD0120FCE768
:10495000D06B0108D36B010810B583680446D3F807
:1049600074319B0603D5064940690BF0B4FDA3687A
:10497000502200205A871822A3681A8710BD00BF52
:10498000324B010808B5836902491A680AF011FF21
:10499000002008BDE16B01082DE9F3410E490546F1
:1049A0000E4C0AF006FF0E4E0022DFF83880B442AB
:1049B00002F1010703D3002002B0BDE8F081636A71
:1049C00092B2414628460093303454F8283C0AF00D
:1049D000F0FE3A46EBE700BFF16B0108A049010881
:1049E000D0490108096C0108024908B50AF00BFF1B
:1049F000002008BDB964010873B5044600250C4EBB
:104A0000A2680DF106030121E068D6320BF013FE17
:104A1000BDF80600A36838B12A46D6333146204691
:104A200001350AF0C6FEEBE783F8D60002B070BD90
:104A30001A6C010810B504460AF027FF0349024624
:104A400020460AF0B6FE002010BD00BFF25B010850
:104A5000022907B50BD153680C4900930C4B12681F
:104A60000AF0C3FE6FF0150003B05DF804FB836825
:104A7000084AD3F87431084913F0020F074B18BFE6
:104A80001A460AF096FE0020EEE700BF3D6C0108D2
:104A9000286C0108246C0108466C0108F8620108C2
:104AA00010B583680446D3F874319A0603D50749D4
:104AB00040690BF010FDA368D3F874319B0603D551
:104AC000034960690BF007FD002010BD394B010858
:104AD0003E4B01080129F0B5044685B00AD0536861
:104AE0005B4900935B4B12680AF07FFE6FF0150084
:104AF00005B0F0BD8368D3F87431990603D55649E3
:104B000040690BF0E8FC6FF0F9012046FFF7F8FC74
:104B1000FA2120460025FFF709FDA06880222946DA
:104B2000D6308DF80B504FF47A760FF01CFA4B49C3
:104B300060690BF0D0FC60690AF0B5FE6068012284
:104B40000DF10B0103681F6903ABB847039BEBB979
:104B5000013E4FF47A700EF027FEB6B2002EEDD172
:104B6000A368D3F874319B0603D53D4960690BF007
:104B7000B2FCA368502220463A495A871822A368FB
:104B80001A870AF024FE6FF00700B1E79DF80B20AA
:104B9000A3681B2A4FD093F8D6101B29CED1522AD6
:104BA00049D15A19002382F8D630A66896F8D72042
:104BB0005B2A29D106F1D700022510F8011F2A46E9
:104BC00001353B29ADB222D17F2AC9D0D63216FA9F
:104BD00082F1002211F8010F10BBFA2A86F8D600E4
:104BE000A16828BFFA22FA2B4A8728BFFA23A268B5
:104BF0001387A368D3F874319A0603D518496069FE
:104C00000BF069FC002073E786F8D630A8E703EBC9
:104C100083033039802D01EB43018BB2CDD19FE767
:104C2000013502EB82023038ADB200EB4200802D3C
:104C300082B2CFD194E72B440135ADB283F8D620B0
:104C4000092D7FF67BAFA368002283F8D62087E783
:104C50003D6C0108286C0108444B0108916C010867
:104C6000484B0108576C01082DE9F04F074689B001
:104C70001546894621B110460BF082FD00285AD115
:104C8000032454E05C463CE029460AF1D6000FF0CC
:104C9000BDF90646002853D0FCF744F9314682B2EC
:104CA000601C08F10108013230440FF042F922463D
:104CB000594630460FF02FF94FF020033355BAF81C
:104CC000543001331C44AAF85440002401994B1C71
:104CD00003AA48460193FFF79DFB0646E8B1002270
:104CE000316828460BF0EEFE0028EFD1D6F800B070
:104CF000D7F808A0BBF1000FC4D05846FCF712F952
:104D000084B2BAF8543023447F2BBDDD01242B46F6
:104D10000C4A032138460BF069F9B8F1000F06D0B0
:104D2000B8682A4600F15401D6300AF0ECFE20465D
:104D300009B0BDE8F08F4FF0000802244146C6E7F5
:104D40000224EAE7517101082DE9F843054600AF56
:104D50000C46002948D0DFF8B890D9F800305A073F
:104D600042D06E468AB0A3686A46D1E90001DFF8F6
:104D7000A4C04FF00508C2E905C0C2E9071342F814
:104D8000108F00234FF421514846FDF717FCD9F846
:104D90000030B5465B0727D08AB06369D4E90301C8
:104DA0006A46DFF874C0C2E90713C2E905C042F8D9
:104DB000108F002348464FF42151FDF7FFFBD9F82F
:104DC0000030B54658070FD0E3690121134A484621
:104DD0000AF08DFAD9F80030590705D0A369104AB6
:104DE000012148460AF083FA012D0AD1EFF3058329
:104DF00007480268520704D00A4A103B29460AF0C5
:104E000076FA2146284606F03FFFBD46BDE8F88306
:104E1000D0030024A3710108D271010801720108B6
:104E2000107201083E72010808B5034B1B689847D1
:104E3000BDE8084000F026B87400002430BFFFF73A
:104E4000FDBF00BF2DE9F0410B4E0546DFF82C8079
:104E5000324606EB0807CC1B094920460FF05BF8E9
:104E6000A019083C424600210FF07DF807F1080028
:104E7000C5F8A840BDE8F08100000000080000006F
:104E8000F04A0108074A936893F90E10002907DBDE
:104E90005269934204D0044A536843F080535360EC
:104EA000704700BFE01A002400ED00E0F8B5374C71
:104EB00006460D4623685B0703D0354920460BF0B4
:104EC000A4FC344B9B6ADF0451D52368580703D0F8
:104ED00031492E480BF099FC17202E4B9B6A19057F
:104EE00007D523685A0703D02C4928480BF08DFCBE
:104EF0001820284FBB6A9B0519D52368580703D093
:104F0000274922480BF081FCBB6BBA6A11040DD50E
:104F10002268520704D0234A01211C480AF0E7F90D
:104F200026B11C4A936A23F4004393621920194B5B
:104F30009B6A5B0507D523685F0703D01A491348AE
:104F40000BF063FC1A20134B9A6AD60511D523681F
:104F5000590703D015490D480BF057FC1B200D4A8B
:104F6000936A43F47F43936200232B70F8BD1620AD
:104F7000B3E79B6A9A04F2D523685B0703D00C4918
:104F800002480BF042FC1C20E9E700BFD0030024DC
:104F90005172010800ED00E06772010878720108A3
:104FA0008B720108A4720108B9720108D472010859
:104FB000EC72010810B52D4C23685A0703D02C4918
:104FC00020460BF022FC2B4B9B6A9B014BD52368A0
:104FD000580703D0284925480BF017FC1E20254B05
:104FE0009B6AD90107D523685A0703D023491F4874
:104FF0000BF00BFC1F201F4B9B6A1B0307D523687C
:10500000580703D01E4919480BF0FFFB2120194B0C
:105010009B6A590307D523685A0703D019491348D7
:105020000BF0F3FB2220134B9B6A9B0307D52368ED
:10503000590703D014490D480BF0E7FB23200D4B13
:105040009B6ADA0307D523685B0703D00F4907483B
:105050000BF0DBFB2420074A936A6FEA03436FEAF5
:105060001343936210BD1D20B9E700BFD003002495
:105070001B73010800ED00E033730108467301085B
:10508000607301087E730108A3730108BD730108F2
:105090002DE9F047454D8946804617462B6859074C
:1050A00003D0434928460BF0B0FB424B9B6ADA061B
:1050B00039D52B685B0703D03F493C480BF0A5FB73
:1050C00011243C4B9B6A1E0707D52B68580703D059
:1050D0003A4936480BF099FB1224DFF8D8A0DAF8E9
:1050E0002830990721D52B685A0703D034492F4817
:1050F0000BF08BFBDAF83460DAF828301B0651D558
:105100002B685C0705D02F4A3346012127480AF057
:10511000EEF8B9F1000F04D0264A936A23F0800319
:105120009362132403E01024CBE76FF01506214BA4
:105130009B6AD80707D52B68590703D022491B481B
:105140000BF063FB14241B4B9B6A9A0607D52B6854
:105150005B0703D01D4915480BF057FB1524154B71
:105160009A6AD50602D49A6A90070AD55B6819052F
:1051700007D54146304600F059FA10B180F309884E
:1051800002240C4B9A6A920603D55A6A22F4005202
:105190005A629A6A204642F0FF029A6200233B70EC
:1051A000BDE8F0876FF01506BBE700BFD003002411
:1051B000E873010800ED00E0FE7301087872010851
:1051C00031740108497401085F740108EC72010828
:1051D0002DE9F041744B8AB004460025D3F80480D1
:1051E00000AFC8F3080685F31188BFF36F8F02F094
:1051F0007F43B3F17F4F0AD102F00C03082B15D186
:105200006A480368590702D069490BF0FEFA002585
:105210002C460023FB71F31E092B00F2A080DFE86F
:1052200003F00A92958E9E9E9E9E9E9812074CBFFA
:105230000C460125EDE75D4E33685B0703D05D4901
:1052400030460BF0E2FA0023FB71574BDA6A900705
:1052500008D53368590703D0574954480BF0D5FA9D
:1052600000233CE0DA6A002A04DA33685A07F7D0F0
:105270005249F2E7DB6A5B00F2D53368580703D086
:105280004F494A480BF0C1FA474BA1695A6942F4A9
:1052900080725A61BFF34F8FBFF36F8F5A6931F835
:1052A000021C22F480725A61BFF34F8FBFF36F8FDD
:1052B0004DF60272914208D09A6AD2B292B3FA1DA8
:1052C00001212046FFF7E4FE3BE03368590705D093
:1052D00023683C4A012135480AF009F82368FA7925
:1052E000E2B907F1080604F1200C2068083454F8EC
:1052F000041C3246644503C21646F6D17A6A002D74
:105300004DD0C2F3080121B96FEA52226FEA42225E
:105310007A6207F108011846FFF716FD2837BD46E7
:10532000BDE8F0819A6A12F47F4F04D0F91D012084
:10533000FFF7BCFD05E09B6AB3F5803F90D3FFF714
:1053400039FE0346CBE7FA1D0021BAE7F91D00201C
:10535000EEE7164803685A0782D01B497EE71348D8
:1053600003685B073FF47CAF18F4F87F174AE84600
:105370008AB0174B18BF13466A461649103EC2E959
:1053800005134FF40073D6611384134B42F8103F9A
:1053900000234FF41151FDF711F9C54660E722F4DF
:1053A000FF7222F00102B3E700ED00E0D003002419
:1053B000AC740108D7740108EE7401080F75010878
:1053C0001D7501083C7501085875010893740108A2
:1053D0007E7401087C75010804000001044B5A69C1
:1053E00042F010025A615A6922F008025A6170476D
:1053F00000ED00E0EFF30880EFF3098101B572469C
:10540000FFF7E6FE01BD00BF102080F311880B48B6
:105410004FF0AA014FF404620EF001FA07484FF46E
:105420000461401880F30988EFF3148002210843D7
:1054300080F31488BFF36F8F00F0BAF8402B00247C
:10544000BFF34F8F0549064BCA6802F4E06213436D
:10545000CB60BFF34F8F00BFFDE700BF00ED00E062
:105460000400FA05084B9B6883420BD1EFF30583D8
:1054700043B1064B5A6842F080525A605A6A22F48D
:1054800000425A620EF064BBE01A002400ED00E016
:105490000A4A6FF00A019368C3F8B0100849C3F8CC
:1054A000AC004B6843F080534B60002383F31188BA
:1054B000BFF36F8F9368D3F8B0007047E01A0024F1
:1054C00000ED00E010B50446EFF31183102383F3E1
:1054D0001288BFF36F8F0C4B4FF0006258699860D1
:1054E0000A4B5A600A4BD0F8A8201A600022D0F864
:1054F000AC30C0F8AC2083F31188BFF36F8F00F09D
:10550000B7F9204610BD00BFE01A002400ED00E00E
:10551000041600240B498A684FF030001044EFF362
:10552000098C80E8F01F74467046FFF7CBFFA64653
:1055300004498A6802F1300090E8F01F8CF3098872
:1055400070470000E01A00241EF0040F0CBFEFF3B8
:105550000880EFF30980816911F8021C0229FFD04D
:1055600001B50BF04EF901BD00B2002807DB0123A5
:10557000410900F01F00024A834042F82130704781
:1055800000E100E000B2013100284FEA0111C9B288
:1055900006DB00F1604000F5614080F800137047C1
:1055A00000F00F00014B1954704700BF14ED00E0EC
:1055B000104A08B522F07F020F4B9A60BFF34F8F5D
:1055C000BFF36F8FD3F8882022F47002C3F88820CD
:1055D000EFF3148323F0040383F31488BFF36F8F76
:1055E00006F052FC07F0C2FC00F062F80BF029F95B
:1055F00006F09CFC0000000800ED00E042F8203CB2
:10560000203A009B08495360019B21F001019360FF
:10561000029B9161D3604FF08073D36100230265D8
:10562000C0F8AC30704700BFBD1D00080A4A0346F1
:10563000906878B113F1160FD0F8980005D0A0F15A
:1056400040029A4205D8834203D2814228BF0020FB
:1056500070470020704700BFE01A002415460D4A2D
:105660000E4608B50C4B9060D0F8A8201A6000F0E8
:10567000FFF82C4686F309884FF00000074B984747
:1056800020464FF000014FF000024FF00003044CA1
:10569000204700BFE01A0024041600241B0801085C
:1056A000BD1D0008014B10221A61704700ED00E09B
:1056B000002304481021C2180133A32B82F80013E1
:1056C000F9D1704700E100E008B5EFF30583064A21
:1056D000103B02EBC30152F8330049688847BDE82C
:1056E0000840FFF7CFBB00BFD0430108154A70B593
:1056F000536913F4803323D1C2F88430BFF34F8F42
:10570000D2F8803043F6E074C3F3C900C3F34E33DC
:105710005B0103EA0406014646EA81750139C2F8D5
:105720006052F9D2203B13F1200FF2D1BFF34F8F1B
:10573000536943F480335361BFF34F8FBFF36F8FCF
:1057400070BD00BF00ED00E0134A002370B5C2F841
:105750008430BFF34F8F536923F480335361BFF319
:105760004F8FD2F8803043F6E074C3F3C900C3F31F
:105770004E335B0103EA0406014646EA81750139AE
:10578000C2F87452F9D2203B13F1200FF2D1BFF3CB
:105790004F8FBFF36F8F70BD00ED00E0002910DD6B
:1057A00000F01F030B44BFF34F8F07490344C1F8B8
:1057B000680220301A1A002AF9DCBFF34F8FBFF3BA
:1057C0006F8F0020704700BF00ED00E0002910DD62
:1057D00000F01F030B44BFF34F8F07490344C1F888
:1057E0005C0220301A1A002AF9DCBFF34F8FBFF396
:1057F0006F8F0020704700BF00ED00E00B4B5A692F
:1058000012F4003211D1BFF34F8FBFF36F8FC3F883
:105810005022BFF34F8FBFF36F8F5A6942F40032AB
:105820005A61BFF34F8FBFF36F8F704700ED00E0F9
:10583000BFF34F8FBFF36F8F064B5A6922F40032CC
:105840005A610022C3F85022BFF34F8FBFF36F8F0E
:10585000704700BF00ED00E0024B0121024A0348FF
:1058600000F092B800000524000000245050010808
:10587000D0F898204021054B403A18461A60044A57
:10588000C3E90112012100F089B800BF0816002405
:1058900000000B1508B503461148D0F89020C2F35C
:1058A0000722013A93420AD90E480268520703D0F0
:1058B0000D4A012109F01BFD6FF0150008BDC0F86D
:1058C00098300A6822F01F021A4342F01002C0F812
:1058D0009C208A6842F00102C0F8A0201846EDE73B
:1058E00000ED00E0CC03002493750108F0B50E46EE
:1058F00085B01F4604460025B54210DA606828B31B
:10590000AFB1431E18420DD0124803685B0704D0A4
:10591000114A2B46012109F0EAFC6FF015021046EE
:1059200005B0F0BD1F28EFD921680B42ECD12368E8
:1059300001A901930AF086FFA3680343D0B2039341
:10594000FFF7A8FF10F1160FE7D0421C01350C3409
:10595000D2E700BFCC030024B9750108044B05222F
:10596000C3F89420BFF34F8FBFF36F8F704700BF12
:1059700000ED00E0BFF35F8F024B0022C3F89420DC
:10598000704700BF00ED00E010B5034C0123227802
:10599000FFF7ACFF207010BD451B00240B4A08B573
:1059A00000231278FFF7A2FF10F1160F07D0084A64
:1059B0000021D2F89030C3F30723984200DB08BDE2
:1059C000C2F898000130C2F8A010F2E7451B00248D
:1059D00000ED00E0584859492DE9F043D0F89030E7
:1059E00085B00D68C3F307239D4200F2A180FFF745
:1059F000C1FF49680022954201F10C011AD1504CB7
:105A00006846504F2570FDF791F800250646DFF8EF
:105A10003881DFF83891AE421FD123780020464903
:105A2000D1F89020C2F3072293427BDB0020FFF7DE
:105A300095FF4CE0C0F8982051F80C3C23F01F0370
:105A40001343013243F01003C0F89C3051F8043C7A
:105A500043F00103C0F8A030CDE700984FEA051CE1
:105A600000EB0511CB683B40B3F5000F44D00AD8DA
:105A7000B3F5001F2ED0B3F5800F34D0B3F5801FDF
:105A800010D00135C7E7B3F1807F3ED0B3F1007F7E
:105A9000F7D150F80C3088680AF0D4FE4A6840F418
:105AA000802009E050F80C3088680AF0CBFE40F006
:105AB00088504A6840F43020039001A92078CDE94D
:105AC0000123FFF7E7FE002828DA6FF0150005B084
:105AD000BDE8F08350F80C3088680AF0B3FE4A68DD
:105AE00040EA0800E8E750F80C3088680AF0AAFE9F
:105AF0004A6840EA0900DFE750F80C3088680AF08D
:105B0000A1FE4A6840F08270D6E750F80C308868F1
:105B10000AF098FE4A6840F08870CDE72378013398
:105B20002370AEE7C1F898300133C1F8A00077E7E1
:105B30004FF0FF30CBE700BF00ED00E0744B0108F1
:105B4000451B00240000F0FF0000081100000207C0
:105B500008B5024B1B689847002008BD14160024A6
:105B6000034B044A1860937843F002039370704724
:105B70001416002478000024F0B587B007460E46BE
:105B800014460021102268461D460EF0ECF902234F
:105B90002A4621468DF802306846044BCDE904764A
:105BA000019307F0D5FD07B0F0BD00BF65080108FF
:105BB0000649074821F00701C1F1105208B502F566
:105BC000A02208F000FF002008BD00BF47CA032440
:105BD0001816002408B500F0B7F80A49012200237E
:105BE000416109490361C0E900220A6007490A606E
:105BF000074A1360074A1360074AC0E9023313607B
:105C000008BD00BFB9640108A4000024A00000245E
:105C10002C16002428160024241600242DE9F04117
:105C200007460E46154600F08FF8C36804461BB9B8
:105C300043691A78002A41D10023E3606368BB42BC
:105C400056F8232008DB324B6361204600F062F8EF
:105C50004FF0FF30BDE8F081511C616192F8008087
:105C6000B8F12D0FEFD1911C616151782D29A16000
:105C700004D192786AB901336360E4E749B9244BEF
:105C80004146284663610EF086F90028DDD0C4F84D
:105C90000880D4F80880284641460EF07CF9B8F117
:105CA0003A0F636900D070B91B7813B96368013388
:105CB0006360204600F02EF83F20CBE75A1C42617B
:105CC0001B788360E5E742783A2A0BD000222261F4
:105CD0001B7813B9636801336360204600F01AF83B
:105CE000A068B7E718786268094928B90132974275
:105CF000626004DD56F82230C4E90431EAE76161EC
:105D000020462D783A2DD5D100F004F82846A1E799
:105D1000B96401080268074B1A604268064B1A60B2
