:020000040800F2
:1000000050680024814F0008A14900086D4F000886
:100010006D4F00086D4F00086D4F00080000000094
:10002000000000000000000000000000C1500008B7
:100030006D4F0008000000008D5000086990000816
:100040004152000841520008415200084152000844
:100050004152000841520008415200084152000834
:100060004152000841520008415200084152000824
:100070004152000841520008415200084152000814
:0402CC00FFFFFFFF32
:1002D00080F0004002E000BF81F0004142001FBFFB
:1002E0005FEA410392EA030F7FEA226C7FEA236C04
:1002F0006AD04FEA1262D2EB1363C1BFD2184140F9
:1003000048404140B8BF5B42192B88BF704710F08E
:10031000004F40F4000020F07F4018BF404211F031
:10032000004F41F4000121F07F4118BF494292EA99
:10033000030F3FD0A2F1010241FA03FC10EB0C00C5
:10034000C3F1200301FA03F100F0004302D5494252
:1003500060EB4000B0F5000F13D3B0F1807F06D3FF
:1003600040084FEA310102F10102FE2A51D2B1F1F7
:10037000004F40EBC25008BF20F0010040EA0300EC
:100380007047490040EB0000013A28BFB0F5000F6C
:10039000EDD2B0FA80FCACF1080CB2EB0C0200FA22
:1003A0000CF0AABF00EBC25052421843BCBFD04071
:1003B0001843704792F0000F81F4000106BF80F4EB
:1003C00000000132013BB5E74FEA41037FEA226CAE
:1003D00018BF7FEA236C21D092EA030F04D092F079
:1003E000000F08BF0846704790EA010F1CBF0020AD
:1003F000704712F07F4F04D1400028BF40F000400A
:10040000704712F100723CBF00F50000704700F029
:10041000004343F0FE4040F4000070477FEA226250
:1004200016BF08467FEA23630146420206BF5FEA21
:10043000412390EA010F40F4800070474FF0000321
:1004400004E000BF10F0004348BF40425FEA000CE8
:1004500008BF704743F0964301464FF000001CE090
:1004600050EA010208BF70474FF000030AE000BFE6
:1004700050EA010208BF704711F0004302D5404224
:1004800061EB41015FEA010C02BF84460146002096
:1004900043F0B64308BFA3F18053A3F50003BCFAB1
:1004A0008CF2083AA3EBC25310DB01FA02FC63445E
:1004B00000FA02FCC2F12002BCF1004F20FA02F265
:1004C00043EB020008BF20F00100704702F1200258
:1004D00001FA02FCC2F1200250EA4C0021FA02F2B9
:1004E00043EB020008BF20EADC7070474FF0FF0CBE
:1004F0001CEAD0521EBF1CEAD15392EA0C0F93EAB9
:100500000C0F6FD01A4480EA010C400218BF5FEA5A
:1005100041211ED04FF0006343EA501043EA5111CD
:10052000A0FB01310CF00040B1F5000F3EBF4900C7
:1005300041EAD3715B0040EA010062F17F02FD2ACB
:100540001DD8B3F1004F40EBC25008BF20F00100AE
:10055000704790F0000F0CF0004C08BF49024CEAC5
:10056000502040EA51207F3AC2BFD2F1FF0340EA57
:10057000C250704740F400004FF00003013A5DDCC8
:1005800012F1190FDCBF00F000407047C2F1000209
:10059000410021FA02F1C2F1200200FA02FC5FEAF6
:1005A000310040F1000053EA4C0308BF20EADC7040
:1005B000704792F0000F00F0004C02BF400010F4B2
:1005C000000F013AF9D040EA0C0093F0000F01F05F
:1005D000004C02BF490011F4000F013BF9D041EA81
:1005E0000C018FE70CEAD15392EA0C0F18BF93EA83
:1005F0000C0F0AD030F0004C18BF31F0004CD8D1AD
:1006000080EA010000F00040704790F0000F17BF33
:1006100090F0004F084691F0000F91F0004F14D079
:1006200092EA0C0F01D142020FD193EA0C0F03D1D1
:100630004B0218BF084608D180EA010000F00040D4
:1006400040F0FE4040F40000704740F0FE4040F4AF
:10065000400070474FF0FF0C1CEAD0521EBF1CEA4E
:10066000D15392EA0C0F93EA0C0F69D0A2EB03026C
:1006700080EA010C49024FEA402037D04FF0805306
:1006800043EA111143EA10130CF000408B4238BFCB
:100690005B0042F17D024FF4000C8B4224BF5B1AD9
:1006A00040EA0C00B3EB510F24BFA3EB510340EA27
:1006B0005C00B3EB910F24BFA3EB910340EA9C00D5
:1006C000B3EBD10F24BFA3EBD10340EADC001B0145
:1006D00018BF5FEA1C1CE0D1FD2A3FF650AF8B42E9
:1006E00040EBC25008BF20F0010070470CF0004CF6
:1006F0004CEA50207F32C2BFD2F1FF0340EAC25021
:10070000704740F400004FF00003013A37E792F0E1
:10071000000F00F0004C02BF400010F4000F013A3F
:10072000F9D040EA0C0093F0000F01F0004C02BF3A
:10073000490011F4000F013BF9D041EA0C0195E7A3
:100740000CEAD15392EA0C0F08D142027FF47DAF3C
:1007500093EA0C0F7FF470AF084676E793EA0C0F2C
:1007600004D14B023FF44CAF08466EE730F0004C2A
:1007700018BF31F0004CCAD130F000427FF45CAFBA
:1007800031F000437FF43CAF5FE700BF42000ED280
:10079000B2F1FE4F0BD34FF09E03B3EB126209D4BC
:1007A0004FEA002343F0004323FA02F070474FF072
:1007B0000000704712F1610F01D1420202D14FF0E7
:1007C000FF3070474FF00000704700BF7BB972B92F
:1007D0000029BEBF00204FF0004106E008BF0028FE
:1007E0001CBF6FF000414FF0FF3000F057B8ADF183
:1007F000080C6DE904CE002909DB002B1ADB00F0A0
:1008000069F8DDF804E0DDE9022304B070474042F6
:1008100061EB4101002B1BDB00F05CF8DDF804E02C
:10082000DDE9022304B0404261EB4101524263EB37
:1008300043037047524263EB430300F04BF8DDF88B
:1008400004E0DDE9022304B0404261EB410170475E
:10085000524263EB430300F03DF8DDF804E0DDE9CC
:10086000022304B0524263EB4303704753B94AB9C1
:10087000002908BF00281CBF4FF0FF314FF0FF30A8
:1008800000F00CB8ADF1080C6DE904CE00F022F8D0
:10089000DDF804E0DDE9022304B07047704700BFD3
:1008A00010F8012B11F8013B012A28BF9A42F7D01A
:1008B000D01A7047034611F8012B03F8012B002AC8
:1008C000F9D17047034613F8012B002AFBD1181AFF
:1008D000013870472DE9F04786468C460846089E49
:1008E000154674461946002B40F0C2808542B2FA84
:1008F00082F245D94AB1C2F1200300FA02FC2EFA75
:1009000003F3954043EA0C0C94404FEA154EA8B20D
:10091000BCFBFEF8230C0EFB18CC08FB00F943EAE5
:100920000C43994528D9EB1808F1FF3704D29945B3
:1009300002D9A8F102072B44A3EB0903A4B2B3FB2D
:10094000FEFC0EFB1C330CFB00F044EA0344A04207
:1009500014D92C190CF1FF3304D2A04202D9ACF106
:1009600002032C44241A43EA07401EB1D44000235A
:1009700034607360BDE8F0874746DDE76346F1E722
:1009800092BB431B01214FEA154EAFB2B3FBFEFCF5
:10099000200C0EFB1C330CFB07F840EA0343984580
:1009A00062D9EB180CF1FF3004D2984502D9ACF1B2
:1009B00002002B44A3EB0803A4B2B3FBFEFC0EFB26
:1009C0001C330CFB07F744EA0344A7424ED92C1909
:1009D0000CF1FF3304D2A74202D9ACF102032C443C
:1009E000E41B43EA0040C0E7C2F1200320FA03F110
:1009F000954090402EFA03F303434FEA154EAFB2F1
:100A0000B1FBFEFC0EFB1C10190C0CFB07F841EAB5
:100A10000041884504FA02F422D969180CF1FF302C
:100A200004D2884502D9ACF102002944A1EB0801A7
:100A30009BB2B1FBFEFC0EFB1C110CFB07F743EA5B
:100A400001439F420ED9EB180CF1FF3104D29F42B3
:100A500002D9ACF102012B44DB1B41EA004192E7D1
:100A60006046E3E76146F7E76046A3E76346B7E71A
:100A7000834206D916B9002108467BE7C6E900E0A3
:100A8000F9E7B3FA83F78FB9834201D3724508D8E7
:100A9000BEEB020460EB030301209C461EB900215B
:100AA00068E73846FAE7C6E9004CF8E7C7F1200CDA
:100AB000BB4022FA0CF41C432EFA0CF120FA0CF382
:100AC000B84001434FEA14490EFA07F5B3FBF9F8B1
:100AD0001FFA84FE09FB18300B0C08FB0EFA43EAE0
:100AE00000439A4502FA07F240D9E31808F1FF30B3
:100AF00004D29A4502D9A8F102002344A3EB0A03C9
:100B000089B2B3FBF9F809FB183308FB0EFE41EA82
:100B100003418E452CD9611808F1FF3304D28E456C
:100B200002D9A8F10203214443EA0040A0FB029845
:100B3000A1EB0E014145CE46434602D306D14D45B9
:100B400004D2B9EB020E68EB04030138002EA6D0E4
:100B5000B5EB0E0261EB030101FA0CFC22FA07F37C
:100B60004CEA0303F940C6E9003198E74046C5E77F
:100B70004346D9E7000000002DE9F047044688B05D
:100B80008846174612F0FAFA0A220023FFF76EFE93
:100B9000B8F1010F06460D4607D102460B46204626
:100BA00027490EF0BEF8002011E07F68254839463D
:100BB000FFF776FE70B139462348FFF771FE48B162
:100BC00020463A4621490EF0C8F86FF0040008B0FC
:100BD000BDE8F0873046294617A3D3E90023FFF785
:100BE000F5FD06460D4610461946194A0023FFF743
:100BF000EDFD80460F46104619464EF66022002352
:100C0000FFF7E4FD82468946104619464FF47A7292
:100C10000023FFF7DBFDCDE902A9CDE90623CDE9ED
:100C2000040132462B460B492046CDE900870EF0E1
:100C300078F8B8E7AFF30080005C260500000000FC
:100C4000C1530108D2530108D5530108DE530108EE
:100C500080EE3600F653010810B5074C237823B90F
:100C600006490EF05EF8002010BD05490EF059F857
:100C700000232370F7E700BF5A1B0024324D010800
:100C8000444D010870B5114E88B0054634782CB13A
:100C90000F490EF046F8002008B070BD0D490EF067
:100CA00040F801233370002200230B4904940B48C1
:100CB000CDE9062307234FF48052CDE90243CDE965
:100CC0000054074B0BF00EFCE5E700BF5A1B002455
:100CD000564D01086C4D0108C01B002498040024E7
:100CE000310D000830B5022385B004468DF80000B0
:100CF0008DF80110CDF804D002938DF80C300A481D
:100D000001A99DF80C30826843F002038DF80C3085
:100D1000182395680122A847021E03DA21460348DA
:100D20000DF0B9F905B030BD143901087E4D010848
:100D30002DE9F74307460126DFF8A080284DDFF8AC
:100D4000A49098F8003063B14FF4FA62002301A92F
:100D500048460BF02DF8041E12DA234938460DF0F0
:100D6000E0FF28688368032201211B699847021E5F
:100D700028DB1E49384603B0BDE8F0430DF0D1BF73
:100D800041F23811019800F0A5F9286841F23812B3
:100D900001998368DB689847041E05DA22461449E6
:100DA00038460DF0BEFFDCE756B1286883680022A4
:100DB00001211B699847041E02DA22460D49EFE71C
:100DC0000026BEE703210C480DF065F921460B48CB
:100DD00003B0BDE8F0430DF05EB900BF5A1B00241C
:100DE0001C11002438040024A64D0108FD4D010803
:100DF000C34D0108DD4D0108124E01083A4E0108AD
:100E000010B500F075F91B4800F048F81A4C1B4863
:100E1000206011F091FF20B91948BDE810400DF095
:100E20003AB90CF0B4FD174B002241F238114FF4DF
:100E300004701A704FF4FA63134AC2E903134AF6B6
:100E40004443C2E90003114B206893608368012189
:100E50001B689847002805DA0D480CF013FA0D4876
:100E60000DF019F942F2107000210BF045FE0A480E
:100E7000D3E700BF5C4E01081C110024283901088B
:100E8000694E01085A1B002408110024380400246C
:100E90007F4E01089E4E0108BE4E01082DE9F04F1D
:100EA000DFF8E091ADF50F7D774B8046484600AF07
:100EB000C9F80C30754E04F07BFFC3B2744D33702B
:100EC00063B12A68500704D0724A012128460DF008
:100ED000C6FC07F50F77BD46BDE8F08FD9F80CB01A
:100EE0005846FFF7EFFC04464046FFF7EBFC204472
:100EF000023004F03BFC0446B0B92B68590713D00C
:100F0000EA468AB06A46644BC2F81C80C2E9053BD7
:100F1000624B1362624B42F8103F4FF4215103467B
:100F2000284601F007F9D546D9F80C102046FFF7FE
:100F3000C1FC5C49204612F0E6FA4146204612F018
:100F4000E2FA01222146584804F062FDC3B2337030
:100F50005BB12A68520704D0544A01214C480DF075
:100F60007EFC204604F01CFCB3E72C2207F10C01A8
:100F70004D4804F0FDFD0422307007F10C004C498F
:100F800012F0DDFA38B904224A4907F1140012F0D0
:100F9000D6FA804658B12B685B0704D0464A012137
:100FA0003B480DF053FC404804F0C4FDD9E72B68E2
:100FB00003F00703022B25D9404A032134480DF0E2
:100FC00045FC2B6803F00703022B1BD97B6A3C4AC4
:100FD00003212F480DF043FC2B6803F00703022B7D
:100FE00010D97B8C374A032129480DF038FC2B6837
:100FF00003F00703022B05D9FB8D334A0321244854
:101000000DF02DFC0422314907F1300007F13809B9
:1010100012F095FA00BB0822391D234804F0A8FD00
:101020000C2230704946204804F0A2FDDFF860A091
:101030003070274E2B6803F00703022B06D939F9CD
:1010400018300321324650460DF009FC08F1010822
:10105000B8F1060FEED184E7D7F834B0DFF848A036
:10106000BBF1000FD7DDBBF5007F5A46494650461D
:1010700028BF4FF4007204F07BFD3070C0B2ABEBC0
:10108000000BEDE7000000244F4F01085B1B00241C
:10109000FC030024544F0108734F010800020103B0
:1010A000040000026652010834110024AC4F01080C
:1010B000C44F0108C94F0108CE4F0108E64F01088F
:1010C000F54F01080A500108195001082F50010876
:1010D000345001080A460146034808B504F048FDAB
:1010E000024B1870C0B208BD341100245B1B0024F1
:1010F0002DE9F3412748284E284DC66004F058FEDC
:10110000C3B22B7053B126480268520714D0254A47
:10111000012102B0BDE8F0410DF0A1BB31466846A7
:10112000CDE9003304F042FDC4B22C703CB122463C
:1011300031461D480CF0AFFF02B0BDE8F0813146EA
:101140001A4EDFF86C80771C1A480CF0A4FF174980
:10115000684604F093FDC0B2287080B9737873B10B
:101160003378012B05D1394613480CF094FF013434
:10117000EDE73269394640460CF08DFFF7E76846E7
:1011800004F0F4FD2B7803B92C70024804F0DAFE69
:10119000D2E700BF000000244F4F01085B1B002472
:1011A000FC030024544F01083D5001082011002485
:1011B00078500108585001086D5001082DE9F04F92
:1011C00091B0840705460E46009302F00403DDF853
:1011D00068900293C2F3C203039203F101030593E3
:1011E00040F0BA81041D30B1072909D86FF01B0007
:1011F00011B0BDE8F08F01F00706341DC6F10806F6
:10120000009B4FF000084FF0040A591E4FF0FF33C7
:101210004746C34601935346CDF810800DB1009A5E
:1012200022600598002800F3E8809848009A8242DE
:1012300003D397488242C0F0E080039AA4EB050EE6
:1012400092074FEA9E0000F103810F2F00F2B18058
:10125000002D00F0058107F140020DEB020C019A10
:101260000CF8200C0CF8102C049801300490E7E0E6
:101270007A285DD84B280ED8472859D829282DD848
:10128000252852D054D820287AD02338D0F1000B0A
:101290004BEB000B74E04C382E2849D8DFE800F007
:1012A0007048484848484848484848484B48484893
:1012B000484848484859484B4B595959704B6D4814
:1012C0007048184B184848827F4B48484B487F006D
:1012D00000204FF0000B4FF0040A38E02A380122BA
:1012E000C0B202FA00F010EA0E0F49D110F0625CB1
:1012F0002FD110EA020B43D06046013C5444B4FBAA
:10130000FAF40AFB04F4002D61D0A3EB050CA4440D
:10131000B4453FF66BAF002868D1042B47D159F88C
:10132000043B2360043404232AE0019A013A019229
:101330004FF0000B24E011F8010C6C2834D111F8A7
:10134000023C00206C2B8346C5D14FF0080A53465F
:10135000D3E709F10709073429F0070924F0070446
:10136000F9E802AB35B106982044B0423FF63EAFF3
:10137000C4E900AB08344FF0000B4FF0080A5346A5
:1013800011F8010F002878D0BBF1000F7FF470AF87
:101390002528F5D1019B4FF0010B013301934FF04C
:1013A000040AECE7584694E700208346A5E7082B9B
:1013B00002D06FF015001BE709F1070929F00709B2
:1013C000F9E80223C4E9002308340823D8E768B900
:1013D000042B02D109F10409A4E7082BE9D109F192
:1013E000070929F0070909F10809EDE7059A013A0B
:1013F000059259F8042B009210E7039A900720D524
:10140000A4EB050E4FF0010C4FEA9E00BEF5007FE5
:10141000CFD20F2FCDD8F5B107F14002C0B20DEBFE
:10142000020E019A0EF8200C0EF8102CBCF1000FE1
:101430003FF41AAF60F07F0008F101080EF8200CAD
:101440000137C5F1080204344FF6DA7E069297E7B9
:101450004FF0000CDAE7BCF1000F01D00136EFE7E6
:10146000029802360028EBD10098CDE90631FFF74B
:1014700029FA0644DDE90631E2E7631BB3F5806F24
:1014800097D23DB9A6F10804E018B1E698360108F4
:10149000F87701089B08029A28602B709DF810309D
:1014A000C2B1EB7085F80280B8F1000F05D008A832
:1014B0000022C5F1010C97420ED1C5F101030DF1D7
:1014C00020094FF0000A0DF1300B0193574512D15E
:1014D000601B8DE66B70E5E710F8013B190608D537
:1014E00004EB0C0E03F07F03B6453FF67FAE04F825
:1014F000013B0132DFE7B8F1000F03D099F900207A
:10150000002A17DB029BD3B11AF80B2004F8012B39
:101510000022019B98182044B0423FF667AE99F82C
:101520000000009904F8010B2046039211F0ABFF74
:10153000039A14440AF1010A09F10109C6E799F86E
:10154000002055F822300093029B009845F8223085
:10155000FFF7B8F9421CDCE76FF00D0048E600BF6A
:101560002DE9F04F97B00446894600AF90F802A0ED
:10157000D7F880B03B62CBF3C003FA62BB6141B9DC
:10158000457800780AEB800020444D4517D8A0EB41
:101590000409E378FB61BAF1000F02D01BF0010FE0
:1015A00016D1FB6953BBFB6A1BB13A6A4946204618
:1015B00098474D4628465C37BD46BDE8F08F461C2F
:1015C00009F101093046FFF77DF901303044DCE7CD
:1015D0002378626899007A62FA6A796104EB830180
:1015E000002A40F004814D460E4601EB0A094FF0F7
:1015F00000084E4550D101EB0A0610E01BF0020F27
:10160000D1D023789A0004EB83017A6162687A6210
:10161000FA6A002A7BD14D4601EB0A0690461BF080
:10162000050F0CBF02230123FB62FB6906EB430A93
:101630000BF00203BB625645BCD016F8021B16F82D
:10164000013C54F823909B4B994502D39A4B994502
:101650003AD3BB69002B44D0786A0CF0F5FC002823
:101660003FD09648036813F0060F13D0E9468AB0BE
:101670006A46934B53617B6AC2E906314FF40073AB
:101680001384904B42F8103F00234FF4125100F0A6
:1016900051FDCD46023DCEE716F8013BF96254F804
:1016A0002300FFF70FF9D7F884300130F96A4BB106
:1016B000D7F8883098453EBFD7F8843023F8180013
:1016C00008F10108054494E7BB6923B1786A0CF07E
:1016D000BBFC0028C5D11BF0010F05D1FB6AED1A38
:1016E000A9E7BB6A002BA6D04846FFF7EBF8D7F86E
:1016F000843053B1D7F8883098453FBF431CD7F8A2
:10170000842022F8183008F10108054493E7BAF163
:10171000000F72D01BF0040672D0D046002607F1ED
:10172000480052463B61B96211F0ADFEB96A3B69AF
:1017300001EB0A02F969BA62FA695200FA60BA6A00
:1017400002EB41023A610BF00202BA603A69B96AEF
:101750008A4257D11BF0020F62780CBF4FEA580142
:1017600000217A621BF0010F3244D2B240F09F8018
:101770001BF0040F14BF40460020BB616270A070D4
:101780002046E1703A6A7969FB6A9847051EFFF6C0
:1017900011AFBB6941463A6A07F1480023707B6A82
:1017A00084F802A06370FB69E370FB6A9847B0F1AC
:1017B0000008C0F2B5807B69A9EB0A013A6AC91A30
:1017C000FB68C91AD7E90A0398470028C0F2AA8023
:1017D000A8444FF0000B07F1380A08EB0005B345A9
:1017E00072D300213A6AFB6A08469847E2E65646F9
:1017F0004FF0000807F1380093E75646D04697E7C8
:10180000B04695E7BA6A12F8021B12F8015CBA6298
:1018100054F82500274A904202D3274A90421ED30B
:10182000BA6932B1786A7B600CF00EFC7B680028E4
:101830008CD1BA6802BB08F1280207F1300C08F11C
:10184000010008F10208944407F158025FFA88F891
:1018500052FA80F00CF8101C00F8105C76E7BA69B8
:101860003AB1786A7B600CF0EFFB7B6800287FF46C
:101870006DAF1BF0010F09D006F1280207F130000F
:10188000711C161806F8205CCEB25FE71BF0040F3F
:101890003FF45CAF08F1280207F1300008F10101C4
:1018A00002EB000808F8105C5FFA81F84EE70020B0
:1018B00063E700BF98360108F8770108AC030024FD
:1018C0009B500108040000011BF80A3054F82390D3
:1018D00087F83730D7F88430FBB133F81B803A6A89
:1018E000012107F13700FB6A984700281ADB0544FD
:1018F000B8F1000F06D14846FEF7E4FF00F10108F9
:101900001FFA88F83A6A41464846FB6A9847002819
:1019100008DB05440BF1010B61E7D7F88480DEE7B3
:10192000454647E6054645E6014B1860704700BF4F
:101930002400002480B505460E46174698460BF055
:10194000F7F8DFF82090034611F09CFE044642466B
:1019500049F8003039463046A84754F8090003F0EA
:101960003DFB00BF08000000044608B5EFF31183FB
:10197000102383F31288BFF36F8F03F0A1FC03F0F1
:1019800013FD0FF040FE204603F016FB02480CF05A
:1019900082FB0EF001FAFCE74F510108054B0020D5
:1019A0005A6822F002025A605A6822F001025A6014
:1019B000704700BF0010005C08B503F0DBFC03F0CB
:1019C00051FC104B104A1A60104BDA6822F00702E3
:1019D00042F00202DA609A6942F440429A619A69DE
:1019E0009204FCD50A4B1A6841F20303B3EB124F81
:1019F00006D1084AD2F8083143F00103C2F8083191
:101A000008BD00BF080300240090D003004802581E
:101A10000010005C008000512DE9F04704460746A5
:101A20004FF00109DFF8508014B93846BDE8F0875F
:101A300094FAA4F5B5FA85F509FA05F32E0108EB39
:101A400005156FEA030A24EA03042B7B002BEBD075
:101A500058F806301B694BB946440422284607EA69
:101A60000A077368196800F025FBDDE728469847E8
:101A70000028D9D1F0E700BF103F010830B500229F
:101A800089B00F490F4811F07BFB0022002300248E
:101A90000D4D0E4928460094CDE906230E234FF440
:101AA0004072CDE90334CDE90144094B0AF01AFD37
:101AB000084928460AF042FC204609B030BD00BF64
:101AC000D91A0008100A002450050024002C002414
:101AD000F91D0008A751010801480AF05FBA00BFCC
:101AE0007C0400242DE9F04780461E480F460CF088
:101AF0000BFE064678B300252846BDE8F087237B19
:101B00006BB12368DB680BB12046984723681B69DB
:101B1000CBB9636804222046196800F0CBFA01367D
:101B200010344C45EBD3B8F1000FE5D0002DE2D0D6
:101B30002846FFF771FF0546002FF7D000216420EB
:101B40000AF0DAFFF2E7204698470028E1D00AFAC7
:101B500006F31D43E3E7044C0546DFF810904FF011
:101B6000010ADEE79C130024103F0108203F010812
:101B700008B5034608462BB1044A136000F07CFD0B
:101B8000002008BD6FF01500FBE700BF280000240F
:101B900010B5044C237813B903480AF0FFF9012368
:101BA000237010BD5C1B00247C04002410B5044687
:101BB0000B480CF0A9FD5CB10A4BBFF35B8F53E8F7
:101BC000001F013943E80012002AF8D1BFF35B8FF0
:101BD000054811F0E1FA0548BDE810400AF0DEB909
:101BE0009413002498130024100A00247C04002479
:101BF0000020064BBFF35B8F014653E8000F43E81C
:101C00000012002AF9D1BFF35B8F704794130024B0
:101C100070B5FFF7EDFF084C0546084EB44200D3FF
:101C200070BD63685B792BB123685B6813B129468B
:101C3000204698471034F1E7103F0108203F010883
:101C400010B5044C044920460CF02CFB034B1C60DF
:101C500010BD00BF68030024384101088C13002424
:101C600008B5094A00234FF47A7108481370084AEE
:101C70001360084A1360FFF77BFFFFF7E1FFBDE841
:101C8000084000F067B900BF5D1B002423E700088F
:101C900094130024981300240146002200230148D5
:101CA0000CF021BB6803002401480CF0B7BB00BF57
:101CB00068030024024B014618680CF003BC00BF07
:101CC0008C13002401480CF038BC00BF68030024CA
:101CD000324B2DE9F041187800285DD0FFF7E4FF82
:101CE000044698B12E4BBFF35B8F53E8001F0139B8
:101CF00043E80012002AF8D12A4DBFF35B8FDFF8CA
:101D0000A880454526D32046FFF7D4FF274B284C13
:101D10001B68002B12DD11F031FA0A220023FEF7B6
:101D2000A5FDD4E90032C01A40F2E93361EB0201AB
:101D3000984271F1000101D3FFF76AFFD4E9003244
:101D400013F57A7342F10002C4E90032BDE8F041B4
:101D5000FFF7B8BF6B685B793BB121784B0706D5BD
:101D60002B68214628461B6898471035C9E7268806
:101D70002046C1F3C20700F0BDFAC6F38216024640
:101D8000002EEDD00028EBDB01233946284600F079
:101D9000ABF9B042E9D3E3E7BDE8F0815C1B002476
:101DA00098130024103F0108203F010894130024D9
:101DB000080A002470B50D4D297861B90C4C01203A
:101DC0000C4EFFF78FFEB44206D3FFF781FF0028C9
:101DD000FBD101232B7070BD63685B791BB1236855
:101DE00020469B6898471034EDE700BF5D1B002438
:101DF000103F0108203F010800212DE9F047084667
:101E0000FFF770FE044658B34FF4FA784FF000091C
:101E10001C4B11F037FC1C4A1B58136033B11B4B91
:101E20001B68092B02DD1A480AF0B8F80025194F83
:101E3000DFF85CA044B12046FFF7EEFD044618B978
:101E40004FF0FF384FF0FF39FFF742FF064628B941
:101E5000B5B942464B4650460AF0D6F83546E9E752
:101E60004FF0FF384FF0FF39D2E72B689B691BB169
:101E700000222846114698471035BD42F5D3E8E7C1
:101E8000054DFAE708000000901300249813002481
:101E90007C040024203F0108103F010813B51848B6
:101EA0000CF032FC174B1B7873B1EFF31184102345
:101EB00083F31288BFF36F8FFFF70AFF84F3118853
:101EC000BFF36F8F02B010BD0F4B1B68002BF9D012
:101ED00050B9002200230D48CDE9002342F21072D0
:101EE00000230BF0DDF8EDE70928EBD1074811F0EE
:101EF00053F9074802B0BDE810400AF04FB800BFE0
:101F0000981300245D1B002490130024100A002461
:101F10007C040024064B10B504461B6898472146F4
:101F2000A06004480CF05BFABDE81040FFF7B6BFB4
:101F30002800002468030024044A054B9B1AB1EBD7
:101F4000D30F34BF52F8310000207047683E0108BB
:101F5000103F01080B4800210B4B1B1A043030B511
:101F6000DB080A4C994200D130BD10F83120013114
:101F7000256802F0070225F007052A4344F8042BE0
:101F8000F0E700BF683E0108103F0108AC030024E1
:101F9000F8B50B4F06460B4D0024ED1BED08AC4287
:101FA00003D14FF0FF342046F8BD57F8340020B17C
:101FB0003146FEF775FC0028F5D00134EFE700BF8D
:101FC000683E0108103F010800282DE9F0478846C7
:101FD00015461F461DDADFF898904FF0000A254E8F
:101FE0005446A6EB09063609B24509F1100902D19B
:101FF0002046BDE8F08759F80C0C3B462A4641467E
:1020000000790AF1010AFFF7DFFF844238BF044676
:10201000EAE7194B194AD21AB5EBD20F25D203EBD6
:10202000C5031C79BC4228BF3C46C0B20722144EEF
:10203000002100EB400056F82530824023EA0203DD
:1020400004F0070282401343032223FA02F0033212
:1020500000F00700814238BF01461E2AF5D123F067
:1020600007030B4346F82530C2E70024DDE700BF35
:10207000103F0108203F0108683E0108103F010899
:10208000AC030024F8B5094D0646094B0F46002461
:10209000ED1AED08AC4200D3F8BD22B201343B4644
:1020A00000213046A4B20CF057FBF3E7103F0108C3
:1020B000683E010838B50B4B0D4611464268C31AFD
:1020C00004461B110133137143689971FFF7DAFF5E
:1020D000636801221D6063685A71BDE83840FFF7EC
:1020E00057BD00BF103F010870B14168097973B155
:1020F000002A17DBCBB20C4903EB430351F8220053
:10210000D84000F0070070474FF0FF31EFE7074974
:102110000748401AB2EBD00F3ABF01EBC201087971
:102120001846704704207047AC030024683E01083D
:10213000103F01082DE9F04F8FB0C1F34A280D463A
:10214000914604AF0C0DB8607B60B8F1000F67D00A
:10215000002607F114034FF0040B4FF00A0AC7F8EA
:102160000C8032467E624846C7E90766019307F154
:102170001C03CDF808B0CDF800A0F968FFF7F0F91E
:10218000B0F5006F034620D32A48036813F0060F0A
:1021900017D06C468AB0D9F8041004AB264D1A4605
:1021A000C3E9055140F2FF71D9614FF40071198400
:1021B000224B42F8103F4FF412513346FFF7BAFF5B
:1021C000A5462C37BD46BDE8F08FC0F30A0804F1E0
:1021D00017003B60184468F3532520F0070080087F
:1021E000FFF75AFD044690B13B6800F11001144A14
:1021F0004846F961C7E9083607F11403CDF808B07D
:10220000CDE900A307F11C03F968FFF7A9F968F30A
:1022100053257B68B96820462A460CF0C7FAD0E7F8
:1022200004F1170020F007008008FFF735FD044691
:10223000EDE700BFD8030024BC51010804000001F1
:1022400081E700082DE9F04F87B004469346984691
:102250000391DDE91279DDE9105ADFB13B465246C0
:1022600010210020CDF80090CDF81490FEF7A6FFC5
:10227000B0F5006F06460ED31C48036813F0060F36
:1022800030D040F2FF731A4A022107B0BDE8F04F88
:102290000CF0E5BA3E4604F0070405F117000BF018
:1022A000070BE400304444EA8B1420F0070044EAB2
:1022B0004624800844EA0554FFF7EEFC054640B189
:1022C0003FB13B46524631461030CDF80090FEF704
:1022D00075FF434622460399284607B0BDE8F04FF4
:1022E0000CF064BA07B0BDE8F08F00BFD80300243B
:1022F000FB510108406820B1034BC01A40F38F0026
:1023000070474FF0FF307047AC0300240EB403B5A4
:1023100003AB0146054853F8042B019303F0E8F999
:1023200002B05DF804EB03B0704700BFA9E80008F5
:10233000CA0605D48B064CBF02490349FFF7E6BF26
:10234000704700BF67560108335201082DE9F04F6E
:1023500089B09B4604460D46149B90469DF84CA0C0
:102360000693159B179E0593169B0493BAF1000FD5
:1023700000F09D8006F4807306F0020907930CF0CC
:10238000E9F9024600283ED091492046FFF7BEFFFA
:102390000746B9F1000F08D016F0440F35D12A4690
:1023A0008C492046FFF7B2FF074406F0010353B102
:1023B000894B2046894953F82A20894B002A08BFB7
:1023C0001A46FFF7A3FF06F48073002B49D006F0EE
:1023D0000803002B63D1B8F1000F66D04246814953
:1023E0002046FFF793FF0546069B3D44002B6DD129
:1023F000049B002B73D1F30700F1E48031462046A3
:10240000FFF796FFD8E00746C3E7774B1868002828
:10241000CAD0764B4FF47A794FF461614FF03C0C9F
:102420001B68B5FBF3F5B5FBF0F300FB135509FB97
:1024300005F5B3FBF1F2B5FBF0FE01FB123100FB39
:102440001E55B1FBFCF309FB05F50CFB1311B5FBA5
:10245000F0F5009120466649CDE901E5FFF756FF0A
:10246000A2E706F00803EBB1624B2046624953F83D
:102470002A20FFF74BFF0546B8F1000F05D0424672
:1024800058492046FFF742FF0544BBF1000FABD08F
:102490005A465A492046FFF739FF0544A4E74FF052
:1024A000000BE1E706F00805E6E745469CE7BBF1CF
:1024B000010F069B06D1002B64D1049B002B7BD01F
:1024C00000250CE0002BF8D04D485CE04D48069B01
:1024D00022464D490BF087FD049B002B68D0DFF8A6
:1024E0002C81DFF82C91049F4FF0000B31462046E1
:1024F000102F28BF1027FFF71BFF5D4545DC059B0C
:102500004FF0010B494620461A78FFF7FFFE1BF0FB
:10251000070F03D141462046FFF7F8FE5F453BD940
:10252000059B4946204613F80B20FFF7EFFE0BF101
:10253000010BBBF1100FEAD14FF0000B35492046DB
:10254000FFF7E4FE5A46059B20469A5CA2F1200163
:102550005F29314928BF2E22FFF7D8FE0BF1010B6E
:10256000BBF1100F1DD01BF0070F03D141462046D1
:10257000FFF7CCFE5F455A46E5D841462046FFF7B7
:10258000C5FEEBE71F485546A1E7414620460BF143
:10259000010BFFF7BBFEB0E720492046FFF7B6FE70
:1025A000C5E7059B3B440593049BDB1B04939AD131
:1025B000BAF1000F7FF41FAF204609B0BDE8F04F1D
:1025C0000CF065B9064A20460449FFF79FFE15E75F
:1025D0003B5201083F5201084C4101085057010885
:1025E0003652010864520108A4130024A0130024E9
:1025F0004852010860410108685201086E52010802
:10260000DFE80008A9E80008F1560008D8750108BD
:102610007352010879520108635D0108D6750108FB
:1026200042F20F73114A8B4273B5044628BF0B4622
:102630000568052168460AF045FE636806460B22D8
:1026400028465B680A490CF014F96368324669460B
:1026500028465B680CF00DF963681B2205495B682E
:1026600028460CF006F902B070BD00BF2B6D0108C2
:10267000975201087B52010800210123064A90422B
:1026800006D8064A01B901231360054B186070474C
:10269000400801215B00F2E740420F00A013002434
:1026A000A4130024014B036001207047744101080A
:1026B0002DE9F8430646FEF705F90546EFF31188C4
:1026C000102383F31288BFF36F8F114B1C68D3F86C
:1026D00004909C4208BF002434B988F31188BFF3EA
:1026E0006F8F2046BDE8F883A7683846FEF7EAF802
:1026F000A84206D12A463946304610F020FF00286D
:10270000EBD04C4501D02468E6E70024E5E700BFA4
:102710002C0000242DE9F0410E461546FFF7C8FFB6
:10272000044640B3C36833B31F6927B3062E07D0EE
:10273000072E23D02A4631463B46BDE8F0411847D4
:10274000838A3BB92A463146B84750B9A38A013338
:10275000A38206E04FF6FF72934204D00133A382B6
:102760000020BDE8F081164803685B0703D0154AD6
:1027700001210CF06BF86FF01500F2E745B12A78F3
:1027800032B10022314682822A461B699847E7E728
:10279000A38A012B08D12A4607212046B8470028E2
:1027A000DFD1A38A013BD3E70BB1013BD7E7044854
:1027B000036813F0060FDED0034A0221D9E700BFF9
:1027C000B0030024D3520108F552010810B50446A5
:1027D00008B1806850B9134803685A0703D0124AF9
:1027E00001210CF033F86FF0150010BDFFF760FF0A
:1027F00028B10C4803685B07F5D00C4AF0E7A082CB
:10280000EFF31181102383F31288BFF36F8F084B0E
:102810005A68C4E9003214605C6081F31188BFF328
:102820006F8FE2E7B0030024135301082C53010813
:102830002C00002410B5044606F0E2FC03490246D1
:1028400020460CF06EFA002010BD00BF6C5301084A
:1028500037B51346002205460A21019201AA58689D
:1028600001F0CEFB019C4CB920EAE0700A2180FB0C
:1028700001010AF041F9204603B030BD2246034968
:1028800028460CF06AFA019CF5E700BF985301084E
:10289000034A044908B50CF044FA002008BD00BF03
:1028A000885401088F5401082DE9F341174600238D
:1028B000044601AA0A21B868019301F0A1FB019D19
:1028C000C6B24DB12A46144920460CF046FA019D85
:1028D000284602B0BDE8F081042E09D932460F49DE
:1028E000204601250CF039FA20460CF071FAEFE78A
:1028F0007868FFF74DFBB0F1000804DA7A682046EB
:1029000007490CF02AFA002133460FFA88F20846EC
:102910000BF022FFDCE700BFBA540108E1540108C4
:10292000F854010810B5044606F04CFC074902466D
:1029300020460CF0F6F9204605490CF0F2F9214644
:1029400004480AF0B1F9002010BD00BF8A55010803
:10295000A95501085929000870B58EB004460D46E6
:10296000D0F89C6010F0D8FA224A034610F08AFE94
:102970001058214A2149002B18BF1A4623460092BD
:102980001F4A844218BF0A4628461E490CF0C9F95E
:1029900028461D49D4E90A23CDE9002394F90E30D5
:1029A000227B0CF0BEF906A92022204609F0D6FCB5
:1029B000636E0246154928460CF0B3F905A9204676
:1029C00010F0BAFA024628B1114928460CF0A9F9CC
:1029D0000EB070BD059B64222846F11A4A4300914F
:1029E0000C49B2FBF6F2CDE9016232460CF099F9DE
:1029F000EEE700BF08000000B3550108D8750108D4
:102A00003C670108B6550108C2550108EE5501089A
:102A10000556010832560108F0B591B0002504466C
:102A20001C2208AF294609A8144E10F054FD1A22A2
:102A30002021384610F04FFD214611480AF034F9A4
:102A400007AA4FF40061304610F06AFA079A64232F
:102A50002046C2F5006100974B43DB0A05934FF413
:102A60000063CDE90313CDE9013206492B46A6F1F7
:102A700040020CF056F9284611B0F0BDC0370024D2
:102A8000892A00088356010870B5044688B00D46AF
:102A9000D0F89C6007A910F04FFA024628B10F4900
:102AA00028460CF03EF908B070BD204610F034FA0C
:102AB000079B64220096F11A4A43B2FBF6F2CDE975
:102AC0000131074B0749002818BF03462846CDE9C6
:102AD000036222460CF025F9E5E700BF0556010820
:102AE000B3550108CC5601082DE9F04387B00546DF
:102AF0001A4F6846DFF8688008F068FF1423009ECC
:102B00000821184A03FB006628460CF0FDF8DFF8A0
:102B10005890009CB44203D3002007B0BDE8F08376
:102B200023680BB11A7832B923463A46142101A81A
:102B30000AF0C8FB01AB4246082128460CF0E4F835
:102B40002046143410F0F8F8084B094A08210028F0
:102B500008BF4B4628460CF0D7F8DBE74957010879
:102B60004E5701083F5701083657010830570108F2
:102B7000C25D01082DE9F04114468846074610223F
:102B8000002160680AF040FCB8F1020F064607D841
:102B90002023254A082138460CF0B6F8336816E0A1
:102BA0000A220021A0680AF02FFC1F4AC5B20821A2
:102BB00038462B460CF0A8F8B8F1030F1AD1102DA7
:102BC0000CD0202DEAD0082D0BD13378DBB2174A78
:102BD000082138460CF098F8002009E033889BB2B1
:102BE000F5E73846124A08210CF08EF86FF0150010
:102BF000BDE8F08110220021E0680AF005FC0D4AD2
:102C000003460446082138460CF07EF8102D06D005
:102C1000202D07D0082DE4D1E4B23470DCE7A4B253
:102C20003480D9E73460D7E782570108AD570108EF
:102C300097570108BE5701082DE9F04F4FF0FF35B7
:102C4000594B9146202601222C46DFF860A185B021
:102C5000074688461A6002F0B1FD49465246404692
:102C600002F0D0FD411C06D16A1C50D150493846B3
:102C70000CF073F81CE073281FD0772832D061283D
:102C800016D1DFF830B110220021DBF800000AF085
:102C9000BBFB05460028E0D1474B10F0F3FC1B5866
:102CA000162BDAD1DBF80020444938460CF055F8F1
:102CB0006FF0150005B0BDE8F08F0022DFF8F4B02A
:102CC0001146DBF800000AF09FFB04460028C4D13F
:102CD000394B10F0D7FC1B58162BBED1DBF8002067
:102CE0003749E2E70022DFF8CCB01146DBF80000FC
:102CF0000AF08AFB06460028AFD12F4B10F0C2FC29
:102D00001B58162BA9D1DBF800202E49CDE7631CF8
:102D100001D12D49ABE75FFA86F8C6F3C406002C53
:102D20003FD06B462946A6EB050C1A460CE0B8F1DD
:102D3000100F1DD0B8F1200F20D0B8F1080F2AD104
:102D40000878187031443344A64203D80CEB0100D4
:102D50001028ECD9102CA1462946384628BF4FF040
:102D6000100910354B46A4EB090401F021F8D6E711
:102D7000088880B21870000A5870E3E708684FEAC4
:102D8000102E187083F801E04FEA104E000E83F801
:102D900002E0D870D6E70D4A082138460BF0B4FFA0
:102DA00086E7204686E700BFB40000240C580108DF
:102DB00013580108601600240C000000D2570108C7
:102DC000E5570108F85701083058010897570108DE
:102DD00070B50F4E04460D46337871B123B10D49DD
:102DE000BDE870400BF0B9BF012333700A4920469B
:102DF0000BF097FF0123337004E083F0010333707D
:102E0000002BF3D129462046BDE870400BF0FDBFF2
:102E10005E1B00244A5801088558010870B5044615
:102E20003B480378182B02D10B78112B31D0013A93
:102E30000B468D18AB4225D18B5C0A780370A2F14A
:102E40003003344C092B04D922F02003413B052BDD
:102E500004D823683049CA54013323602368022B05
:102E600033D1102200212C480AF0CEFA2B4A1368E5
:102E700003F8010B13602A4A13680133136000231F
:102E8000236022E013F8016B182ED3D11E78112E87
:102E9000D0D1234D204623492A680BF042FF20461B
:102EA0000021FFF795FF204B187870B91F4A2B6857
:102EB0001168042B0ADC08B111602B6013F00301C8
:102EC0000BD1126813681BBA136070BD0868043B0D
:102ED00000BA41F8040B0120EBE75B4203F0030367
:102EE00058BF5942022904D1126813885BBA9BB2B9
:102EF000EAE70329E9D1106802681104C2F3074325
:102F000002F47F4201F47F010B4313430360DCE7CB
:102F10005F1B0024A8130024611B0024B4130024A9
:102F2000AC130024AF580108601B0024B013002428
:102F30002DE9F84F00230C462A490646DFF8A88001
:102F400015460B60DFF8A4902949DFF8A8B088F88F
:102F500000300B60012C2F4655F804AF1ED9022219
:102F60004946504610F0EBFA80B99AF80220003A30
:102F700018BF0122924420490222504610F0DFFA85
:102F800030B9012388F80030013CE3E70022F1E783
:102F900049465046FDF784FCA8B9043700227868FA
:102FA00011460AF0BBF90022144B114618607868EC
:102FB0000AF0B4F9124B134918603046FFF708FFC6
:102FC0000020BDE8F88F9AF800202D2AE6D19AF863
:102FD0000120002AE2D05246594630460BF0A1FEAD
:102FE000D2E700BFA8130024601B0024C9580108C1
:102FF000AC130024CF580108CC580108B4130024A6
:10300000B01300241D2E000807B50A480FF094FEE7
:1030100060B10423084A0749009301231268074856
:1030200000F02CFF002003B05DF804FB6FF01200ED
:10303000F9E700BFEC3801086C420108203F0108A5
:1030400010B54468A3604023C4E900124268082117
:10305000D36402F15803D16202F1500113630023DB
:10306000146853631364116153611362C2F8D03062
:10307000C2E90E33C2E91133C2E90633C2E90933AA
:10308000A36823B19B6C13B1044920469847A368F9
:103090009B6A0BB120469847002010BDA130000864
:1030A0002DE9F74304460D4683685B6C03B19847EE
:1030B000A3685B6B0BBB4FF0000905F13008EA6CAD
:1030C00001A940460BF052FA0746002836D0A36803
:1030D00001999B693BB3024620469847064628B3B0
:1030E000314640460BF062FAB7424FF00109E6D094
:1030F000D5E901310020984703E020469847002891
:10310000D9D1A3685B6A63BB05F11007EA6A01A91C
:1031100038460BF07FFA064650BB20460BF077FC92
:10312000C5F8D0602FE06FF05706D9E7014640465A
:103130000BF03CFAB9F1000FE3D0D9E71648036869
:1031400013F0060F03D0154A02210BF07FFBA36892
:103150009B69002BEED001220DF103012046984718
:10316000E8E7204698470028CED103B0BDE8F083B9
:10317000A36801995B695BB1024620469847014606
:1031800038460BF066FA0120D5E901319847ECE7A3
:103190006FF05701F4E700BFEC030024365A010832
:1031A00010B581680446183101F05EF9A168204627
:1031B000024A1831BDE8104001F0FCB8785A010805
:1031C00038B583680446D3F87831DB071DD4C0696D
:1031D0000CF040FB606803685B689847054620B9BF
:1031E000E0680CF00BFDA3681D75A3685B6C13B160
:1031F000294620469847A368002210F043FAC3F8F6
:103200002022034B185801F0E9FE6FF00F05ECE7A0
:103210000800000001490BF098BC00BF6756010888
:10322000F7B5044680680D46D0F878315A0705D5C1
:1032300000210BF0B2FCE0680CF0B2FCE368DB6844
:1032400073B9002D3BD0A66806F1560738460BF03F
:1032500089FC002835D0394606F1D600FDF72AFB57
:10326000A2680DF106032946E06856320CF09BFC7B
:1032700058B9A06800F1D6015630FDF71BFBA068D5
:1032800056300BF06FFCADF8060020460CF0AEF89F
:10329000A368D3F874319B0603D50B4960690BF022
:1032A00054FC204600F014FFA268BDF8063020460A
:1032B000A2F85230A268A2F850300BF0FDFF03B024
:1032C000F0BD86F8D600CBE7904001082DE9F04F1D
:1032D000A7B004465422002111A810F0FCF80023E6
:1032E0002046CDE90533A368563302930CF085F8E8
:1032F00020460BF0CAFF10B96069FFF78BFFA0688A
:1033000014220021002618304FF0FF3710F0E3F8A8
:1033100020460BF061FFA168E068B246B1F850208A
:103320000DF144085631B3463546B1460CF072FCF7
:1033300020460CF0F1FC0396DDE90532012A6DD040
:10334000132B6ED85FBBBBF1000F0AD020460CF0E8
:1033500000FDA268142311A956320DEB03000BF0F7
:10336000BAFDB9F1000F0CD099F81130FE2B08D13D
:10337000059B26AA02EB830252F8542C0AB10133B2
:103380000593A068059D436A002B40F0B680CEB13E
:10339000C3699E422DD000F118050D9624E002234A
:1033A000029A414606A80BF096FDD8F8042006992B
:1033B0000346029231B101290AD148B16D4A204633
:1033C0000CF0CCF86FF00705284627B0BDE8F08F69
:1033D000059B002B34D0D8F8000001F065F898B1B7
:1033E00066B1A5680D9618350CAE0FCE0FC53368C3
:1033F0002B6020460125FFF7D3FEE5E75E4A012159
:1034000020460CF0ABF8DDE7059BCBB1D8F80020E7
:103410002946204601F0E4F9022809D1059B132B27
:1034200091D9069B022B8ED1544B0121544AC6E7F9
:10343000032805D0059B4FF0010B013305937BE773
:10344000039B33B907AAD8F8001048460BF03AFEA0
:10345000054608F10408013F9DB3EB68BBF1000F7E
:1034600008D0F3B120460BF0C8FF20460BF024FF34
:10347000444AC4E7ABB1A368AE46DDF814A003F13B
:10348000180CBEE80F00ACE80F00DEF80030CCF8F6
:103490000030AB682BB96B7CFE2B04BF2F7C07F18F
:1034A000FF37D5F804C0BCF1000F08D0AE460CAE13
:1034B000BEE80F000FC6DEF8003033606646A9464E
:1034C00003E0059B53B101230393069B17B9022B1D
:1034D0007FF432AF059B013305932DE7A368DB6AC8
:1034E00013B1DB68002BEED1274B0121274A204680
:1034F0000093119B0CF032F8E5E790F82830A5EB2B
:103500000A05BBB190F829104FF6FF72FF2918BFCA
:103510000A469D4202D313449D420BD9836901217F
:103520001B4A20460CF01AF820466FF01505FFF7ED
:1035300037FE49E701210BF025FBA06800F5037079
:103540000BF044FBA36811AA29465B6A204602EBF4
:103550008A0298470546A0684FF0FF324FF0FF33CC
:1035600000F503700BF0D9FA0021A0680BF00AFBFC
:103570002AE700BF865A01089A5A0108FB5A010837
:1035800013550108B85A0108E75A0108EF5D010810
:103590001F5B010810B50222836804461A75836810
:1035A0009B6CBBB90BF090FA8368D3F87831DB04DD
:1035B0000BD50321084B094A0BF0D0FFA0686FF42C
:1035C000805100F5BC700BF099FA2046BDE8104020
:1035D00000F0D2BE10BD00BF3A5B01085057010891
:1035E0002DE9F04F04468068B1B0012100F5BC70B0
:1035F0000BF075FAA3681B7D022B20D100230993E1
:10360000A36860689E6C03681D6909AB0EB3102245
:103610001BA9A847099B93B10121A0680BF0B2FA3E
:10362000099A1BA92046B0470021A0680BF0AAFA0E
:10363000A3689B6C002BE3D12046FFF7ABFFA0688B
:103640006FF0010100F5BC7031B0BDE8F04F0BF038
:1036500055BA01220DF12301A847099B002BEED09A
:103660009DF923209DF82310002AA368C8DB5A7D0A
:10367000032A00F29482DFE812F00400810298022B
:1036800092020D297CD00A2958D0B3F87821092953
:103690006FF3CA02A3F87821A06800F086803DD8B5
:1036A0000029ADD0082900F0F8810346D3F8742131
:1036B0009207A5D501391629A2D801A252F821F006
:1036C0004D3C0008D53A0008DD3A0008CD3A000824
:1036D000413C0008FB3A00080136000801360008AA
:1036E0000136000801360008033B00080B3B0008C8
:1036F00001360008353B0008013600083F3B000852
:1037000001360008013600080136000801360008BD
:10371000433B0008013600086D3B00081B2941D0DF
:103720007F2900F0C681A1F1200203465E2ABDD8A0
:1037300001210BF032FA9DF82310B7E0D3F878217D
:10374000C2F3C7022AB1D3F87821C2F3C7020A2A0A
:10375000ACD1B3F8782161F3CA02A3F87821A56847
:10376000B5F85010C1B928460BF017FAE0680CF014
:1037700017FA6069FFF74EFD2046FFF70BFF3FE7A2
:10378000D3F87821C2F3C702002AE2D0D3F8782117
:10379000C2F3C7020D2ADBE72046FFF797FDC5F805
:1037A0002402E9E7012343752AE7D0F874319B0727
:1037B0007FF526AF01210BF0F0F9A068B0F850308A
:1037C0007F2B3FF41DAFB0F8522000F15601D630E8
:1037D00000250FF058FEA3681BA90BA8B3F85220D0
:1037E000134483F8D6501423A268D6320BF073FB2F
:1037F0000B9914293FF604AF30AB03EB810343F878
:10380000545CA368B3F85220002A53D0134493F8B1
:103810005530202B02D0093B042B4BD800294CD12A
:1038200000250A9530AA0A9B002602EB8303B346C3
:10383000B04653F854AC374650460BF093F98146E6
:1038400016AA3946284600F0A1FB0346002840D1BD
:10385000012EA76865D130AA0A9B02EB830353F8B7
:10386000540C0BF07FF907F1180206464146284632
:1038700000F08CFB056828460BF074F9864205D0F1
:10388000821BA919204692B20BF0AFFEA068B0F8D7
:103890005230034493F85630202B31D0093B042B8F
:1038A0002ED9D0F87431DF072FD42021204600F024
:1038B0002BFDA5E60129B3D9013900200CAB1BAAC9
:1038C00000930AAB01900BF029FC05460028A9D112
:1038D00096E61B684A465146184603930FF02FFEA2
:1038E00060B9039B1846FCF7EDFF584538BF5846B2
:1038F000002E08BFB84601361FFA80FB01379FE74C
:10390000012120460BF00CFD7AE600210BF04FF967
:103910002021204600F0F8FC0121A0680BF047F9B7
:103920006EE604907FF66CAE30AB0A9AC14603EBAC
:10393000820252F8543C184603930BF013F9049B8F
:103940000590A7F840300496A2684946284609F138
:103950000109183200F01AFB039BD0F800A04BB10C
:10396000BAF1000F06D0059A194650460FF0E7FD50
:103970000028E9D1A168BAF1000F4CD1A1F840A00C
:10398000049B013B0493DFD1606908F1010AFFF752
:1039900041FC204600F0F0FC30AA0A9B02EB8303B6
:1039A00053F8540C0BF0DEF8414611AA8146284624
:1039B00000F0ECFA0746A0687F223968D6300FF095
:1039C000D0FD3B684FF6FF770393B84616AA5146E1
:1039D00028460AF1010B00F0D9FA002851D0A1685D
:1039E00000220368D53111F801EF985C704503D1CE
:1039F00010B101324245F6D1B9F1000F01D04A456C
:103A000007DBBA4206F1FF36A8BF3A46012E97B24D
:103A100037D0DA46DAE7994806910BF0A3F8069911
:103A200000EB0B074A8FBFB20791121A504692FB68
:103A3000F7F292B206920BF095F807993F1A069AA0
:103A4000B1F84000BFB200F1010CA1F840C0B0FBDA
:103A5000F2F102FB110080B260B9884B0621884A5E
:103A60002046CDF800A00BF079FD3946204600F045
:103A700019FB85E75346834A062120460BF06EFD6D
:103A8000F3E7002F3FF4BCADA7EB090203992046F2
:103A900092B249440BF0A9FDB2E5D0F874319E070B
:103AA0007FF5AEAD01210BF078F820460BF0BEFD9E
:103AB000A6E5D0F874319D077FF5A2AD01210BF08A
:103AC0006CF8A368D3F874311907EED420460BF0D4
:103AD0008EFD95E520460BF099FC91E520460BF014
:103AE0008CFC20460BF0D1FB10B96069FFF792FB0C
:103AF0000121A0680BF051F83EE620460BF08FFC48
:103B00007EE520460BF096FC7AE5D3F874319B06EF
:103B100003D55D4960690BF018F8A368D3F87431D8
:103B20009F0603D5594960690BF00FF8204600F055
:103B300023FC65E500212046FFF772FB60E50121CB
:103B4000F9E720460BF052FC20460AF0BDFF0121A8
:103B5000A0680BF022F8A368D3F874319E067FF5B5
:103B60004FAD4B4960690AF0F0FF49E5204600F08F
:103B700029FB0121A0680BF010F841E55B2902D177
:103B800002225A753CE5D3F874319D0706D56229A7
:103B900007D14FF0FF3120460BF0EAFBA36800226B
:103BA000EFE76629FAD10121F5E700225A75A268EC
:103BB000D2F8743198077FF523ADA1F131031B2BA7
:103BC0003FF61EAD01A151F823F000BF493C0008AB
:103BD000553C0008693C00083D3C000801360008DF
:103BE00001360008013600080136000801360008D9
:103BF00001360008013600080136000801360008C9
:103C00000136000801360008013600083F3B000875
:103C1000353B0008FB3A0008D53A00080136000899
:103C2000413C0008013600084D3C00080136000800
:103C30000136000801360008593C0008032353757B
:103C400020460BF0DAFBDBE40323537520460BF030
:103C5000CDFBD5E403235375A068D0F8741101F0AF
:103C6000010181F0010159E603235375A368D3F8DC
:103C700074319B077FF5C4AC28E700BFD7750108F6
:103C80007E5B010850570108954001089A400108E1
:103C9000904001082DE9F04104468068154600F582
:103CA000BC70002937D04FF480410AF018FFA36898
:103CB0000021DD64606803689B68984700284BD149
:103CC00020460AF0A9FF002846D1244E244FDFF8F1
:103CD0009480A06800F5DE704FF0FF324FF0FF33A4
:103CE000032109F017FA0546A0684FF0FF324FF0A4
:103CF000FF3300F503709DB10AF00FFF20462B46FD
:103D0000194A01210BF02AFCA068BDE8F04100F53A
:103D100003700AF05BBF6FF480410AF0EFFEC6E764
:103D20000AF0FBFE3246022120460AF0F8FE3A462F
:103D3000294620460AF0F3FE2046424601210AF0B9
:103D4000EEFE606803685B6903B19847A06800F500
:103D500003700AF03BFFBCE7BDE8F081C131000809
:103D6000E1350008D1EB0008845B010810B504467A
:103D70000A490AF0D6FF0A4920460AF0D2FF204637
:103D800008490AF0CEFF204607490AF0CAFF20463C
:103D9000064A002100F00EFB002010BD9B5B0108CD
:103DA000D95B0108385C01088C5C0108265D0108BC
:103DB000F8B51E4617460A46294904460AF0B1FFDF
:103DC0003EB301253A78274920460AF0AAFF6A0740
:103DD00003D1254920460AF0A4FFAE421ED97A5DE0
:103DE000204620490AF09DFF0135102DEFD11F49D3
:103DF00020460AF096FFB6B901251B4920460AF075
:103E000090FFAE422B4610D8174920460AF089FF92
:103E100015E00125164920460AF083FF1449204683
:103E20000AF07FFFE0E700252B46FA5C20461149A7
:103E3000A2F120035F2B28BF2E220AF072FF01356A
:103E4000102D06D06B07DCD1074920460AF069FF28
:103E5000D7E720460849BDE8F8400AF062BF00BF36
:103E60003C5D010873520108D875010879520108B8
:103E7000D6750108635D0108435D01082DE9F04333
:103E800004468068884689B0D0F8201215461F463F
:103E9000002960D14FF40A720FF01DFBE0680BF0AF
:103EA00021FFA06800F503704FF4DE794FF4BE7671
:103EB0000EF0D7FFA06830440FF0D0FAA0680022BF
:103EC000012183191036484409F114090FF09DFAB5
:103ED000B6F5DE7FEED1A369002602211E6066F3EF
:103EE0008205A06800F5BC700AF0F9FDA3685022B5
:103EF00020465A871822A3681A8721680AF03BFFD8
:103F0000A368164A4146C3F87451606803681D6887
:103F10002346A8470546D0B9A36801221A75D4E9FB
:103F20000A010022002304950094CDE906230E2304
:103F30004FF400620393109BCDE90173084B08F026
:103F4000D1FAA368C3F82002616A08F0F7F928469D
:103F500009B0BDE8F0836FF07705F8E771EB000872
:103F6000953C000810B5044613460A46014606482B
:103F700001F0BEFB23691B7923B12046BDE8104048
:103F80000AF049BF10BD00BF2FEE000838B50B4640
:103F9000154648B91449154A521AB3EB920F05D287
:103FA00051F82350284638BD84680CB90025F9E73C
:103FB0000F4A94420AD30F4A944207D21846226805
:103FC000294690472B68002BECD1EFE70A4A944230
:103FD00002D30A4A944205D3246814225343E518B5
:103FE000E358F0E70133F8E7503F0108803F01084C
:103FF0007040010870400108803F010870400108CE
:10400000F7B516460278002304462D2A019305D100
:104010006FF015030020336003B0F0BD0C4F0FF0BC
:1040200031FB05460A46C35101A9204609F0ECF9C7
:10403000EB59222B02D16FF02103EBE7002BE7D1E4
:10404000019BA342E4D01B78002BE5D0E0E700BF42
:104050000C0000008368D3F874319B0603D5024935
:1040600040690BF0F3B87047A040010801490BF01C
:10407000EDB800BF675601080A1E0DDC0ED04223C2
:104080008168D1F87411890608D5002A044940696D
:10409000B8BF52420BF0DAB84123F1E7704700BFD6
:1040A0005F5D01080A1E0DDC0ED044238168D1F843
:1040B0007411890608D5002A04494069B8BF5242E4
:1040C0000BF0C4B84323F1E7704700BF5F5D010800
:1040D0002DE9F04785680446DFF8649005F1560045
:1040E000FCF7F0FB002386B295F83C709846A26876
:1040F000558FED1BB54209DB002E1FDD563360697D
:1041000010491A44BDE8F0470BF0A0B81D445633DF
:1041100049462A4492F856A082F85680A2686069FF
:104120001A440BF093F8A3682B4483F856A0A368B5
:104130005B8FDB1B0027F61A2B46D8E7BDE8F0871C
:10414000135501085057010808290A4617D88368F3
:1041500093F83E10914212D083F83E20082A8368DB
:10416000D3F8743105D0990609D5054940690BF09B
:104170006DB89B0603D5034940690BF067B87047DB
:10418000665D0108A540010838B50D46097804466A
:10419000FFF7DAFF6A78072A11D8A36893F83F106F
:1041A00091420CD083F83F20A368D3F874319B066A
:1041B00005D560690249BDE838400BF047B838BD05
:1041C0006F5D0108F8B583680446B3F85020002AF3
:1041D00055D0B3F85210002951D0553103F156058E
:1041E0000B441846A84206D3014611F80169202E57
:1041F0003CD0A8423CD286B2471C9DB2AB1B9BB2BE
:10420000591CD21A014438460FF04BF9A268711BB1
:104210002046B2F8503013FA81F309B2A2F85030B8
:10422000A368B3F850201344002283F856200BF003
:1042300077F8A368D3F874319A0603D510496069FA
:104240000BF004F83B460F4A082120460BF086F994
:104250002046FFF7FFFEA368D3F874319B060ED506
:1042600060690949BDE8F8400AF0F0BF0846B9E7BF
:10427000014611F80169202EBDD00846B9E7F8BD06
:10428000AA40010850570108AE4001082DE9F0414D
:1042900004460D4617460AB1FFF7DCFEA368B3F8E3
:1042A0005220D3F87411563213444A0721D51846C8
:1042B000DFF84C80FCF706FB0646A6B9A368B3F806
:1042C0005020A3F85220A0680AF0CDFF20B107B11A
:1042D00015B16069FFF7CAFE6942204609B2BDE820
:1042E000F0410BF01DB841466069013E0AF0AEFF97
:1042F000E3E7044A082120460BF030F9DEE700BF6F
:104300003C6701085057010813B5836804468DF8CF
:104310000710D3F87421D00725D5B3F85210B3F89D
:1043200050208A421FD0481C9DF80720A3F8520055
:104330000B4483F85620A368D3F87411890710D56D
:10434000D3F87431606913F0040F0A4918BF2A22A8
:104350000AF07CFF20460AF098FF10B16069FFF771
:1043600085FE02B010BD01220DF1070120460BF0C1
:1043700002F9F6E7635D010810B504468368094A4F
:1043800002210BF0EBF8A368D3F874319B0707D533
:104390002046FFF79DFE2046BDE810400AF09BBF77
:1043A00010BD00BF5057010801490BF0C8BA00BF4B
:1043B000675601082DE9F04F0E46002189B00446EA
:1043C00017460D4603AA304601F10108FFF7DEFD4E
:1043D000B0B995B127B13A46082120460BF0BEF896
:1043E00000211E4FDFF87890DFF878A003AA30464E
:1043F00001F10108FFF7CAFD60B909B0BDE8F08F0F
:10440000006810B1FCF75EFA80B28542414638BFC1
:104410000546D7E703688BB11A787AB1D0F804B0B3
:104420004A4608212046CDE900533B460BF096F85A
:10443000BBF1000F04D16069FFF7B6FF4146D5E735
:10444000524620463B4608210BF088F8AA1D5946E3
:10445000204692B20BF080FAF0E700BF8D5D0108B4
:10446000785D01086E520108F7B50F6805460E46E3
:10447000A7B13846FCF726FA84B2094B2846094A08
:10448000082100933B460BF069F8E21C716828464E
:1044900092B203B0BDE8F0400BF05EBA3C46ECE7E8
:1044A000895D01087F5B010810B507490446FCF7E8
:1044B000F7F938B105492046FCF7F2F9B0FA80F077
:1044C000400910BD0120FCE77F5D0108825D010805
:1044D00010B583680446D3F874319B0603D50649AA
:1044E00040690BF0B0FAA368502200205A871822C6
:1044F000A3681A8710BD00BFB240010808B58369E0
:1045000002491A680AF00DFC002008BD905D010800
:104510002DE9F3410E4905460E4C0AF002FC0E4E01
:104520000022DFF83880B44202F1010703D30020F3
:1045300002B0BDE8F081636A92B24146284600931A
:10454000303454F8283C0AF0ECFB3A46EBE700BF65
:10455000A05D0108203F0108503F0108B85D010837
:10456000024908B50AF007FC002008BD685601089A
:1045700073B5044600250C4EA2680DF10603012117
:10458000E068D6320BF00FFBBDF80600A36838B127
:104590002A46D6333146204601350AF0C2FBEBE706
:1045A00083F8D60002B070BDC95D010810B504469D
:1045B0000AF023FC0349024620460AF0B2FB002021
:1045C00010BD00BFA24D0108022907B50BD15368E9
:1045D0000C4900930C4B12680AF0BFFB6FF01500FA
:1045E00003B05DF804FB8368084AD3F874310849C6
:1045F00013F0020F074B18BF1A460AF092FB002077
:10460000EEE700BFEC5D0108D75D0108D35D01084E
:10461000F55D0108A754010810B583680446D3F876
:1046200074319A0603D5074940690BF00CFAA36868
:10463000D3F874319B0603D5034960690BF003FA84
:10464000002010BDB9400108BE4001080129F0B5A5
:10465000044685B00AD053685B4900935B4B1268EF
:104660000AF07BFB6FF0150005B0F0BD8368D3F84E
:104670007431990603D5564940690BF0E4F96FF09F
:10468000F9012046FFF7F8FCFA2120460025FFF744
:1046900009FDA06880222946D6308DF80B504FF4D2
:1046A0007A760EF018FF4B4960690BF0CCF960691F
:1046B0000AF0B1FB606801220DF10B0103681F696C
:1046C00003ABB847039BEBB9013E4FF47A700EF091
:1046D00023FBB6B2002EEDD1A368D3F874319B064C
:1046E00003D53D4960690BF0AEF9A368502220461E
:1046F0003A495A871822A3681A870AF020FB6FF0FC
:104700000700B1E79DF80B20A3681B2A4FD093F850
:10471000D6101B29CED1522A49D15A19002382F82A
:10472000D630A66896F8D7205B2A29D106F1D700A3
:10473000022510F8011F2A4601353B29ADB222D1CE
:104740007F2AC9D0D63216FA82F1002211F8010F61
:1047500010BBFA2A86F8D600A16828BFFA22FA2BE5
:104760004A8728BFFA23A2681387A368D3F8743155
:104770009A0603D5184960690BF065F9002073E7C4
:1047800086F8D630A8E703EB83033039802D01EBA0
:1047900043018BB2CDD19FE7013502EB8202303865
:1047A000ADB200EB4200802D82B2CFD194E72B4412
:1047B0000135ADB283F8D620092D7FF67BAFA36813
:1047C000002283F8D62087E7EC5D0108D75D010859
:1047D000C4400108405E0108C8400108065E0108A7
:1047E0002DE9F04F074689B01546894621B110469C
:1047F0000BF07EFA00285AD1032454E05C463CE0DA
:1048000029460AF1D6000EF0C8FE0646002853D00D
:10481000FCF758F8314682B2601C08F101080132F9
:1048200030440EF03EFE2246594630460EF02BFE36
:104830004FF020033355BAF8543001331C44AAF822
:104840005440002401994B1C03AA48460193FFF7EA
:104850009DFB0646E8B10022316828460BF0EAFBD2
:104860000028EFD1D6F800B0D7F808A0BBF1000FB0
:10487000C4D05846FCF726F884B2BAF85430234422
:104880007F2BBDDD01242B460C4A032138460AF05C
:1048900065FEB8F1000F06D0B8682A4600F1540151
:1048A000D6300AF0E8FB204609B0BDE8F08F4FF0A3
:1048B000000802244146C6E70224EAE70063010833
:1048C0002DE9F843054600AF0C46002948D0DFF833
:1048D000B890D9F800305A0742D06E468AB0A36823
:1048E0006A46D1E90001DFF8A4C04FF00508C2E92B
:1048F00005C0C2E9071342F8108F00234FF421517D
:104900004846FDF717FCD9F80030B5465B0727D0BD
:104910008AB06369D4E903016A46DFF874C0C2E96A
:104920000713C2E905C042F8108F002348464FF430
:104930002151FDF7FFFBD9F80030B54658070FD0DD
:10494000E3690121134A484609F089FFD9F800308C
:10495000590705D0A369104A0121484609F07FFF95
:10496000012D0AD1EFF3058307480268520704D0EE
:104970000A4A103B294609F072FF2146284607F0F3
:1049800045F8BD46BDE8F883E403002452630108FE
:1049900081630108B0630108BF630108ED6301088A
:1049A00008B5034B1B689847BDE8084000F026B8DF
:1049B0007400002430BFFFF7FDBF00BF2DE9F041B8
:1049C0000B4E0546DFF82C80324606EB0807CC1B61
:1049D000094920460EF057FDA019083C4246002127
:1049E0000EF079FD07F10800C5F8A840BDE8F08198
:1049F000000000000800000070400108074A9368AA
:104A000093F90E10002907DB5269934204D0044A3F
:104A1000536843F080535360704700BF1C1B002451
:104A200000ED00E0F8B5374C06460D4623685B07FD
:104A300003D0354920460BF0A0F9344B9B6ADF04C4
:104A400051D52368580703D031492E480BF095F90A
:104A500017202E4B9B6A190507D523685A0703D0E8
:104A60002C4928480BF089F91820284FBB6A9B0570
:104A700019D52368580703D0274922480BF07DF940
:104A8000BB6BBA6A11040DD52268520704D0234AC1
:104A900001211C4809F0E3FE26B11C4A936A23F465
:104AA000004393621920194B9B6A5B0507D5236865
:104AB0005F0703D01A4913480BF05FF91A20134B14
:104AC0009A6AD60511D52368590703D015490D48B0
:104AD0000BF053F91B200D4A936A43F47F43936212
:104AE00000232B70F8BD1620B3E79B6A9A04F2D519
:104AF00023685B0703D00C4902480BF03EF91C20E9
:104B0000E9E700BFE40300240064010800ED00E0D1
:104B100016640108276401083A6401085364010817
:104B200068640108836401089B64010810B52D4C7A
:104B300023685A0703D02C4920460BF01EF92B4B53
:104B40009B6A9B014BD52368580703D02849254809
:104B50000BF013F91E20254B9B6AD90107D523685A
:104B60005A0703D023491F480BF007F91F201F4B9A
:104B70009B6A1B0307D52368580703D01E491948B1
:104B80000BF0FBF82120194B9B6A590307D52368CA
:104B90005A0703D0194913480BF0EFF82220134BA2
:104BA0009B6A9B0307D52368590703D014490D4816
:104BB0000BF0E3F823200D4B9B6ADA0307D523683B
:104BC0005B0703D00F4907480BF0D7F82420074AAA
:104BD000936A6FEA03436FEA1343936210BD1D208B
:104BE000B9E700BFE4030024CA64010800ED00E057
:104BF000E2640108F56401080F6501082D650108EC
:104C0000526501086C6501082DE9F047454D89465C
:104C1000804617462B68590703D0434928460BF0B6
:104C2000ACF8424B9B6ADA0639D52B685B0703D098
:104C30003F493C480BF0A1F811243C4B9B6A1E07EE
:104C400007D52B68580703D03A4936480BF095F83A
:104C50001224DFF8D8A0DAF82830990721D52B687C
:104C60005A0703D034492F480BF087F8DAF834603C
:104C7000DAF828301B0651D52B685C0705D02F4A7F
:104C800033460121274809F0EAFDB9F1000F04D0AD
:104C9000264A936A23F080039362132403E01024CE
:104CA000CBE76FF01506214B9B6AD80707D52B6819
:104CB000590703D022491B480BF05FF814241B4B03
:104CC0009B6A9A0607D52B685B0703D01D491548D8
:104CD0000BF053F81524154B9A6AD50602D49A6A3C
:104CE00090070AD55B68190507D54146304600F0A4
:104CF00059FA10B180F3098802240C4B9A6A920683
:104D000003D55A6A22F400525A629A6A204642F047
:104D1000FF029A6200233B70BDE8F0876FF0150632
:104D2000BBE700BFE40300249765010800ED00E045
:104D3000AD65010827640108E0650108F865010810
:104D40000E6601089B6401082DE9F041744B8AB09E
:104D500004460025D3F8048000AFC8F3080685F3A5
:104D60001188BFF36F8F02F07F43B3F17F4F0AD1F9
:104D700002F00C03082B15D16A480368590702D0CA
:104D800069490AF0FAFF00252C460023FB71F31E47
:104D9000092B00F2A080DFE803F00A92958E9E9E18
:104DA0009E9E9E9812074CBF0C460125EDE75D4E76
:104DB00033685B0703D05D4930460AF0DEFF00230D
:104DC000FB71574BDA6A900708D53368590703D04F
:104DD000574954480AF0D1FF00233CE0DA6A002A20
:104DE00004DA33685A07F7D05249F2E7DB6A5B000E
:104DF000F2D53368580703D04F494A480AF0BDFF3F
:104E0000474BA1695A6942F480725A61BFF34F8FD0
:104E1000BFF36F8F5A6931F8021C22F480725A6115
:104E2000BFF34F8FBFF36F8F4DF60272914208D0E0
:104E30009A6AD2B292B3FA1D01212046FFF7E4FE2E
:104E40003BE03368590705D023683C4A01213548C7
:104E500009F005FD2368FA79E2B907F1080604F1C3
:104E6000200C2068083454F8041C3246644503C200
:104E70001646F6D17A6A002D4DD0C2F3080121B949
:104E80006FEA52226FEA42227A6207F1080118465D
:104E9000FFF716FD2837BD46BDE8F0819A6A12F487
:104EA0007F4F04D0F91D0120FFF7BCFD05E09B6A90
:104EB000B3F5803F90D3FFF739FE0346CBE7FA1DE9
:104EC0000021BAE7F91D0020EEE7164803685A07EB
:104ED00082D01B497EE7134803685B073FF47CAF31
:104EE00018F4F87F174AE8468AB0174B18BF1346E4
:104EF0006A461649103EC2E905134FF40073D661A5
:104F00001384134B42F8103F00234FF41151FDF767
:104F100011F9C54660E722F4FF7222F00102B3E7FF
:104F200000ED00E0E40300245B66010886660108EA
:104F30009D660108BE660108CC660108EB660108A3
:104F400007670108426601082D6601082B67010802
:104F500004000001044B5A6942F010025A615A6978
:104F600022F008025A61704700ED00E0EFF308807C
:104F7000EFF3098101B57246FFF7E6FE01BD00BF00
:104F8000102080F311880B484FF0AA014FF40462FF
:104F90000DF0FDFE07484FF40461401880F30988C6
:104FA000EFF314800221084380F31488BFF36F8F5E
:104FB00000F0BAF880370024BFF34F8F0549064B45
:104FC000CA6802F4E0621343CB60BFF34F8F00BFA7
:104FD000FDE700BF00ED00E00400FA05084B9B6808
:104FE00083420BD1EFF3058343B1064B5A6842F07D
:104FF00080525A605A6A22F400425A620EF060B837
:105000001C1B002400ED00E00A4A6FF00A019368BF
:10501000C3F8B0100849C3F8AC004B6843F08053A4
:105020004B60002383F31188BFF36F8F9368D3F82D
:10503000B00070471C1B002400ED00E010B50446D2
:10504000EFF31183102383F31288BFF36F8F0C4BA0
:105050004FF00062586998600A4B5A600A4BD0F8CA
:10506000A8201A600022D0F8AC30C0F8AC2083F33E
:105070001188BFF36F8F00F0B7F9204610BD00BF55
:105080001C1B002400ED00E0401600240B498A6838
:105090004FF030001044EFF3098C80E8F01F7446A5
:1050A0007046FFF7CBFFA64604498A6802F130003C
:1050B00090E8F01F8CF30988704700001C1B002447
:1050C0001EF0040F0CBFEFF30880EFF30980816935
:1050D00011F8021C0229FFD001B50AF04AFE01BDF9
:1050E00000B2002807DB0123410900F01F00024A3B
:1050F000834042F82130704700E100E000B2013106
:1051000000284FEA0111C9B206DB00F1604000F54A
:10511000614080F80013704700F00F00014B1954F4
:10512000704700BF14ED00E0104A08B522F07F027E
:105130000F4B9A60BFF34F8FBFF36F8FD3F8882068
:1051400022F47002C3F88820EFF3148323F00403E1
:1051500083F31488BFF36F8F06F058FD07F0C8FD86
:1051600000F062F80AF025FE06F0A2FD000000083B
:1051700000ED00E042F8203C203A009B08495360D3
:10518000019B21F001019360029B9161D3604FF07C
:105190008073D36100230265C0F8AC30704700BF54
:1051A000351900080A4A0346906878B113F1160FC2
:1051B000D0F8980005D0A0F140029A4205D8834269
:1051C00003D2814228BF002070470020704700BFF3
:1051D0001C1B002415460D4A0E4608B50C4B90606A
:1051E000D0F8A8201A6000F0FFF82C4686F3098852
:1051F0004FF00000074B984720464FF000014FF05A
:1052000000024FF00003044C204700BF1C1B002489
:10521000401600248BFD000835190008014B1022B0
:105220001A61704700ED00E0002304481021C21805
:105230000133A32B82F80013F9D1704700E100E09D
:1052400008B5EFF30583064A103B02EBC30152F8A1
:10525000330049688847BDE80840FFF7CFBB00BF6F
:1052600050390108154A70B5536913F4803323D1BE
:10527000C2F88430BFF34F8FD2F8803043F6E07429
:10528000C3F3C900C3F34E335B0103EA04060146CE
:1052900046EA81750139C2F86052F9D2203B13F118
:1052A000200FF2D1BFF34F8F536943F48033536122
:1052B000BFF34F8FBFF36F8F70BD00BF00ED00E0F5
:1052C000134A002370B5C2F88430BFF34F8F53697F
:1052D00023F480335361BFF34F8FD2F8803043F60D
:1052E000E074C3F3C900C3F34E335B0103EA040661
:1052F000014646EA81750139C2F87452F9D2203B61
:1053000013F1200FF2D1BFF34F8FBFF36F8F70BD3A
:1053100000ED00E0002910DD00F01F030B44BFF397
:105320004F8F07490344C1F8680220301A1A002A37
:10533000F9DCBFF34F8FBFF36F8F0020704700BFC2
:1053400000ED00E0002910DD00F01F030B44BFF367
:105350004F8F07490344C1F85C0220301A1A002A13
:10536000F9DCBFF34F8FBFF36F8F0020704700BF92
:1053700000ED00E00B4B5A6912F4003211D1BFF37B
:105380004F8FBFF36F8FC3F85022BFF34F8FBFF320
:105390006F8F5A6942F400325A61BFF34F8FBFF3E7
:1053A0006F8F704700ED00E0BFF34F8FBFF36F8F3B
:1053B000064B5A6922F400325A610022C3F8502287
:1053C000BFF34F8FBFF36F8F704700BF00ED00E05A
:1053D000024B0121024A034800F092B80000052464
:1053E00000000024D0450108D0F898204021054B4A
:1053F000403A18461A60044AC3E90112012100F03C
:1054000089B800BF4416002400000B1508B50346F8
:105410001148D0F89020C2F30722013A93420AD9EA
:105420000E480268520703D00D4A012109F017FA0D
:105430006FF0150008BDC0F898300A6822F01F020E
:105440001A4342F01002C0F89C208A6842F0010220
:10545000C0F8A0201846EDE700ED00E0E0030024CE
:1054600042670108F0B50E4685B01F460446002588
:10547000B54210DA606828B3AFB1431E18420DD0B0
:10548000124803685B0704D0114A2B46012109F03A
:10549000E6F96FF01502104605B0F0BD1F28EFD9F0
:1054A00021680B42ECD1236801A901930AF082FC28
:1054B000A3680343D0B20393FFF7A8FF10F1160FC0
:1054C000E7D0421C01350C34D2E700BFE0030024D2
:1054D00068670108044B0522C3F89420BFF34F8F7F
:1054E000BFF36F8F704700BF00ED00E0BFF35F8F29
:1054F000024B0022C3F89420704700BF00ED00E08B
:1055000010B5034C01232278FFF7ACFF207010BDCB
:10551000811B00240B4A08B500231278FFF7A2FF75
:1055200010F1160F07D0084A0021D2F89030C3F3CB
:105530000723984200DB08BDC2F898000130C2F88A
:10554000A010F2E7811B002400ED00E05848594903
:105550002DE9F043D0F8903085B00D68C3F30723F0
:105560009D4200F2A180FFF7C1FF496800229542E9
:1055700001F10C011AD1504C6846504F2570FDF7CF
:1055800091F800250646DFF83881DFF83891AE4201
:105590001FD1237800204649D1F89020C2F307227A
:1055A00093427BDB0020FFF795FF4CE0C0F898208A
:1055B00051F80C3C23F01F031343013243F0100356
:1055C000C0F89C3051F8043C43F00103C0F8A0300F
:1055D000CDE700984FEA051C00EB0511CB683B4076
:1055E000B3F5000F44D00AD8B3F5001F2ED0B3F5A1
:1055F000800F34D0B3F5801F10D00135C7E7B3F169
:10560000807F3ED0B3F1007FF7D150F80C3088682E
:105610000AF0D0FB4A6840F4802009E050F80C30D2
:1056200088680AF0C7FB40F088504A6840F4302090
:10563000039001A92078CDE90123FFF7E7FE0028B8
:1056400028DA6FF0150005B0BDE8F08350F80C3093
:1056500088680AF0AFFB4A6840EA0800E8E750F8BB
:105660000C3088680AF0A6FB4A6840EA0900DFE7C8
:1056700050F80C3088680AF09DFB4A6840F0827050
:10568000D6E750F80C3088680AF094FB4A6840F07E
:105690008870CDE7237801332370AEE7C1F89830E6
:1056A0000133C1F8A00077E74FF0FF30CBE700BF30
:1056B00000ED00E0F4400108811B00240000F0FF31
:1056C000000008110000020708B5024B1B6898474C
:1056D000002008BD50160024034B044A186093783C
:1056E00043F00203937070475016002478000024A2
:1056F000F0B587B007460E461446002110226846D2
:105700001D460DF0E8FE02232A4621468DF80230A0
:105710006846044BCDE90476019307F0DBFE07B041
:10572000F0BD00BFD5FD00080649074821F007017C
:10573000C1F1105208B502F5A02208F0FCFB0020D0
:1057400008BD00BF3F810324541600244FF0FF32F0
:105750004FF0FF33014806F059BB00BF880000241A
:10576000014806F0CBBB00BF8800002438B50546D1
:10577000FFF7ECFF082108482A4608F066FB0446BC
:1057800028B925B1054B0C220DF07CFF1A50FFF70C
:10579000E7FF204638BD00BF541600240C0000006F
:1057A00010B50446FFF7D2FF0348214608F003FB7B
:1057B000BDE81040FFF7D4BF5416002408B500F030
:1057C000B7F80A4901220023416109490361C0E990
:1057D00000220A6007490A60074A1360074A1360FB
:1057E000074AC0E90233136008BD00BF68560108CC
:1057F000B8000024B40000246816002464160024B5
:10580000601600242DE9F04107460E46154600F0CB
:105810008FF8C36804461BB943691A78002A41D13E
:105820000023E3606368BB4256F8232008DB324B59
:105830006361204600F062F84FF0FF30BDE8F08170
:10584000511C616192F80080B8F12D0FEFD1911CCD
:10585000616151782D29A16004D192786AB9013330
:105860006360E4E749B9244B4146284663610DF083
:1058700059FE0028DDD0C4F80880D4F808802846F6
:1058800041460DF04FFEB8F13A0F636900D070B990
:105890001B7813B9636801336360204600F02EF86B
:1058A0003F20CBE75A1C42611B788360E5E74278D2
:1058B0003A2A0BD0002222611B7813B963680133A6
:1058C0006360204600F01AF8A068B7E718786268AD
:1058D000094928B901329742626004DD56F8223046
:1058E000C4E90431EAE7616120462D783A2DD5D12B
:1058F00000F004F82846A1E7685601080268074B43
:105900001A604268064B1A608268064B1A60C268C9
:10591000054B1A600269054B1A607047B8000024F5
:10592000B4000024681600246416002460160024C5
:10593000004870479C000024084B0246596811B18A
:105940001968884207D0D86830B1996804488A42FB
:1059500018BF002070471846704700BF6C1600241F
:105960007416002402460B46014806F04FBA00BFE9
:1059700068040024014806F0C1BA00BF680400248E
:105980002DE9F74F824608460F469046FAF79AFFF0
:105990004FF0FF3183464FF0FF30FFF7E3FF1B4B23
:1059A0004FF000091C684E469C4208BF00245B680B
:1059B0005CB9FFF7DFFF36B3CAF80060B8F1000F3B
:1059C0001DD1002003B0BDE8F08FA569A94512D80C
:1059D000AB4510D3012D03D97A5D2F2A00D052B9DF
:1059E0002A46E168384601930DF0A9FD0028019B85
:1059F00004BFA94626469C42DBD02468D8E7B36999
:105A0000C8F80030DDE76FF00100DBE7BC000024E0
:105A10002DE9F743804691460D4639B10846FAF71D
:105A200051FF012802D92B782F2B0CD03A4803685C
:105A30005A0702D039490AF005FB6FF015042046D9
:105A400003B0BDE8F083D8F80420002A5DD12946D0
:105A500001A8FFF795FF041E07DA2F4803685B07CC
:105A6000EDD02F490AF0EEFAE9E7019E96F82030D2
:105A70009F0702D519F0120F4AD1F3691A68C2B113
:105A800019F0400719D019F0020F09D12248036814
:105A90005C0702D023490AF0D5FA6FF00C04CEE778
:105AA0005B694BB91C480368590702D01E490AF0CC
:105AB000C9FA6FF08504C2E70127C8F804604A46B6
:105AC000F369294640461B689847041E0BDA1248C2
:105AD00003685A0703D0224614490AF0AEFA00239D
:105AE000C8F80430ABE788F80890002FA7D0F36916
:105AF000002140465B699847041EA0DA0648036807
:105B00005B07ECD022460A49E7E76FF00F0496E7FF
:105B10006FF01D0493E700BFC003002492670108E3
:105B2000A6670108BE670108EC6701080C68010858
:105B30002168010838B5446805466CB1E369DB6942
:105B40007BB19847041E09DA074803685B0703D056
:105B5000224606490AF071FA204638BD00236B60E0
:105B6000FAE76FF08504F7E7C00300243D680108F9
:105B700010B543687BB1DB695B687BB19847041E55
:105B800007DA084803685B0703D0224606490AF093
:105B900054FA204610BD6FF00804FAE76FF0850450
:105BA000F7E700BFC003002453680108F7B50546B6
:105BB0000E4611B10B782F2B0BD02A4803685907DA
:105BC00002D029490AF03EFA6FF01504204603B0CE
:105BD000F0BD4368002B3FD10768002F3CD123491B
:105BE0003046FAF75DFE044680B94FF0FF304FF0C3
:105BF000FF31FFF7B7FE1E4A6C601368934214BF73
:105C00001F4627462F60FFF7B5FEDFE73A463146CD
:105C100001A8FFF7B5FE041E07DA124803685A0709
:105C2000D4D014490AF00EFAD0E7019BDA69126A5F
:105C3000AAB16B603146DB6928461B6A9847041E8F
:105C4000C4DA0848C5E9007703685B07BED022467E
:105C500009490AF0F2F9B9E76FF00F04B6E76FF0FF
:105C60008504B3E7C0030024686801086652010890
:105C7000BC000024A6670108816801082DE9F843EB
:105C8000476806460D466FB3FB695B6A002B5FD021
:105C90004F1CDFF8C490DFF8C48073682946304693
:105CA000DB695B6A9847041E13DB6B7873B12B7852
:105CB000012B0BD149463846FAF7F2FD0028ECD00B
:105CC00041463846FAF7ECFD0028E6D02046BDE80C
:105CD000F883234803685B07F8D0224621490AF07D
:105CE000ACF9F3E7036813B94B700024EEE7DFF873
:105CF00078804FF0FF304FF0FF31FFF733FED8F8D8
:105D00000040D8F80430444508BF002424B96FF09F
:105D10000104FFF72FFED9E73268944214D1012322
