:020000040800F2
:10000000C034002475510008954B00086151000868
:1000100061510008615100086151000800000000B2
:10002000000000000000000000000000B5520008C1
:10003000615100080000000081520008A5840008FA
:10004000355400083554000835540008355400086C
:10005000355400083554000835540008355400085C
:10006000355400083554000835540008355400084C
:10007000355400083554000835540008355400083C
:0402CC00FFFFFFFF32
:1002D00081F0004102E000BF83F0004330B54FEAF7
:1002E00041044FEA430594EA050F08BF90EA020F64
:1002F0001FBF54EA000C55EA020C7FEA645C7FEAF7
:10030000655C00F0E2804FEA5454D4EB5555B8BF19
:100310006D420CDD2C4480EA020281EA030382EA8A
:10032000000083EA010180EA020281EA0303362D1C
:1003300088BF30BD11F0004F4FEA01314FF4801CEF
:100340004CEA113102D0404261EB410113F0004F01
:100350004FEA03334CEA133302D0524263EB4303B8
:1003600094EA050F00F0A780A4F10104D5F1200E56
:100370000DDB02FA0EFC22FA05F2801841F10001B1
:1003800003FA0EF2801843FA05F359410EE0A5F185
:1003900020050EF1200E012A03FA0EFC28BF4CF0B6
:1003A000020C43FA05F3C01851EBE37101F000456C
:1003B00007D54FF0000EDCF1000C7EEB00006EEB79
:1003C0000101B1F5801F1BD3B1F5001F0CD3490803
:1003D0005FEA30004FEA3C0C04F101044FEA44525A
:1003E00012F5800F80F09A80BCF1004F08BF5FEAE1
:1003F000500C50F1000041EB045141EA050130BDC1
:100400005FEA4C0C404141EB0101013C28BFB1F5D2
:10041000801FE9D291F0000F04BF01460020B1FA1D
:1004200081F308BF2033A3F10B03B3F120020CDAF0
:100430000C3208DD02F1140CC2F10C0201FA0CF0CE
:1004400021FA02F10CE002F11402D8BFC2F1200C33
:1004500001FA02F120FA0CFCDCBF41EA0C019040E9
:10046000E41AA2BF01EB0451294330BD6FEA040432
:100470001F3C1CDA0C340EDC04F11404C4F120021D
:1004800020FA04F001FA02F340EA030021FA04F32F
:1004900045EA030130BDC4F10C04C4F1200220FA86
:1004A00002F001FA04F340EA0300294630BD21FAC4
:1004B00004F0294630BD94F0000F83F4801306BF8A
:1004C00081F480110134013D4EE77FEA645C18BF7E
:1004D0007FEA655C29D094EA050F08BF90EA020F15
:1004E00005D054EA000C04BF1946104630BD91EA0D
:1004F000030F1EBF0021002030BD5FEA545C05D110
:100500004000494128BF41F0004130BD14F580044E
:100510003CBF01F5801130BD01F0004545F0FE41C2
:1005200041F470014FF0000030BD7FEA645C1ABFF7
:10053000194610467FEA655C1CBF0B46024650EA2E
:10054000013406BF52EA033591EA030F41F400215A
:1005500030BD00BF90F0000F04BF0021704730B5E0
:100560004FF4806404F132044FF000054FF00001B5
:1005700050E700BF90F0000F04BF0021704730B576
:100580004FF4806404F1320410F0004548BF40424B
:100590004FF000013EE700BF42004FEAE2014FEAA0
:1005A00031014FEA02701FBF12F07F4393F07F4F7B
:1005B00081F06051704732F07F4208BF704793F07E
:1005C0007F4F04BF41F40021704730B54FF4607491
:1005D00001F0004521F000411CE700BF50EA010294
:1005E00008BF704730B54FF000050AE050EA01023D
:1005F00008BF704730B511F0004502D5404261EBAD
:1006000041014FF4806404F132045FEA915C3FF4ED
:10061000D8AE4FF003025FEADC0C18BF03325FEA8A
:10062000DC0C18BF033202EBDC02C2F1200300FA3B
:1006300003FC20FA02F001FA03FE40EA0E0021FA60
:1006400002F11444BDE600BF4FF0FF3C06E000BFDE
:100650004FF0010C02E000BF4FF0010C4DF804CD4B
:100660004FEA410C7FEA6C5C4FEA430C18BF7FEA0B
:100670006C5C1BD001B050EA410C0CBF52EA430C39
:1006800091EA030F02BF90EA020F0020704710F1B9
:10069000000F91EA030F58BF994208BF90422CBF48
:1006A000D8176FEAE37040F0010070474FEA410C41
:1006B0007FEA6C5C02D150EA013C07D14FEA430C5F
:1006C0007FEA6C5CD6D152EA033CD3D05DF8040BD0
:1006D000704700BF8446104662468C461946634602
:1006E00000E000BF01B5FFF7B7FF002848BF10F1D9
:1006F000000F01BD4DF808EDFFF7F4FF0CBF01201E
:1007000000205DF808FB00BF4DF808EDFFF7EAFF99
:1007100034BF012000205DF808FB00BF4DF808ED54
:10072000FFF7E0FF94BF012000205DF808FB00BF49
:100730004DF808EDFFF7CEFF94BF012000205DF8D3
:1007400008FB00BF4DF808EDFFF7C4FF34BF0120E0
:1007500000205DF808FB00BF4FEA4102B2F1E04320
:1007600024BFB3F5001CDCF1FE5C0DD901F0004C98
:100770004FEAC0024CEA5070B2F1004F40EB8300E8
:1007800008BF20F00100704711F0804F21D113F114
:100790003872BCBF01F00040704741F480114FEA4D
:1007A0005252C2F11802C2F1200C10FA0CF320FAD6
:1007B00002F018BF40F001004FEAC1234FEAD323F3
:1007C00003FA0CFC40EA0C0023FA02F34FEA43035D
:1007D000CCE77FEA625307D150EA01331EBF4FF0E6
:1007E000FE4040F44000704701F0004040F0FE4001
:1007F00040F40000704700BF80F0004002E000BFFE
:1008000081F0004142001FBF5FEA410392EA030FFB
:100810007FEA226C7FEA236C6AD04FEA1262D2EB45
:100820001363C1BFD218414048404140B8BF5B424A
:10083000192B88BF704710F0004F40F4000020F0E3
:100840007F4018BF404211F0004F41F4000121F0F9
:100850007F4118BF494292EA030F3FD0A2F1010243
:1008600041FA03FC10EB0C00C3F1200301FA03F181
:1008700000F0004302D5494260EB4000B0F5000FA4
:1008800013D3B0F1807F06D340084FEA310102F163
:100890000102FE2A51D2B1F1004F40EBC25008BF15
:1008A00020F0010040EA03007047490040EB0000DF
:1008B000013A28BFB0F5000FEDD2B0FA80FCACF1E0
:1008C000080CB2EB0C0200FA0CF0AABF00EBC2500D
:1008D00052421843BCBFD0401843704792F0000FFB
:1008E00081F4000106BF80F400000132013BB5E74E
:1008F0004FEA41037FEA226C18BF7FEA236C21D0C4
:1009000092EA030F04D092F0000F08BF0846704728
:1009100090EA010F1CBF0020704712F07F4F04D1F6
:10092000400028BF40F00040704712F100723CBF09
:1009300000F50000704700F0004343F0FE4040F433
:10094000000070477FEA226216BF08467FEA2363F1
:100950000146420206BF5FEA412390EA010F40F4DC
:10096000800070474FF0000304E000BF10F0004328
:1009700048BF40425FEA000C08BF704743F096430F
:1009800001464FF000001CE050EA010208BF70472A
:100990004FF000030AE000BF50EA010208BF7047B1
:1009A00011F0004302D5404261EB41015FEA010CC6
:1009B00002BF84460146002043F0B64308BFA3F1BE
:1009C0008053A3F50003BCFA8CF2083AA3EBC253A0
:1009D00010DB01FA02FC634400FA02FCC2F12002BF
:1009E000BCF1004F20FA02F243EB020008BF20F0F6
:1009F0000100704702F1200201FA02FCC2F120025C
:100A000050EA4C0021FA02F243EB020008BF20EA50
:100A1000DC7070474FF0FF0C1CEAD0521EBF1CEA7E
:100A2000D15392EA0C0F93EA0C0F6FD01A4480EA6C
:100A3000010C400218BF5FEA41211ED04FF0006355
:100A400043EA501043EA5111A0FB01310CF0004081
:100A5000B1F5000F3EBF490041EAD3715B0040EAA7
:100A6000010062F17F02FD2A1DD8B3F1004F40EB77
:100A7000C25008BF20F00100704790F0000F0CF04A
:100A8000004C08BF49024CEA502040EA51207F3A0E
:100A9000C2BFD2F1FF0340EAC250704740F40000E9
:100AA0004FF00003013A5DDC12F1190FDCBF00F0DA
:100AB00000407047C2F10002410021FA02F1C2F188
:100AC000200200FA02FC5FEA310040F1000053EA24
:100AD0004C0308BF20EADC70704792F0000F00F072
:100AE000004C02BF400010F4000F013AF9D040EA78
:100AF0000C0093F0000F01F0004C02BF490011F40C
:100B0000000F013BF9D041EA0C018FE70CEAD15309
:100B100092EA0C0F18BF93EA0C0F0AD030F0004C89
:100B200018BF31F0004CD8D180EA010000F000403D
:100B3000704790F0000F17BF90F0004F084691F0FB
:100B4000000F91F0004F14D092EA0C0F01D1420235
:100B50000FD193EA0C0F03D14B0218BF084608D1FE
:100B600080EA010000F0004040F0FE4040F4000048
:100B7000704740F0FE4040F4400070474FF0FF0CDB
:100B80001CEAD0521EBF1CEAD15392EA0C0F93EA22
:100B90000C0F69D0A2EB030280EA010C49024FEA74
:100BA000402037D04FF0805343EA111143EA10132D
:100BB0000CF000408B4238BF5B0042F17D024FF4E5
:100BC000000C8B4224BF5B1A40EA0C00B3EB510FC0
:100BD00024BFA3EB510340EA5C00B3EB910F24BFA9
:100BE000A3EB910340EA9C00B3EBD10F24BFA3EB2E
:100BF000D10340EADC001B0118BF5FEA1C1CE0D1F6
:100C0000FD2A3FF650AF8B4240EBC25008BF20F0A8
:100C1000010070470CF0004C4CEA50207F32C2BFFC
:100C2000D2F1FF0340EAC250704740F400004FF099
:100C30000003013A37E792F0000F00F0004C02BFCA
:100C4000400010F4000F013AF9D040EA0C0093F094
:100C5000000F01F0004C02BF490011F4000F013BEE
:100C6000F9D041EA0C0195E70CEAD15392EA0C0F56
:100C700008D142027FF47DAF93EA0C0F7FF470AF8E
:100C8000084676E793EA0C0F04D14B023FF44CAFD1
:100C900008466EE730F0004C18BF31F0004CCAD166
:100CA00030F000427FF45CAF31F000437FF43CAFA2
:100CB0005FE700BF4FF0FF3C06E000BF4FF0010CC4
:100CC00002E000BF4FF0010C4DF804CD4FEA4002A6
:100CD0004FEA41037FEA226C18BF7FEA236C11D0F0
:100CE00001B052EA530C18BF90EA010F58BFB2EBA3
:100CF000030088BFC81738BF6FEAE17018BF40F023
:100D0000010070477FEA226C02D15FEA402C05D1D6
:100D10007FEA236CE4D15FEA412CE1D05DF8040B5B
:100D2000704700BF844608466146FFE70FB5FFF7EE
:100D3000C9FF002848BF10F1000F0FBD4DF808EDA6
:100D4000FFF7F4FF0CBF012000205DF808FB00BF97
:100D50004DF808EDFFF7EAFF34BF012000205DF8F1
:100D600008FB00BF4DF808EDFFF7E0FF94BF01203E
:100D700000205DF808FB00BF4DF808EDFFF7D2FF3B
:100D800094BF012000205DF808FB00BF4DF808ED7E
:100D9000FFF7C8FF34BF012000205DF808FB00BF4B
:100DA0004FEA4002B2F1FE4F0FD34FF09E03B3EB78
:100DB00012620DD94FEA002343F0004310F0004FB8
:100DC00023FA02F018BF404270474FF0000070470E
:100DD00012F1610F01D1420205D110F0004008BFAD
:100DE0006FF0004070474FF0000070477BB972B958
:100DF0000029BEBF00204FF0004106E008BF0028D8
:100E00001CBF6FF000414FF0FF3000F057B8ADF15C
:100E1000080C6DE904CE002909DB002B1ADB00F079
:100E200069F8DDF804E0DDE9022304B070474042D0
:100E300061EB4101002B1BDB00F05CF8DDF804E006
:100E4000DDE9022304B0404261EB4101524263EB11
:100E500043037047524263EB430300F04BF8DDF865
:100E600004E0DDE9022304B0404261EB4101704738
:100E7000524263EB430300F03DF8DDF804E0DDE9A6
:100E8000022304B0524263EB4303704753B94AB99B
:100E9000002908BF00281CBF4FF0FF314FF0FF3082
:100EA00000F00CB8ADF1080C6DE904CE00F022F8AA
:100EB000DDF804E0DDE9022304B07047704700BFAD
:100EC00010F8012B11F8013B012A28BF9A42F7D0F4
:100ED000D01A7047034611F8012B03F8012B002AA2
:100EE000F9D17047034613F8012B002AFBD1181AD9
:100EF000013870472DE9F04786468C460846089E23
:100F0000154674461946002B40F0C2808542B2FA5D
:100F100082F245D94AB1C2F1200300FA02FC2EFA4E
:100F200003F3954043EA0C0C94404FEA154EA8B2E7
:100F3000BCFBFEF8230C0EFB18CC08FB00F943EABF
:100F40000C43994528D9EB1808F1FF3704D299458D
:100F500002D9A8F102072B44A3EB0903A4B2B3FB07
:100F6000FEFC0EFB1C330CFB00F044EA0344A042E1
:100F700014D92C190CF1FF3304D2A04202D9ACF1E0
:100F800002032C44241A43EA07401EB1D440002334
:100F900034607360BDE8F0874746DDE76346F1E7FC
:100FA00092BB431B01214FEA154EAFB2B3FBFEFCCF
:100FB000200C0EFB1C330CFB07F840EA034398455A
:100FC00062D9EB180CF1FF3004D2984502D9ACF18C
:100FD00002002B44A3EB0803A4B2B3FBFEFC0EFB00
:100FE0001C330CFB07F744EA0344A7424ED92C19E3
:100FF0000CF1FF3304D2A74202D9ACF102032C4416
:10100000E41B43EA0040C0E7C2F1200320FA03F1E9
:10101000954090402EFA03F303434FEA154EAFB2CA
:10102000B1FBFEFC0EFB1C10190C0CFB07F841EA8F
:101030000041884504FA02F422D969180CF1FF3006
:1010400004D2884502D9ACF102002944A1EB080181
:101050009BB2B1FBFEFC0EFB1C110CFB07F743EA35
:1010600001439F420ED9EB180CF1FF3104D29F428D
:1010700002D9ACF102012B44DB1B41EA004192E7AB
:101080006046E3E76146F7E76046A3E76346B7E7F4
:10109000834206D916B9002108467BE7C6E900E07D
:1010A000F9E7B3FA83F78FB9834201D3724508D8C1
:1010B000BEEB020460EB030301209C461EB9002135
:1010C00068E73846FAE7C6E9004CF8E7C7F1200CB4
:1010D000BB4022FA0CF41C432EFA0CF120FA0CF35C
:1010E000B84001434FEA14490EFA07F5B3FBF9F88B
:1010F0001FFA84FE09FB18300B0C08FB0EFA43EABA
:1011000000439A4502FA07F240D9E31808F1FF308C
:1011100004D29A4502D9A8F102002344A3EB0A03A2
:1011200089B2B3FBF9F809FB183308FB0EFE41EA5C
:1011300003418E452CD9611808F1FF3304D28E4546
:1011400002D9A8F10203214443EA0040A0FB02981F
:10115000A1EB0E014145CE46434602D306D14D4593
:1011600004D2B9EB020E68EB04030138002EA6D0BE
:10117000B5EB0E0261EB030101FA0CFC22FA07F356
:101180004CEA0303F940C6E9003198E74046C5E759
:101190004346D9E7000000002DE9F04F054685B031
:1011A0004FF00108464B1B7863B14FF4FA620023FD
:1011B00003A9444807F066FD041E13DA4249284695
:1011C0000BF0CEF8414B18688368032201211B699C
:1011D0009847021E63DB3E49284605B0BDE8F04F44
:1011E0000BF0BEB8DDF80CA00026DFF8E8900AF19D
:1011F000020BD9F80040204609F02CFB3649FFF7D6
:1012000009FCFFF7CDFD354907B22046FFF7FAFA92
:101210000446FFF7C1F902460B46CDE9002326A399
:10122000D3E90023FFF784FA48B123A3D3E90023CD
:10123000DDE90001FFF750F8FFF78EFA04462AF8BF
:10124000267040F24E432BF8267001369E42D2D1D2
:101250001E4E41F2381203993068C9F80040836885
:10126000DB689847041E05DA22461D4928460BF024
:1012700077F8A7E7B8F1000F0AD03068836800223A
:1012800001211B699847041E02DA22461549EDE741
:101290000A2000214FF0000808F05AFA82E70321E3
:1012A00011480AF066FA2146104805B0BDE8F04F33
:1012B0000AF05FBAAFF30080182D4454FB211940A7
:1012C000001700248C020024160C0108600F002473
:1012D0006D0C0108480F002400FEFF464A63803D64
:1012E000330C01084D0C0108820C0108AA0C0108FE
:1012F0002DE9F047044688B0884617460DF020FDDA
:101300000A220023FFF7C2FDB8F1010F06460D4681
:1013100007D102460B46204627490BF021F8002052
:1013200011E07F6825483946FFF7CAFD70B139469C
:101330002348FFF7C5FD48B120463A4621490BF046
:101340002BF86FF0040008B0BDE8F087304629465E
:1013500017A3D3E90023FFF749FD06460D461046C3
:101360001946194A0023FFF741FD80460F461046F3
:1013700019464EF660220023FFF738FD8246894663
:10138000104619464FF47A720023FFF72FFDCDE97E
:1013900002A9CDE90623CDE9040132462B460B49CB
:1013A0002046CDE900870AF0DBFFB8E7AFF3008005
:1013B000005C2605000000005A1001086B100108AF
:1013C0006E1001087710010880EE36008F100108BA
:1013D00010B5074C237823B906490AF0C1FF002055
:1013E00010BD05490AF0BCFF00232370F7E700BFDA
:1013F00000170024A20B0108B40B010870B5114EB0
:1014000088B0054634782CB10F490AF0A9FF0020B6
:1014100008B070BD0D490AF0A3FF0123337000220C
:1014200000230B4904940B48CDE9062307234FF40E
:101430008062CDE90243CDE90054074B07F07EFE00
:10144000E5E700BF00170024C60B0108DC0B01080C
:1014500040170024D80200249911000830B5022357
:1014600085B004468DF800008DF80110CDF804D049
:1014700002938DF80C300A4801A99DF80C3082685F
:1014800043F002038DF80C30182395680122A84719
:10149000021E03DA214603480AF06BF905B030BD9D
:1014A00000F50008EE0B010810B51948194C206032
:1014B0000DF062FA20B91848BDE810400AF059B999
:1014C00009F0A3FF154B002241F238114FF40470CC
:1014D0001A704FF4FA63124AC2E903134AF64443FE
:1014E000C2E900030F4B20689360836801211B68E9
:1014F0009847002805DA0C4808F028FE0B480AF047
:1015000038F942F21070002108F022F90848D3E7B8
:1015100014F50008600F0024CC0C0108001700240B
:101520004C0F00248C020024E20C0108010D01087C
:10153000210D01082DE9F04F91B0840705460E46B4
:10154000009302F00403DDF868900293C2F3C20333
:10155000039203F10103059340F0BA81041D30B1F9
:10156000072909D86FF01B0011B0BDE8F08F01F01A
:101570000706341DC6F10806009B4FF000084FF027
:10158000040A591E4FF0FF334746C34601935346A2
:10159000CDF810800DB1009A22600598002800F364
:1015A000E8809848009A824203D397488242C0F06C
:1015B000E080039AA4EB050E92074FEA9E0000F12B
:1015C00003810F2F00F2B180002D00F0058107F19B
:1015D00040020DEB020C019A0CF8200C0CF8102CB8
:1015E000049801300490E7E07A285DD84B280ED8A3
:1015F000472859D829282DD8252852D054D8202812
:101600007AD02338D0F1000B4BEB000B74E04C3850
:101610002E2849D8DFE800F0704848484848484834
:10162000484848484B484848484848484859484B23
:101630004B595959704B6D487048184B184848829F
:101640007F4B48484B487F0000204FF0000B4FF085
:10165000040A38E02A380122C0B202FA00F010EA87
:101660000E0F49D110F0625C2FD110EA020B43D06B
:101670006046013C5444B4FBFAF40AFB04F4002D28
:1016800061D0A3EB050CA444B4453FF66BAF002832
:1016900068D1042B47D159F8043B23600434042358
:1016A0002AE0019A013A01924FF0000B24E011F870
:1016B000010C6C2834D111F8023C00206C2B8346BD
:1016C000C5D14FF0080A5346D3E709F1070907349B
:1016D00029F0070924F00704F9E802AB35B10698B0
:1016E0002044B0423FF63EAFC4E900AB08344FF0AF
:1016F000000B4FF0080A534611F8010F002878D06C
:10170000BBF1000F7FF470AF2528F5D1019B4FF09E
:10171000010B013301934FF0040AECE7584694E7BC
:1017200000208346A5E7082B02D06FF015001BE7C9
:1017300009F1070929F00709F9E80223C4E90023A0
:1017400008340823D8E768B9042B02D109F1040949
:10175000A4E7082BE9D109F1070929F0070909F1E4
:101760000809EDE7059A013A059259F8042B009211
:1017700010E7039A900720D5A4EB050E4FF0010C5B
:101780004FEA9E00BEF5007FCFD20F2FCDD8F5B126
:1017900007F14002C0B20DEB020E019A0EF8200CC8
:1017A0000EF8102CBCF1000F3FF41AAF60F07F0070
:1017B00008F101080EF8200C0137C5F108020434C5
:1017C0004FF6DA7E069297E74FF0000CDAE7BCF1AD
:1017D000000F01D00136EFE7029802360028EBD166
:1017E0000098CDE90631FFF77DFB0644DDE90631BF
:1017F000E2E7631BB3F5806F97D23DB9A6F1080409
:10180000E018B1E694F20008782F01089B08029ACC
:1018100028602B709DF81030C2B1EB7085F8028003
:10182000B8F1000F05D008A80022C5F1010C9742BD
:101830000ED1C5F101030DF120094FF0000A0DF1A1
:10184000300B0193574512D1601B8DE66B70E5E7B5
:1018500010F8013B190608D504EB0C0E03F07F03CA
:10186000B6453FF67FAE04F8013B0132DFE7B8F141
:10187000000F03D099F90020002A17DB029BD3B197
:101880001AF80B2004F8012B0022019B9818204421
:10189000B0423FF667AE99F80000009904F8010BDA
:1018A000204603920DF0F6FB039A14440AF1010A54
:1018B00009F10109C6E799F8002055F82230009394
:1018C000029B009845F82230FFF70CFB421CDCE736
:1018D0006FF00D0048E600BF2DE9F04F97B00446C9
:1018E000894600AF90F802A0D7F880B03B62CBF3F6
:1018F000C003FA62BB6141B9457800780AEB800009
:1019000020444D4517D8A0EB0409E378FB61BAF1F8
:10191000000F02D01BF0010F16D1FB6953BBFB6A0D
:101920001BB13A6A4946204698474D4628465C37DF
:10193000BD46BDE8F08F461C09F101093046FFF7AE
:10194000D1FA01303044DCE72378626899007A628A
:10195000FA6A796104EB8301002A40F004814D4664
:101960000E4601EB0A094FF000084E4550D101EB3D
:101970000A0610E01BF0020FD1D023789A0004EB86
:1019800083017A6162687A62FA6A002A7BD14D46E5
:1019900001EB0A0690461BF0050F0CBF0223012342
:1019A000FB62FB6906EB430A0BF00203BB62564580
:1019B000BCD016F8021B16F8013C54F823909B4B40
:1019C000994502D39A4B99453AD3BB69002B44D031
:1019D000786A09F0A7FE00283FD09648036813F004
:1019E000060F13D0E9468AB06A46934B53617B6A6F
:1019F000C2E906314FF400731384904B42F8103F54
:101A000000234FF4125100F051FDCD46023DCEE7C8
:101A100016F8013BF96254F82300FFF763FAD7F890
:101A200084300130F96A4BB1D7F8883098453EBF11
:101A3000D7F8843023F8180008F10108054494E72A
:101A4000BB6923B1786A09F06DFE0028C5D11BF08F
:101A5000010F05D1FB6AED1AA9E7BB6A002BA6D0DE
:101A60004846FFF73FFAD7F8843053B1D7F88830AB
:101A700098453FBF431CD7F8842022F8183008F15E
:101A80000108054493E7BAF1000F72D01BF0040679
:101A900072D0D046002607F1480052463B61B96239
:101AA0000DF0F8FAB96A3B6901EB0A02F969BA620A
:101AB000FA695200FA60BA6A02EB41023A610BF02D
:101AC0000202BA603A69B96A8A4257D11BF0020F22
:101AD00062780CBF4FEA580100217A621BF0010FB7
:101AE0003244D2B240F09F801BF0040F14BF404636
:101AF0000020BB616270A0702046E1703A6A79698B
:101B0000FB6A9847051EFFF611AFBB6941463A6A6A
:101B100007F1480023707B6A84F802A06370FB69B8
:101B2000E370FB6A9847B0F10008C0F2B5807B69AA
:101B3000A9EB0A013A6AC91AFB68C91AD7E90A036C
:101B400098470028C0F2AA80A8444FF0000B07F184
:101B5000380A08EB0005B34572D300213A6AFB6AE4
:101B600008469847E2E656464FF0000807F138006D
:101B700093E75646D04697E7B04695E7BA6A12F81B
:101B8000021B12F8015CBA6254F82500274A904201
:101B900002D3274A90421ED3BA6932B1786A7B6079
:101BA00009F0C0FD7B6800288CD1BA6802BB08F13F
:101BB000280207F1300C08F1010008F102089444F2
:101BC00007F158025FFA88F852FA80F00CF8101CFE
:101BD00000F8105C76E7BA693AB1786A7B6009F080
:101BE000A1FD7B6800287FF46DAF1BF0010F09D0C9
:101BF00006F1280207F13000711C161806F8205C67
:101C0000CEB25FE71BF0040F3FF45CAF08F128028F
:101C100007F1300008F1010102EB000808F8105C40
:101C20005FFA81F84EE7002063E700BF94F20008F6
:101C3000782F010848020024B20D010804000001B9
:101C40001BF80A3054F8239087F83730D7F88430DF
:101C5000FBB133F81B803A6A012107F13700FB6AB8
:101C6000984700281ADB0544B8F1000F06D1484612
:101C7000FFF738F900F101081FFA88F83A6A41467F
:101C80004846FB6A9847002808DB05440BF1010B26
:101C900061E7D7F88480DEE7454647E6054645E636
:101CA000014B1860704700BF0000002480B5054656
:101CB0000E461746984607F067FDDFF8209003466A
:101CC0000DF0DEFA0446424649F800303946304607
:101CD000A84754F8090003F07BFA00BF0800000091
:101CE000044608B5EFF31183102383F31288BFF382
:101CF0006F8F03F0DFFB03F051FC0CF013FE204666
:101D000003F054FA024809F034FD0BF064FBFCE7E1
:101D1000660E0108054B00205A6822F002025A6044
:101D20005A6822F001025A60704700BF0010005C40
:101D300008B503F019FC03F08FFB104B104A1A6032
:101D4000104BDA6822F0070242F00202DA609A6968
:101D500042F440429A619A699204FCD50A4B1A688F
:101D600041F20303B3EB124F06D1084AD2F808310F
:101D700043F00103C2F8083108BD00BFA4010024EC
:101D80000090D003004802580010005C0080005111
:101D90002DE9F047044607464FF00109DFF850806F
:101DA00014B93846BDE8F08794FAA4F5B5FA85F57C
:101DB00009FA05F32E0108EB05156FEA030A24EA78
:101DC00003042B7B002BEBD058F806301B694BB972
:101DD00046440422284607EA0A077368196800F097
:101DE00025FBDDE7284698470028D9D1F0E700BF5A
:101DF000C8FA000830B5002289B00F490F480CF02E
:101E0000A1FF0022002300240D4D0E492846009416
:101E1000CDE906230E234FF44072CDE90334CDE91A
:101E20000144094B07F08AF90849284607F0B2F83F
:101E3000204609B030BD00BF511E000850080024E4
:101E400090030024801B002471210008BE0E0108AD
:101E5000014807F00DB800BFBC0200242DE9F0478F
:101E600080461E480F4609F0AAFF064678B30025B3
:101E70002846BDE8F087237B6BB12368DB680BB194
:101E80002046984723681B69CBB963680422204623
:101E9000196800F0CBFA013610344C45EBD3B8F199
:101EA000000FE5D0002DE2D02846FFF771FF054670
:101EB000002FF7D00021642007F04AFCF2E720460B
:101EC00098470028E1D00AFA06F31D43E3E7044CE3
:101ED0000546DFF810904FF0010ADEE7740F00248A
:101EE000C8FA0008D8FA000808B5034608462BB11E
:101EF000044A136000F07CFD002008BD6FF015005F
:101F0000FBE700BF0400002410B5044C237813B98C
:101F1000034806F0ADFF0123237010BD0117002414
:101F2000BC02002410B504460B4809F048FF5CB120
:101F30000A4BBFF35B8F53E8001F013943E80012DF
:101F4000002AF8D1BFF35B8F05480CF007FF054866
:101F5000BDE8104006F08CBF6C0F0024700F002409
:101F600050080024BC0200240020064BBFF35B8F06
:101F7000014653E8000F43E80012002AF9D1BFF3ED
:101F80005B8F70476C0F002470B5FFF7EDFF084CB6
:101F90000546084EB44200D370BD63685B792BB12F
:101FA00023685B6813B12946204698471034F1E74F
:101FB000C8FA0008D8FA000810B5044C04492046B5
:101FC00009F0DEFC034B1C6010BD00BF04020024BE
:101FD000E0FC0008640F002408B5094A00234FF410
:101FE0007A7108481370084A1360084A1360FFF7B3
:101FF0007BFFFFF7E1FFBDE8084000F067B900BFD5
:1020000002170024D9BD00086C0F0024700F0024B3
:10201000014600220023014809F0D3BC0402002439
:10202000014809F069BD00BF04020024024B0146CB
:10203000186809F0B5BD00BF640F0024014809F01D
:10204000EABD00BF04020024324B2DE9F0411878AC
:1020500000285DD0FFF7E4FF044698B12E4BBFF394
:102060005B8F53E8001F013943E80012002AF8D1C2
:102070002A4DBFF35B8FDFF8A880454526D3204665
:10208000FFF7D4FF274B284C1B68002B12DD0CF008
:1020900057FE0A220023FEF7F9FED4E90032C01AE7
:1020A00040F2E93361EB0201984271F1000101D382
:1020B000FFF76AFFD4E9003213F57A7342F10002A8
:1020C000C4E90032BDE8F041FFF7B8BF6B685B7947
:1020D0003BB121784B0706D52B68214628461B6863
:1020E00098471035C9E726882046C1F3C20700F09B
:1020F000BDFAC6F382160246002EEDD00028EBDBB7
:1021000001233946284600F0ABF9B042E9D3E3E7B2
:10211000BDE8F08101170024700F0024C8FA000800
:10212000D8FA00086C0F00244808002470B50D4D43
:10213000297861B90C4C01200C4EFFF78FFEB44298
:1021400006D3FFF781FF0028FBD101232B7070BD60
:1021500063685B791BB1236820469B6898471034FD
:10216000EDE700BF02170024C8FA0008D8FA0008FB
:1021700000212DE9F0470846FFF770FE044658B3EA
:102180004FF4FA784FF000091C4B0DF079F81C4A17
:102190001B58136033B11B4B1B68092B02DD1A4817
:1021A00006F066FE0025194FDFF85CA044B120461A
:1021B000FFF7EEFD044618B94FF0FF384FF0FF3936
:1021C000FFF742FF064628B9B5B942464B4650468E
:1021D00006F084FE3546E9E74FF0FF384FF0FF394F
:1021E000D2E72B689B691BB100222846114698470D
:1021F0001035BD42F5D3E8E7054DFAE708000000C9
:10220000680F0024700F0024BC020024D8FA0008D4
:10221000C8FA000813B5184809F0D1FD174B1B7810
:1022200073B1EFF31184102383F31288BFF36F8F20
:10223000FFF70AFF84F31188BFF36F8F02B010BD60
:102240000F4B1B68002BF9D050B9002200230D481A
:10225000CDE9002342F21072002307F04DFDEDE7B7
:102260000928EBD107480CF079FD074802B0BDE81A
:10227000104006F0FDBD00BF700F002402170024BF
:10228000680F002450080024BC020024064B10B53F
:1022900004461B6898472146A060044809F00DFCDD
:1022A000BDE81040FFF7B6BF04000024040200247C
:1022B000044A054B9B1AB1EBD30F34BF52F83100DF
:1022C0000020704740FA0008C8FA00080B480021B7
:1022D0000B4B1B1A043030B5DB080A4C994200D175
:1022E00030BD10F831200131256802F0070225F0D9
:1022F00007052A4344F8042BF0E700BF40FA000822
:10230000C8FA000848020024F8B50B4F06460B4DEA
:102310000024ED1BED08AC4203D14FF0FF34204602
:10232000F8BD57F8340020B13146FEF7C9FD00284A
:10233000F5D00134EFE700BF40FA0008C8FA000802
:1023400000282DE9F047884615461F461DDADFF8BC
:1023500098904FF0000A254E5446A6EB0906360920
:10236000B24509F1100902D12046BDE8F08759F8BD
:102370000C0C3B462A46414600790AF1010AFFF758
:10238000DFFF844238BF0446EAE7194B194AD21AE4
:10239000B5EBD20F25D203EBC5031C79BC4228BF95
:1023A0003C46C0B20722144E002100EB400056F814
:1023B0002530824023EA020304F0070282401343DF
:1023C000032223FA02F0033200F00700814238BFF3
:1023D00001461E2AF5D123F007030B4346F82530AA
:1023E000C2E70024DDE700BFC8FA0008D8FA0008F9
:1023F00040FA0008C8FA000848020024F8B5094D60
:102400000646094B0F460024ED1AED08AC4200D3F6
:10241000F8BD22B201343B4600213046A4B209F097
:10242000F6FCF3E7C8FA000840FA000838B50B4B91
:102430000D4611464268C31A04461B11013313713D
:1024400043689971FFF7DAFF636801221D606368D2
:102450005A71BDE83840FFF757BD00BFC8FA000801
:1024600070B14168097973B1002A17DBCBB20C490E
:1024700003EB430351F82200D84000F007007047F7
:102480004FF0FF31EFE707490748401AB2EBD00F92
:102490003ABF01EBC2010879184670470420704723
:1024A0004802002440FA0008C8FA00082DE9F04F5D
:1024B0008FB0C1F34A280D46914604AF0C0DB860A9
:1024C0007B60B8F1000F67D0002607F114034FF0CE
:1024D000040B4FF00A0AC7F80C8032467E62484669
:1024E000C7E90766019307F11C03CDF808B0CDF8E2
:1024F00000A0F968FFF7F0F9B0F5006F034620D3AC
:102500002A48036813F0060F17D06C468AB0D9F832
:10251000041004AB264D1A46C3E9055140F2FF7181
:10252000D9614FF400711984224B42F8103F4FF4E7
:1025300012513346FFF7BAFFA5462C37BD46BDE81A
:10254000F08FC0F30A0804F117003B60184468F3E9
:10255000532520F007008008FFF75AFD044690B18C
:102560003B6800F11001144A4846F961C7E9083692
:1025700007F11403CDF808B0CDE900A307F11C035F
:10258000F968FFF7A9F968F353257B68B968204615
:102590002A4609F066FCD0E704F1170020F0070096
:1025A0008008FFF735FD0446EDE700BF6C0200240C
:1025B000D30E01080400000137BE00082DE9F04FDA
:1025C00087B00446934698460391DDE91279DDE928
:1025D000105ADFB13B46524610210020CDF8009042
:1025E000CDF81490FEF7A6FFB0F5006F06460ED3A7
:1025F0001C48036813F0060F30D040F2FF731A4AEC
:10260000022107B0BDE8F04F09F084BC3E4604F05B
:10261000070405F117000BF0070BE400304444EA0F
:102620008B1420F0070044EA4624800844EA05544D
:10263000FFF7EEFC054640B13FB13B4652463146FE
:102640001030CDF80090FEF775FF434622460399FF
:10265000284607B0BDE8F04F09F003BC07B0BDE85D
:10266000F08F00BF6C020024120F0108406820B1F7
:10267000034BC01A40F38F0070474FF0FF30704794
:10268000480200240EB403B503AB0146054853F8D5
:10269000042B019303F026F902B05DF804EB03B0BC
:1026A000704700BF5FBF0008CA0605D48B064CBF49
:1026B00002490349FFF7E6BF704700BF0013010856
:1026C0004A0F01082DE9F04F89B09B4604460D469C
:1026D000149B90469DF84CA00693159B179E05935E
:1026E000169B0493BAF1000F00F09D8006F48073EE
:1026F00006F00209079309F088FB024600283ED045
:1027000091492046FFF7BEFF0746B9F1000F08D0F8
:1027100016F0440F35D12A468C492046FFF7B2FF08
:10272000074406F0010353B1894B2046894953F809
:102730002A20894B002A08BF1A46FFF7A3FF06F498
:102740008073002B49D006F00803002B63D1B8F149
:10275000000F66D0424681492046FFF793FF0546A9
:10276000069B3D44002B6DD1049B002B73D1F307D6
:1027700000F1E48031462046FFF796FFD8E0074697
:10278000C3E7774B18680028CAD0764B4FF47A79A4
:102790004FF461614FF03C0C1B68B5FBF3F5B5FBE2
:1027A000F0F300FB135509FB05F5B3FBF1F2B5FBA4
:1027B000F0FE01FB123100FB1E55B1FBFCF309FBDF
:1027C00005F50CFB1311B5FBF0F5009120466649A9
:1027D000CDE901E5FFF756FFA2E706F00803EBB1EC
:1027E000624B2046624953F82A20FFF74BFF05460B
:1027F000B8F1000F05D0424658492046FFF742FF86
:102800000544BBF1000FABD05A465A492046FFF7AA
:1028100039FF0544A4E74FF0000BE1E706F0080597
:10282000E6E745469CE7BBF1010F069B06D1002B6E
:1028300064D1049B002B7BD000250CE0002BF8D04A
:102840004D485CE04D48069B22464D4908F039FF53
:10285000049B002B68D0DFF82C81DFF82C91049FBB
:102860004FF0000B31462046102F28BF1027FFF7EE
:102870001BFF5D4545DC059B4FF0010B494620469B
:102880001A78FFF7FFFE1BF0070F03D141462046E1
:10289000FFF7F8FE5F453BD9059B4946204613F8F4
:1028A0000B20FFF7EFFE0BF1010BBBF1100FEAD18C
:1028B0004FF0000B35492046FFF7E4FE5A46059BD2
:1028C00020469A5CA2F120015F29314928BF2E22BF
:1028D000FFF7D8FE0BF1010BBBF1100F1DD01BF061
:1028E000070F03D141462046FFF7CCFE5F455A460D
:1028F000E5D841462046FFF7C5FEEBE71F485546A1
:10290000A1E7414620460BF1010BFFF7BBFEB0E704
:1029100020492046FFF7B6FEC5E7059B3B440593DB
:10292000049BDB1B04939AD1BAF1000F7FF41FAF15
:10293000204609B0BDE8F04F09F004BB064A204626
:102940000449FFF79FFE15E7520F0108560F0108D3
:10295000F4FC0008E91301084D0F01087B0F010882
:102960007C0F0024780F00245F0F010808FD000889
:102970007F0F0108850F010895BF00085FBF0008A1
:10298000E5580008920F01088A0F0108940F01080A
:10299000FC190108900F010842F20F73114A8B4293
:1029A00073B5044628BF0B4605680521684607F045
:1029B000EDFB636806460B2228465B680A4909F06E
:1029C000B3FA63683246694628465B6809F0ACFA98
:1029D00063681B2205495B68284609F0A5FA02B026
:1029E00070BD00BF97250108B20F0108960F0108BE
:1029F00000210123064A904206D8064A01B9012364
:102A00001360054B18607047400801215B00F2E736
:102A100040420F00780F00247C0F0024014B03601C
:102A2000012070471CFD000810B5044605F006FEA5
:102A300003490246204609F093FC002010BD00BF68
:102A40000510010837B51346002205460A210192F8
:102A500001AA586801F0CEFB019C4CB920EAE07055
:102A60000A2180FB010106F073FE204603B030BD51
:102A700022460349284609F08FFC019CF5E700BF78
:102A800031100108034A044908B509F069FC002027
:102A900008BD00BF21110108281101082DE9F341EB
:102AA00017460023044601AA0A21B868019301F0E1
:102AB000A1FB019DC6B24DB12A461449204609F03A
:102AC0006BFC019D284602B0BDE8F081042E09D9B7
:102AD00032460F492046012509F05EFC204609F0E8
:102AE00096FCEFE77868FFF70FFCB0F1000804DA16
:102AF0007A682046074909F04FFC002133460FFA57
:102B000088F2084609F083F9DCE700BF5311010899
:102B10007A1101089111010810B5044605F070FD05
:102B200007490246204609F01BFC2046054909F0EA
:102B300017FC2146044806F0E3FE002010BD00BF4C
:102B400023120108421201084D2B000870B58EB007
:102B500004460D46D0F89C600BF0C0FF224A0346A5
:102B60000CF08EFB1058214A2149002B18BF1A4641
:102B7000234600921F4A844218BF0A4628461E492F
:102B800009F0EEFB28461D49D4E90A23CDE90023CC
:102B900094F90E30227B09F0E3FB06A9202220469F
:102BA00006F008FA636E02461549284609F0D8FB7C
:102BB00005A920460BF0A2FF024628B1114928467C
:102BC00009F0CEFB0EB070BD059B64222846F11AB9
:102BD0004A4300910C49B2FBF6F2CDE9016232465C
:102BE00009F0BEFBEEE700BF080000004C12010830
:102BF000920F0108D52301084F1201085B1201084A
:102C0000871201089E120108CB120108F0B591B09D
:102C1000002504461C2208AF294609A8144E0CF0D2
:102C200061FA1A22202138460CF05CFA214611483C
:102C300006F066FE07AA4FF4006130460BF052FF23
:102C4000079A64232046C2F5006100974B43DB0AD4
:102C500005934FF40063CDE90313CDE90132064932
:102C60002B46A6F1400209F07BFB284611B0F0BDCF
:102C7000402700247D2C00081C13010870B5044671
:102C800088B00D46D0F89C6007A90BF037FF0246CC
:102C900028B10F49284609F063FB08B070BD2046F3
:102CA0000BF01CFF079B64220096F11A4A43B2FB0B
:102CB000F6F2CDE90131074B0749002818BF03465A
:102CC0002846CDE90362224609F04AFBE5E700BF4A
:102CD0009E1201084C120108651301082DE9F0430A
:102CE00087B005461A4F6846DFF8688005F0D8FDC2
:102CF0001423009E0821184A03FB0066284609F0A9
:102D000022FBDFF85890009CB44203D3002007B0A8
:102D1000BDE8F08323680BB11A7832B923463A46EE
:102D2000142101A807F032FA01AB424608212846D7
:102D300009F009FB204614340BF01EFE084B094A2B
:102D40000821002808BF4B46284609F0FCFADBE7BB
:102D5000E2130108E7130108D8130108CF13010893
:102D6000C91301085B1A01082DE9F0411446884691
:102D7000074610220021606807F0AAFAB8F1020F96
:102D8000064607D82023254A0821384609F0DBFAF1
:102D9000336816E00A220021A06807F099FA1F4A5A
:102DA000C5B2082138462B4609F0CDFAB8F1030F19
:102DB0001AD1102D0CD0202DEAD0082D0BD133784C
:102DC000DBB2174A0821384609F0BDFA002009E0B5
:102DD00033889BB2F5E73846124A082109F0B3FA66
:102DE0006FF01500BDE8F08110220021E06807F0C7
:102DF0006FFA0D4A034604460821384609F0A3FA43
:102E0000102D06D0202D07D0082DE4D1E4B2347067
:102E1000DCE7A4B23480D9E73460D7E71B1401089B
:102E20004614010830140108571401082DE9F04F29
:102E30004FF0FF35594B9146202601222C46DFF8F2
:102E400060A185B0074688461A6002F079FD4946C0
:102E50005246404602F098FD411C06D16A1C50D1F2
:102E60005049384609F098FA1CE073281FD077289B
:102E700032D0612816D1DFF830B110220021DBF802
:102E8000000007F025FA05460028E0D1474B0CF07A
:102E9000F7F91B58162BDAD1DBF8002044493846E5
:102EA00009F07AFA6FF0150005B0BDE8F08F002246
:102EB000DFF8F4B01146DBF8000007F009FA044629
:102EC0000028C4D1394B0CF0DBF91B58162BBED1AE
:102ED000DBF800203749E2E70022DFF8CCB01146EA
:102EE000DBF8000007F0F4F906460028AFD12F4BBD
:102EF0000CF0C6F91B58162BA9D1DBF800202E497F
:102F0000CDE7631C01D12D49ABE75FFA86F8C6F324
:102F1000C406002C3FD06B462946A6EB050C1A468A
:102F20000CE0B8F1100F1DD0B8F1200F20D0B8F18F
:102F3000080F2AD10878187031443344A64203D8C8
:102F40000CEB01001028ECD9102CA146294638467C
:102F500028BF4FF0100910354B46A4EB090401F0CF
:102F600021F8D6E7088880B21870000A5870E3E7A5
:102F700008684FEA102E187083F801E04FEA104EEF
:102F8000000E83F802E0D870D6E70D4A08213846D3
:102F900009F0D9F986E7204686E700BF74000024CF
:102FA000A5140108AC140108381200240C0000001C
:102FB0006B1401087E14010891140108C91401085A
:102FC0003014010870B50F4E04460D46337871B1C8
:102FD00023B10D49BDE8704009F0DEB9012333701B
:102FE0000A49204609F0BCF90123337004E083F05C
:102FF00001033370002BF3D129462046BDE8704011
:1030000009F022BA03170024E31401081E15010871
:1030100070B504463B480378182B02D10B78112B6E
:1030200031D0013A0B468D18AB4225D18B5C0A7822
:103030000370A2F13003344C092B04D922F0200391
:10304000413B052B04D823683049CA54013323601F
:103050002368022B33D1102200212C4807F038F9C5
:103060002B4A136803F8010B13602A4A13680133D3
:1030700013600023236022E013F8016B182ED3D1D4
:103080001E78112ED0D1234D204623492A6809F0FD
:1030900067F920460021FFF795FF204B187870B99B
:1030A0001F4A2B681168042B0ADC08B111602B60E1
:1030B00013F003010BD1126813681BBA136070BDC3
:1030C0000868043B00BA41F8040B0120EBE75B42BF
:1030D00003F0030358BF5942022904D11268138830
:1030E0005BBA9BB2EAE70329E9D1106802681104D0
:1030F000C2F3074302F47F4201F47F010B43134301
:103100000360DCE704170024800F00240617002466
:103110008C0F0024840F0024481501080517002493
:10312000880F00242DE9F84F00230C462A49064653
:10313000DFF8A88015460B60DFF8A4902949DFF876
:10314000A8B088F800300B60012C2F4655F804AF6A
:103150001ED90222494650460BF0E9FF80B99AF881
:103160000220003A18BF0122924420490222504610
:103170000BF0DDFF30B9012388F80030013CE3E7B4
:103180000022F1E749465046FDF79AFEA8B90437F8
:1031900000227868114607F025F80022144B1146EA
:1031A0001860786807F01EF8124B13491860304613
:1031B000FFF708FF0020BDE8F88F9AF800202D2ABD
:1031C000E6D19AF80120002AE2D05246594630460C
:1031D00009F0C6F8D2E700BF800F002405170024CD
:1031E00062150108840F002468150108651501089F
:1031F0008C0F0024880F00241130000807B50A48FE
:103200000BF0BAFB60B10423084A0749009301237D
:103210001268074800F02CFF002003B05DF804FBA3
:103220006FF01200F9E700BFD8F4000814FE0008A0
:10323000D8FA000810B54468A3604023C4E900121E
:1032400042680821D36402F15803D16202F15001AF
:103250001363002314685363136411615361136291
:10326000C2F8D030C2E90E33C2E91133C2E90633E5
:10327000C2E90933A36823B19B6C13B1044920460A
:103280009847A3689B6A0BB120469847002010BD61
:10329000953200082DE9F74304460D4683685B6CC0
:1032A00003B19847A3685B6B0BBB4FF0000905F1B6
:1032B0003008EA6C01A9404608F0C6FC0746002821
:1032C00036D0A36801999B693BB3024620469847D4
:1032D000064628B33146404608F0D6FCB7424FF0C8
:1032E0000109E6D0D5E901310020984703E02046E6
:1032F00098470028D9D1A3685B6A63BB05F1100722
:10330000EA6A01A9384608F0F3FC064650BB20469D
:1033100008F09CFEC5F8D0602FE06FF05706D9E7A3
:103320000146404608F0B0FCB9F1000FE3D0D9E700
:103330001648036813F0060F03D0154A022108F05F
:10334000E0FDA3689B69002BEED001220DF1030183
:1033500020469847E8E7204698470028CED103B09A
:10336000BDE8F083A36801995B695BB10246204622
:1033700098470146384608F0DAFC0120D5E90131CA
:103380009847ECE76FF05701F4E700BF8002002494
:10339000CF16010810B581680446183101F05EF9B6
:1033A000A1682046024A1831BDE8104001F0FCB87F
:1033B0001117010838B583680446D3F87831DB0764
:1033C0001DD4C06909F065FD606803685B689847B3
:1033D000054620B9E06809F030FFA3681D75A368B1
:1033E0005B6C13B1294620469847A36800220BF076
:1033F00047FFC3F82022034B185801F0E9FE6FF095
:103400000F05ECE708000000014908F0BDBE00BF51
:1034100000130108F7B5044680680D46D0F87831EE
:103420005A0705D5002108F0D7FEE06809F0D7FE5D
:10343000E368DB6873B9002D3BD0A66806F1560738
:10344000384608F0AEFE002835D0394606F1D600E1
:10345000FDF740FDA2680DF106032946E0685632EB
:1034600009F0C0FE58B9A06800F1D6015630FDF74A
:1034700031FDA068563008F094FEADF806002046F5
:1034800009F0D3FAA368D3F874319B0603D50B492E
:10349000606908F079FE204600F014FFA268BDF8CC
:1034A00006302046A2F85230A268A2F8503009F047
:1034B00022FA03B0F0BD86F8D600CBE738FC00084E
:1034C0002DE9F04FA7B004465422002111A80BF0BB
:1034D00009FE00232046CDE90533A3685633029345
:1034E00009F0AAFA204609F0EFF910B96069FFF770
:1034F0008BFFA06814220021002618304FF0FF3700
:103500000BF0F0FD204609F086F9A168E068B246AC
:10351000B1F850200DF144085631B3463546B14656
:1035200009F097FE204609F016FF0396DDE9053203
:10353000012A6DD0132B6ED85FBBBBF1000F0AD0F0
:10354000204609F025FFA268142311A956320DEB7D
:10355000030008F0DFFFB9F1000F0CD099F811302B
:10356000FE2B08D1059B26AA02EB830252F8542CAD
:103570000AB101330593A068059D436A002B40F012
:10358000B680CEB1C3699E422DD000F118050D96CC
:1035900024E00223029A414606A808F0BBFFD8F8AF
:1035A000042006990346029231B101290AD148B19B
:1035B0006D4A204609F0F1FA6FF00705284627B05A
:1035C000BDE8F08F059B002B34D0D8F8000001F047
:1035D00065F898B166B1A5680D9618350CAE0FCE9A
:1035E0000FC533682B6020460125FFF7D3FEE5E7C2
:1035F0005E4A0121204609F0D0FADDE7059BCBB1F8
:10360000D8F800202946204601F0E4F9022809D123
:10361000059B132B91D9069B022B8ED1544B012174
:10362000544AC6E7032805D0059B4FF0010B013330
:1036300005937BE7039B33B907AAD8F800104846E7
:1036400009F05FF8054608F10408013F9DB3EB68F7
:10365000BBF1000F08D0F3B1204609F0EDF9204688
:1036600009F049F9444AC4E7ABB1A368AE46DDF8B6
:1036700014A003F1180CBEE80F00ACE80F00DEF850
:103680000030CCF80030AB682BB96B7CFE2B04BF4C
:103690002F7C07F1FF37D5F804C0BCF1000F08D02C
:1036A000AE460CAEBEE80F000FC6DEF80030336049
:1036B0006646A94603E0059B53B101230393069B8D
:1036C00017B9022B7FF432AF059B013305932DE729
:1036D000A368DB6A13B1DB68002BEED1274B012115
:1036E000274A20460093119B09F057FAE5E790F826
:1036F0002830A5EB0A05BBB190F829104FF6FF72F0
:10370000FF2918BF0A469D4202D313449D420BD99C
:10371000836901211B4A204609F03FFA20466FF0D9
:103720001505FFF737FE49E7012108F04AFDA068BB
:1037300000F5037008F069FDA36811AA29465B6AC9
:10374000204602EB8A0298470546A0684FF0FF32F8
:103750004FF0FF3300F5037008F0FEFC0021A06875
:1037600008F02FFD2AE700BF1F17010833170108D3
:1037700094170108AC1101085117010880170108BE
:10378000881A0108B817010810B502228368044698
:103790001A7583689B6CBBB908F0B5FC8368D3F8D5
:1037A0007831DB040BD50321084B094A09F0F5F900
:1037B000A0686FF4805100F5BC7008F0BEFC204694
:1037C000BDE8104000F0D2BE10BD00BFD317010805
:1037D000E91301082DE9F04F04468068B1B00121DA
:1037E00000F5BC7008F09AFCA3681B7D022B20D169
:1037F00000230993A36860689E6C03681D6909AB88
:103800000EB310221BA9A847099B93B10121A06800
:1038100008F0D7FC099A1BA92046B0470021A068F0
:1038200008F0CFFCA3689B6C002BE3D12046FFF788
:10383000ABFFA0686FF0010100F5BC7031B0BDE8CE
:10384000F04F08F07ABC01220DF12301A847099B33
:10385000002BEED09DF923209DF82310002AA368A9
:10386000C8DB5A7D032A00F29482DFE812F00400DC
:103870008102980292020D297CD00A2958D0B3F80F
:10388000782109296FF3CA02A3F87821A06800F013
:1038900086803DD80029ADD0082900F0F881034684
:1038A000D3F874219207A5D501391629A2D801A20F
:1038B00052F821F0413E0008C93C0008D13C000804
:1038C000C13C0008353E0008EF3C0008F537000811
:1038D000F5370008F5370008F5370008F73C000811
:1038E000FF3C0008F5370008293D0008F5370008BF
:1038F000333D0008F5370008F5370008F5370008B4
:10390000F5370008373D0008F5370008613D00082D
:103910001B2941D07F2900F0C681A1F12002034676
:103920005E2ABDD8012108F057FC9DF82310B7E0AE
:10393000D3F87821C2F3C7022AB1D3F87821C2F3B1
:10394000C7020A2AACD1B3F8782161F3CA02A3F8FE
:103950007821A568B5F85010C1B9284608F03CFC9C
:10396000E06809F03CFC6069FFF74EFD2046FFF778
:103970000BFF3FE7D3F87821C2F3C702002AE2D059
:10398000D3F87821C2F3C7020D2ADBE72046FFF700
:1039900097FDC5F82402E9E7012343752AE7D0F82B
:1039A00074319B077FF526AF012108F015FCA06854
:1039B000B0F850307F2B3FF41DAFB0F8522000F12B
:1039C0005601D63000250BF065FBA3681BA90BA898
:1039D000B3F85220134483F8D6501423A268D63289
:1039E00008F098FD0B9914293FF604AF30AB03EBB8
:1039F000810343F8545CA368B3F85220002A53D0E3
:103A0000134493F85530202B02D0093B042B4BD89C
:103A100000294CD100250A9530AA0A9B002602EB0A
:103A20008303B346B04653F854AC3746504608F0CB
:103A3000B8FB814616AA3946284600F0A1FB03468A
:103A4000002840D1012EA76865D130AA0A9B02EB5D
:103A5000830353F8540C08F0A4FB07F11802064640
:103A60004146284600F08CFB0568284608F099FB83
:103A7000864205D0821BA919204692B209F0D4F8DB
:103A8000A068B0F85230034493F85630202B31D060
:103A9000093B042B2ED9D0F87431DF072FD4202115
:103AA000204600F02BFDA5E60129B3D901390020FD
:103AB0000CAB1BAA00930AAB019008F04EFE054622
:103AC0000028A9D196E61B684A465146184603933A
:103AD0000BF02DFB60B9039B1846FDF703FA584520
:103AE00038BF5846002E08BFB84601361FFA80FB83
:103AF00001379FE70121204608F031FF7AE60021D7
:103B000008F074FB2021204600F0F8FC0121A06899
:103B100008F06CFB6EE604907FF66CAE30AB0A9A50
:103B2000C14603EB820252F8543C1846039308F056
:103B300038FB049B0590A7F840300496A2684946DC
:103B4000284609F10109183200F01AFB039BD0F84E
:103B500000A04BB1BAF1000F06D0059A19465046A5
:103B60000BF0E5FA0028E9D1A168BAF1000F4CD1B9
:103B7000A1F840A0049B013B0493DFD1606908F1E8
:103B8000010AFFF741FC204600F0F0FC30AA0A9B36
:103B900002EB830353F8540C08F003FB414611AACF
:103BA0008146284600F0ECFA0746A0687F22396873
:103BB000D6300BF0CEFA3B684FF6FF770393B8464A
:103BC00016AA514628460AF1010B00F0D9FA00283E
:103BD00051D0A16800220368D53111F801EF985C3B
:103BE000704503D110B101324245F6D1B9F1000F51
:103BF00001D04A4507DBBA4206F1FF36A8BF3A4674
:103C0000012E97B237D0DA46DAE79948069108F0E4
:103C1000C8FA069900EB0B074A8FBFB20791121A38
:103C2000504692FBF7F292B2069208F0BAFA079960
:103C30003F1A069AB1F84000BFB200F1010CA1F89A
:103C400040C0B0FBF2F102FB110080B260B9884BBA
:103C50000621884A2046CDF800A008F09EFF39468C
:103C6000204600F019FB85E75346834A062120468B
:103C700008F093FFF3E7002F3FF4BCADA7EB090278
:103C80000399204692B2494408F0CEFFB2E5D0F83D
:103C900074319E077FF5AEAD012108F09DFA2046F4
:103CA00008F0E3FFA6E5D0F874319D077FF5A2ADDB
:103CB000012108F091FAA368D3F874311907EED402
:103CC000204608F0B3FF95E5204608F0BEFE91E5DA
:103CD000204608F0B1FE204608F0F6FD10B96069F4
:103CE000FFF792FB0121A06808F076FA3EE6204635
:103CF00008F0B4FE7EE5204608F0BBFE7AE5D3F876
:103D000074319B0603D55D49606908F03DFAA368EC
:103D1000D3F874319F0603D55949606908F034FA25
:103D2000204600F023FC65E500212046FFF772FBEA
:103D300060E50121F9E7204608F077FE204608F00B
:103D4000E2F90121A06808F047FAA368D3F87431BA
:103D50009E067FF54FAD4B49606908F015FA49E5BD
:103D6000204600F029FB0121A06808F035FA41E562
:103D70005B2902D102225A753CE5D3F874319D07C4
:103D800006D5622907D14FF0FF31204608F00FFE1B
:103D9000A3680022EFE76629FAD10121F5E70022A6
:103DA0005A75A268D2F8743198077FF523ADA1F156
:103DB00031031B2B3FF61EAD01A151F823F000BFCC
:103DC0003D3E0008493E00085D3E0008313E0008C7
:103DD000F5370008F5370008F5370008F537000813
:103DE000F5370008F5370008F5370008F537000803
:103DF000F5370008F5370008F5370008F5370008F3
:103E0000333D0008293D0008EF3C0008C93C00088C
:103E1000F5370008353E0008F5370008413E000838
:103E2000F5370008F5370008F53700084D3E000863
:103E300003235375204608F0FFFDDBE4032353758D
:103E4000204608F0F2FDD5E403235375A068D0F8AE
:103E5000741101F0010181F0010159E6032353754A
:103E6000A368D3F874319B077FF5C4AC28E700BF83
:103E7000910F010817180108E91301083DFC00081B
:103E800042FC000838FC00082DE9F0410446806837
:103E9000154600F5BC70002937D04FF4804108F07A
:103EA0003DF9A3680021DD64606803689B6898475A
:103EB00000284BD1204608F0CEF9002846D1244EE8
:103EC000244FDFF89480A06800F5DE704FF0FF32D9
:103ED0004FF0FF33032105F049FF0546A0684FF07E
:103EE000FF324FF0FF3300F503709DB108F034F955
:103EF00020462B46194A012108F04FFEA068BDE874
:103F0000F04100F5037008F080B96FF4804108F0CB
:103F100014F9C6E708F020F932460221204608F0DD
:103F20001DF93A462946204608F018F9204642462F
:103F3000012108F013F9606803685B6903B19847D1
:103F4000A06800F5037008F060F9BCE7BDE8F081F7
:103F5000B5330008D53700080FC200081D18010846
:103F600010B504460A4908F0FBF90A49204608F052
:103F7000F7F92046084908F0F3F92046074908F008
:103F8000EFF92046064A002100F00EFB002010BD8C
:103F90003418010872180108D11801082519010800
:103FA000BF190108F8B51E4617460A4629490446B6
:103FB00008F0D6F93EB301253A782749204608F0A3
:103FC000CFF96A0703D12549204608F0C9F9AE4266
:103FD0001ED97A5D2046204908F0C2F90135102D1E
:103FE000EFD11F49204608F0BBF9B6B901251B499E
:103FF000204608F0B5F9AE422B4610D817492046A6
:1040000008F0AEF915E001251649204608F0A8F998
:104010001449204608F0A4F9E0E700252B46FA5C95
:1040200020461149A2F120035F2B28BF2E2208F061
:1040300097F90135102D06D06B07DCD107492046D2
:1040400008F08EF9D7E720460849BDE8F84008F0A7
:1040500087B900BFD51901088A0F0108920F01081E
:10406000940F0108900F0108FC190108DC190108E0
:104070002DE9F04304468068884689B0D0F82012C4
:1040800015461F46002960D14FF40A720BF02AF83A
:10409000E06809F046F9A06800F503704FF4DE7996
:1040A0004FF4BE760AF0FDFCA06830440AF0B8FF79
:1040B000A0680022012183191036484409F114092F
:1040C0000AF085FFB6F5DE7FEED1A3690026022156
:1040D0001E6066F38205A06800F5BC7008F01EF84B
:1040E000A368502220465A871822A3681A8721689D
:1040F00008F060F9A368164A4146C3F87451606835
:1041000003681D682346A8470546D0B9A368012265
:104110001A75D4E90A010022002304950094CDE920
:1041200006230E234FF400620393109BCDE9017325
:10413000084B05F003F8A368C3F82002616A04F095
:1041400029FF284609B0BDE8F0836FF07705F8E74E
:10415000AFC10008893E000810B5044613460A4660
:104160000146064801F0BEFB23691B7923B12046B6
:10417000BDE8104008F06EB910BD00BF6DC4000866
:1041800038B50B46154648B91449154A521AB3EBCF
:10419000920F05D251F82350284638BD84680CB9D7
:1041A0000025F9E70F4A94420AD30F4A944207D2F6
:1041B00018462268294690472B68002BECD1EFE780
:1041C0000A4A944202D30A4A944205D3246814222C
:1041D0005343E518E358F0E70133F8E708FB00081C
:1041E00038FB000828FC000828FC000838FB000801
:1041F00028FC0008F7B516460278002304462D2A4D
:10420000019305D16FF015030020336003B0F0BDBA
:104210000C4F0BF035F805460A46C35101A920465C
:1042200006F056F8EB59222B02D16FF02103EBE791
:10423000002BE7D1019BA342E4D01B78002BE5D0F3
:10424000E0E700BF0C0000008368D3F874319B06E0
:1042500003D50249406908F018BB704748FC0008C4
:10426000014908F012BB00BF001301080A1E0DDC53
:104270000ED042238168D1F87411890608D5002A2E
:1042800004494069B8BF524208F0FFBA4123F1E740
:10429000704700BFF81901080A1E0DDC0ED0442338
:1042A0008168D1F87411890608D5002A044940694B
:1042B000B8BF524208F0E9BA4323F1E7704700BFA4
:1042C000F81901082DE9F04785680446DFF8649085
:1042D00005F15600FCF706FE002386B295F83C7007
:1042E0009846A268558FED1BB54209DB002E1FDDF5
:1042F0005633606910491A44BDE8F04708F0C5BA62
:104300001D44563349462A4492F856A082F85680F6
:10431000A26860691A4408F0B8FAA3682B4483F8CD
:1043200056A0A3685B8FDB1B0027F61A2B46D8E745
:10433000BDE8F087AC110108E913010808290A4615
:1043400017D8836893F83E10914212D083F83E202C
:10435000082A8368D3F8743105D0990609D5054930
:10436000406908F092BA9B0603D50349406908F0FA
:104370008CBA7047FF1901084DFC000838B50D468E
:1043800009780446FFF7DAFF6A78072A11D8A3688C
:1043900093F83F1091420CD083F83F20A368D3F8E4
:1043A00074319B0605D560690249BDE8384008F0C4
:1043B0006CBA38BD081A0108F8B583680446B3F82A
:1043C0005020002A55D0B3F85210002951D0553151
:1043D00003F156050B441846A84206D3014611F8CE
:1043E0000169202E3CD0A8423CD286B2471C9DB227
:1043F000AB1B9BB2591CD21A014438460AF058FE36
:10440000A268711B2046B2F8503013FA81F309B24A
:10441000A2F85030A368B3F850201344002283F868
:10442000562008F09CFAA368D3F874319A0603D595
:104430001049606908F029FA3B460F4A08212046D6
:1044400008F0ABFB2046FFF7FFFEA368D3F87431FA
:104450009B060ED560690949BDE8F84008F015BA19
:104460000846B9E7014611F80169202EBDD008467B
:10447000B9E7F8BD52FC0008E913010856FC000832
:104480002DE9F04104460D4617460AB1FFF7DCFE60
:10449000A368B3F85220D3F87411563213444A0774
:1044A00021D51846DFF84C80FCF71CFD0646A6B95E
:1044B000A368B3F85020A3F85220A06808F0F2F9DE
:1044C00020B107B115B16069FFF7CAFE6942204605
:1044D00009B2BDE8F04108F042BA41466069013EC8
:1044E00008F0D3F9E3E7044A0821204608F055FB19
:1044F000DEE700BFD5230108E913010813B583687F
:1045000004468DF80710D3F87421D00725D5B3F8E9
:104510005210B3F850208A421FD0481C9DF8072043
:10452000A3F852000B4483F85620A368D3F8741103
:10453000890710D5D3F87431606913F0040F0A4964
:1045400018BF2A2208F0A1F9204608F0BDF910B1E1
:104550006069FFF785FE02B010BD01220DF1070171
:10456000204608F027FBF6E7FC19010810B50446C1
:104570008368094A022108F010FBA368D3F874315C
:104580009B0707D52046FFF79DFE2046BDE810405B
:1045900008F0C0B910BD00BFE9130108014908F0D7
:1045A000EDBC00BF001301082DE9F04F0E460021BD
:1045B00089B0044617460D4603AA304601F10108AA
:1045C000FFF7DEFDB0B995B127B13A460821204684
:1045D00008F0E3FA00211E4FDFF87890DFF878A0AA
:1045E00003AA304601F10108FFF7CAFD60B909B01E
:1045F000BDE8F08F006810B1FCF774FC80B2854212
:10460000414638BF0546D7E703688BB11A787AB1BF
:10461000D0F804B04A4608212046CDE900533B4675
:1046200008F0BBFABBF1000F04D16069FFF7B6FFD9
:104630004146D5E7524620463B46082108F0ADFAF0
:10464000AA1D5946204692B208F0A5FCF0E700BF2B
:10465000261A0108111A0108850F0108F7B50F681D
:1046600005460E46A7B13846FCF73CFC84B2094B20
:104670002846094A082100933B4608F08EFAE21CBE
:104680007168284692B203B0BDE8F04008F083BCE0
:104690003C46ECE7221A01081818010810B5074932
:1046A0000446FCF70DFC38B105492046FCF708FC30
:1046B000B0FA80F0400910BD0120FCE7181A01088B
:1046C0001B1A010810B583680446D3F874319B06A1
:1046D00003D50649406908F0D5FCA36850220020A4
:1046E0005A871822A3681A8710BD00BF5AFC000819
:1046F00008B5836902491A6807F032FE002008BD38
:10470000291A01082DE9F3410E4905460E4C07F020
:1047100027FE0E4E0022DFF83880B44202F1010776
:1047200003D3002002B0BDE8F081636A92B2414633
:1047300028460093303454F8283C07F011FE3A46DE
:10474000EBE700BF391A0108D8FA000808FB000897
:10475000511A0108024908B507F02CFE002008BDD7
:104760000113010873B5044600250C4EA2680DF133
:1047700006030121E068D63208F034FDBDF80600DA
:10478000A36838B12A46D63331462046013507F0B2
:10479000E7FDEBE783F8D60002B070BD621A0108AE
:1047A00010B5044607F048FE03490246204607F0CC
:1047B000D7FD002010BD00BF120C0108022907B56B
:1047C0000BD153680C4900930C4B126807F0E4FDC1
:1047D0006FF0150003B05DF804FB8368084AD3F856
:1047E0007431084913F0020F074B18BF1A4607F03F
:1047F000B7FD0020EEE700BF851A0108701A010816
:104800006C1A01088E1A01084011010810B583685E
:104810000446D3F874319A0603D50749406908F075
:1048200031FCA368D3F874319B0603D50349606952
:1048300008F028FC002010BD61FC000866FC0008A0
:104840000129F0B5044685B00AD053685B4900934E
:104850005B4B126807F0A0FD6FF0150005B0F0BDCE
:104860008368D3F87431990603D55649406908F036
:1048700009FC6FF0F9012046FFF7F8FCFA21204609
:104880000025FFF709FDA06880222946D6308DF863
:104890000B504FF47A760AF025FC4B49606908F01A
:1048A000F1FB606907F0D6FD606801220DF10B0194
:1048B00003681F6903ABB847039BEBB9013E4FF494
:1048C0007A700AF049F8B6B2002EEDD1A368D3F899
:1048D00074319B0603D53D49606908F0D3FBA3689A
:1048E000502220463A495A871822A3681A8707F0AF
:1048F00045FD6FF00700B1E79DF80B20A3681B2A68
:104900004FD093F8D6101B29CED1522A49D15A192B
:10491000002382F8D630A66896F8D7205B2A29D1E2
:1049200006F1D700022510F8011F2A4601353B2960
:10493000ADB222D17F2AC9D0D63216FA82F1002236
:1049400011F8010F10BBFA2A86F8D600A16828BF1B
:10495000FA22FA2B4A8728BFFA23A2681387A36892
:10496000D3F874319A0603D51849606908F08AFBB8
:10497000002073E786F8D630A8E703EB83033039CD
:10498000802D01EB43018BB2CDD19FE7013502EBC6
:1049900082023038ADB200EB4200802D82B2CFD11E
:1049A00094E72B440135ADB283F8D620092D7FF66C
:1049B0007BAFA368002283F8D62087E7851A010819
:1049C000701A01086CFC0008D91A010870FC000874
:1049D0009F1A01082DE9F04F074689B01546894610
:1049E00021B1104608F0A3FC00285AD1032454E05A
:1049F0005C463CE029460AF1D6000AF0C6FB0646B2
:104A0000002853D0FCF76EFA314682B2601C08F1E0
:104A10000108013230440AF04BFB22465946304629
:104A20000AF038FB4FF020033355BAF85430013305
:104A30001C44AAF85440002401994B1C03AA484680
:104A40000193FFF79DFB0646E8B100223168284636
:104A500008F00FFE0028EFD1D6F800B0D7F808A074
:104A6000BBF1000FC4D05846FCF73CFA84B2BAF848
:104A7000543023447F2BBDDD01242B460C4A0321F7
:104A8000384608F08AF8B8F1000F06D0B8682A4610
:104A900000F15401D63007F00DFE204609B0BDE804
:104AA000F08F4FF0000802244146C6E70224EAE7EF
:104AB000991F01082DE9F843054600AF0C4600296F
:104AC00048D0DFF8B890D9F800305A0742D06E4687
:104AD0008AB0A3686A46D1E90001DFF8A4C04FF0AC
:104AE0000508C2E905C0C2E9071342F8108F002388
:104AF0004FF421514846FDF7D9FCD9F80030B546AE
:104B00005B0727D08AB06369D4E903016A46DFF8FE
:104B100074C0C2E90713C2E905C042F8108F002330
:104B200048464FF42151FDF7C1FCD9F80030B54695
:104B300058070FD0E3690121134A484607F0EAF904
:104B4000D9F80030590705D0A369104A0121484619
:104B500007F0E0F9012D0AD1EFF305830748026859
:104B6000520704D00A4A103B294607F0D3F92146E0
:104B7000284603F0B5FEBD46BDE8F8837802002460
:104B8000EB1F01081A2001084920010858200108DC
:104B90008620010808B5034B1B689847BDE808400C
:104BA00000F026B84800002430BFFFF7FDBF00BF6B
:104BB0002DE9F0410B4E0546DFF82C80324606EB1E
:104BC0000807CC1B094920460AF064FAA019083CE2
:104BD000424600210AF086FA07F10800C5F8A8400D
:104BE000BDE8F081000000000800000028FC00087B
:104BF000074A936893F90E10002907DB5269934224
:104C000004D0044A536843F080535360704700BF98
:104C1000C416002400ED00E0F8B5374C06460D46FA
:104C200023685B0703D03549204608F0C5FB344BA9
:104C30009B6ADF0451D52368580703D031492E48B9
:104C400008F0BAFB17202E4B9B6A190507D523687D
:104C50005A0703D02C49284808F0AEFB1820284FEB
:104C6000BB6A9B0519D52368580703D027492248FA
:104C700008F0A2FBBB6BBA6A11040DD5226852077B
:104C800004D0234A01211C4807F044F926B11C4AEC
:104C9000936A23F4004393621920194B9B6A5B05C6
:104CA00007D523685F0703D01A49134808F084FB2F
:104CB0001A20134B9A6AD60511D52368590703D0D9
:104CC00015490D4808F078FB1B200D4A936A43F400
:104CD0007F43936200232B70F8BD1620B3E79B6AD5
:104CE0009A04F2D523685B0703D00C49024808F008
:104CF00063FB1C20E9E700BF78020024992001082B
:104D000000ED00E0AF200108C0200108D320010819
:104D1000EC200108012101081C21010834210108AF
:104D200010B52D4C23685A0703D02C49204608F0B3
:104D300043FB2B4B9B6A9B014BD52368580703D041
:104D40002849254808F038FB1E20254B9B6AD901CD
:104D500007D523685A0703D023491F4808F02CFBC6
:104D60001F201F4B9B6A1B0307D52368580703D0DE
:104D70001E49194808F020FB2120194B9B6A590352
:104D800007D523685A0703D01949134808F014FBC4
:104D90002220134B9B6A9B0307D52368590703D036
:104DA00014490D4808F008FB23200D4B9B6ADA03D9
:104DB00007D523685B0703D00F49074808F0FCFAC2
:104DC0002420074A936A6FEA03436FEA134393620E
:104DD00010BD1D20B9E700BF78020024632101083F
:104DE00000ED00E07B2101088E210108A8210108C7
:104DF000C6210108EB210108052201082DE9F04731
:104E0000454D8946804617462B68590703D04349CC
:104E1000284608F0D1FA424B9B6ADA0639D52B684E
:104E20005B0703D03F493C4808F0C6FA11243C4BCD
:104E30009B6A1E0707D52B68580703D03A493648A6
:104E400008F0BAFA1224DFF8D8A0DAF82830990767
:104E500021D52B685A0703D034492F4808F0ACFA03
:104E6000DAF83460DAF828301B0651D52B685C0775
:104E700005D02F4A33460121274807F04BF8B9F1F6
:104E8000000F04D0264A936A23F080039362132410
:104E900003E01024CBE76FF01506214B9B6AD8077F
:104EA00007D52B68590703D022491B4808F084FA1C
:104EB00014241B4B9B6A9A0607D52B685B0703D00B
:104EC0001D49154808F078FA1524154B9A6AD5063D
:104ED00002D49A6A90070AD55B68190507D541463E
:104EE000304600F059FA10B180F3098802240C4BC7
:104EF0009A6A920603D55A6A22F400525A629A6A52
:104F0000204642F0FF029A6200233B70BDE8F08722
:104F10006FF01506BBE700BF7802002430220108BD
:104F200000ED00E046220108C020010879220108B6
:104F300091220108A7220108342101082DE9F0413E
:104F4000744B8AB004460025D3F8048000AFC8F340
:104F5000080685F31188BFF36F8F02F07F43B3F12A
:104F60007F4F0AD102F00C03082B15D16A48036861
:104F7000590702D0694908F01FFA00252C46002382
:104F8000FB71F31E092B00F2A080DFE803F00A9208
:104F9000958E9E9E9E9E9E9812074CBF0C460125A4
:104FA000EDE75D4E33685B0703D05D49304608F09E
:104FB00003FA0023FB71574BDA6A900708D5336870
:104FC000590703D05749544808F0F6F900233CE04C
:104FD000DA6A002A04DA33685A07F7D05249F2E74E
:104FE000DB6A5B00F2D53368580703D04F494A4863
:104FF00008F0E2F9474BA1695A6942F480725A619C
:10500000BFF34F8FBFF36F8F5A6931F8021C22F440
:1050100080725A61BFF34F8FBFF36F8F4DF60272EC
:10502000914208D09A6AD2B292B3FA1D0121204669
:10503000FFF7E4FE3BE03368590705D023683C4A9C
:105040000121354806F066FF2368FA79E2B907F1D5
:10505000080604F1200C2068083454F8041C324679
:10506000644503C21646F6D17A6A002D4DD0C2F3CC
:10507000080121B96FEA52226FEA42227A6207F1EF
:1050800008011846FFF716FD2837BD46BDE8F08138
:105090009A6A12F47F4F04D0F91D0120FFF7BCFD7E
:1050A00005E09B6AB3F5803F90D3FFF739FE0346D6
:1050B000CBE7FA1D0021BAE7F91D0020EEE71648FC
:1050C00003685A0782D01B497EE7134803685B07D1
:1050D0003FF47CAF18F4F87F174AE8468AB0174BC4
:1050E00018BF13466A461649103EC2E905134FF42D
:1050F0000073D6611384134B42F8103F00234FF422
:105100001151FDF7D3F9C54660E722F4FF7222F092
:105110000102B3E700ED00E078020024F422010868
:105120001F230108362301085723010865230108BE
:1051300084230108A0230108DB220108C6220108FC
:10514000C423010804000001044B5A6942F0100214
:105150005A615A6922F008025A61704700ED00E076
:10516000EFF30880EFF3098101B57246FFF7E6FE21
:1051700001BD00BF102080F311880B484FF0AA0139
:105180004FF4046209F023FC07484FF4046140180F
:1051900080F30988EFF314800221084380F3148818
:1051A000BFF36F8F00F0BAF800270024BFF34F8FD2
:1051B0000549064BCA6802F4E0621343CB60BFF3B3
:1051C0004F8F00BFFDE700BF00ED00E00400FA05CF
:1051D000084B9B6883420BD1EFF3058343B1064B29
:1051E0005A6842F080525A605A6A22F400425A6267
:1051F00009F048BDC416002400ED00E00A4A6FF033
:105200000A019368C3F8B0100849C3F8AC004B68B2
:1052100043F080534B60002383F31188BFF36F8FFB
:105220009368D3F8B0007047C416002400ED00E086
:1052300010B50446EFF31183102383F31288BFF3F4
:105240006F8F0C4B4FF00062586998600A4B5A60A0
:105250000A4BD0F8A8201A600022D0F8AC30C0F871
:10526000AC2083F31188BFF36F8F00F0B7F92046AD
:1052700010BD00BFC416002400ED00E01812002489
:105280000B498A684FF030001044EFF3098C80E836
:10529000F01F74467046FFF7CBFFA64604498A68A4
:1052A00002F1300090E8F01F8CF30988704700008D
:1052B000C41600241EF0040F0CBFEFF30880EFF3B8
:1052C0000980816911F8021C0229FFD001B508F09C
:1052D0006FF801BD00B2002807DB0123410900F08F
:1052E0001F00024A834042F82130704700E100E08D
:1052F00000B2013100284FEA0111C9B206DB00F10A
:10530000604000F5614080F80013704700F00F0026
:10531000014B1954704700BF14ED00E0104A08B566
:1053200022F07F020F4B9A60BFF34F8FBFF36F8F56
:10533000D3F8882022F47002C3F88820EFF3148396
:1053400023F0040383F31488BFF36F8F03F0C8FBCB
:1053500004F0FAFA00F062F808F04AF803F012FCE0
:105360000000000800ED00E042F8203C203A009BDD
:1053700008495360019B21F001019360029B9161F8
:10538000D3604FF08073D36100230265C0F8AC3066
:10539000704700BFAD1C00080A4A0346906878B108
:1053A00013F1160FD0F8980005D0A0F140029A42F0
:1053B00005D8834203D2814228BF002070470020D5
:1053C000704700BFC416002415460D4A0E4608B5A6
:1053D0000C4B9060D0F8A8201A6000F0FFF82C4623
:1053E00086F309884FF00000074B984720464FF09E
:1053F00000014FF000024FF00003044C204700BFB3
:10540000C416002418120024C9D30008AD1C0008DB
:10541000014B10221A61704700ED00E000230448A0
:105420001021C2180133A32B82F80013F9D1704761
:1054300000E100E008B5EFF30583064A103B02EBFC
:10544000C30152F8330049688847BDE80840FFF7B8
:10545000CFBB00BF28F50008154A70B5536913F497
:10546000803323D1C2F88430BFF34F8FD2F880301D
:1054700043F6E074C3F3C900C3F34E335B0103EAA0
:105480000406014646EA81750139C2F86052F9D234
:10549000203B13F1200FF2D1BFF34F8F536943F438
:1054A00080335361BFF34F8FBFF36F8F70BD00BF69
:1054B00000ED00E0134A002370B5C2F88430BFF35A
:1054C0004F8F536923F480335361BFF34F8FD2F86A
:1054D000803043F6E074C3F3C900C3F34E335B017D
:1054E00003EA0406014646EA81750139C2F874529E
:1054F000F9D2203B13F1200FF2D1BFF34F8FBFF34E
:105500006F8F70BD00ED00E0002910DD00F01F037B
:105510000B44BFF34F8F07490344C1F868022030A2
:105520001A1A002AF9DCBFF34F8FBFF36F8F0020E8
:10553000704700BF00ED00E0002910DD00F01F0300
:105540000B44BFF34F8F07490344C1F85C0220307E
:105550001A1A002AF9DCBFF34F8FBFF36F8F0020B8
:10556000704700BF00ED00E00B4B5A6912F40032A7
:1055700011D1BFF34F8FBFF36F8FC3F85022BFF32A
:105580004F8FBFF36F8F5A6942F400325A61BFF3F5
:105590004F8FBFF36F8F704700ED00E0BFF34F8F69
:1055A000BFF36F8F064B5A6922F400325A61002212
:1055B000C3F85022BFF34F8FBFF36F8F704700BF08
:1055C00000ED00E0024B0121024A034800F092B8CE
:1055D000000005240000002478010108D0F898207C
:1055E0004021054B403A18461A60044AC3E90112AB
:1055F000012100F089B800BF1C12002400000B1527
:1056000008B503461148D0F89020C2F30722013AAA
:1056100093420AD90E480268520703D00D4A01216D
:1056200006F078FC6FF0150008BDC0F898300A68E5
:1056300022F01F021A4342F01002C0F89C208A6830
:1056400042F00102C0F8A0201846EDE700ED00E0AE
:1056500074020024DB230108F0B50E4685B01F4616
:1056600004460025B54210DA606828B3AFB1431E86
:1056700018420DD0124803685B0704D0114A2B462C
:10568000012106F047FC6FF01502104605B0F0BD91
:105690001F28EFD921680B42ECD1236801A901939F
:1056A00007F0A7FEA3680343D0B20393FFF7A8FF58
:1056B00010F1160FE7D0421C01350C34D2E700BFC1
:1056C0007402002401240108044B0522C3F894202D
:1056D000BFF34F8FBFF36F8F704700BF00ED00E047
:1056E000BFF35F8F024B0022C3F89420704700BFC6
:1056F00000ED00E010B5034C01232278FFF7ACFF6A
:10570000207010BD261700240B4A08B5002312781C
:10571000FFF7A2FF10F1160F07D0084A0021D2F8B8
:105720009030C3F30723984200DB08BDC2F898000D
:105730000130C2F8A010F2E72617002400ED00E0C7
:10574000584859492DE9F043D0F8903085B00D689C
:10575000C3F307239D4200F2A180FFF7C1FF496810
:105760000022954201F10C011AD1504C6846504F6D
:105770002570FDF753F900250646DFF83881DFF87C
:105780003891AE421FD1237800204649D1F89020AD
:10579000C2F3072293427BDB0020FFF795FF4CE02A
:1057A000C0F8982051F80C3C23F01F03134301323A
:1057B00043F01003C0F89C3051F8043C43F001035F
:1057C000C0F8A030CDE700984FEA051C00EB0511AA
:1057D000CB683B40B3F5000F44D00AD8B3F5001FA7
:1057E0002ED0B3F5800F34D0B3F5801F10D0013523
:1057F000C7E7B3F1807F3ED0B3F1007FF7D150F817
:105800000C30886807F0F5FD4A6840F4802009E014
:1058100050F80C30886807F0ECFD40F088504A687A
:1058200040F43020039001A92078CDE90123FFF74F
:10583000E7FE002828DA6FF0150005B0BDE8F08318
:1058400050F80C30886807F0D4FD4A6840EA080038
:10585000E8E750F80C30886807F0CBFD4A6840EA6A
:105860000900DFE750F80C30886807F0C2FD4A688D
:1058700040F08270D6E750F80C30886807F0B9FD28
:105880004A6840F08870CDE7237801332370AEE793
:10589000C1F898300133C1F8A00077E74FF0FF302E
:1058A000CBE700BF00ED00E09CFC000826170024B9
:1058B0000000F0FF000008110000020708B5024BCD
:1058C0001B689847002008BD28120024034B044A97
:1058D0001860937843F002039370704728120024F5
:1058E0004C000024F0B587B007460E461446002150
:1058F000102268461D4609F0F5FB02232A46214680
:105900008DF802306846044BCDE90476019304F02B
:1059100045FD07B0F0BD00BF13D400080649074895
:1059200021F00701C1F1105208B502F5A02205F0DF
:1059300070FE002008BD00BFB7C403242C12002451
:1059400008B500F0B7F80A4901220023416109496E
:105950000361C0E900220A6007490A60074A136030
:10596000074A1360074AC0E90233136008BD00BF4D
:105970000113010878000024740000244012002460
:105980003C120024381200242DE9F04107460E464F
:10599000154600F08FF8C36804461BB943691A78AE
:1059A000002A41D10023E3606368BB4256F82320FC
:1059B00008DB324B6361204600F062F84FF0FF30A5
:1059C000BDE8F081511C616192F80080B8F12D0FA3
:1059D000EFD1911C616151782D29A16004D1927899
:1059E0006AB901336360E4E749B9244B414628466C
:1059F000636109F08FFB0028DDD0C4F80880D4F87B
:105A000008802846414609F085FBB8F13A0F6369E2
:105A100000D070B91B7813B9636801336360204606
:105A200000F02EF83F20CBE75A1C42611B788360C0
:105A3000E5E742783A2A0BD0002222611B7813B99D
:105A4000636801336360204600F01AF8A068B7E786
:105A500018786268094928B901329742626004DD0A
:105A600056F82230C4E90431EAE7616120462D7816
:105A70003A2DD5D100F004F82846A1E7011301081A
:105A80000268074B1A604268064B1A608268064B30
:105A90001A60C268054B1A600269054B1A607047AC
:105AA0007800002474000024401200243C120024DA
:105AB00038120024004870475C0000242DE9F041B2
:105AC000054600244FF001084FF0B0460E4F2A78EB
:105AD0001319DBB208FA03F0D6F8883030EA030372
:105AE0000AD152FA84F3C6F8880057F833201AB165
:105AF00007EBC3035968904701346A78E3B29A42CE
:105B0000E5D2BDE8F08100BF44120024044B03EB52
:105B100040000023013320F8022B9942FADC704741
:105B2000B801002407B5062201210020FFF7EEFF8F
:105B3000002206201146FFF7DBFB01210722084661
:105B4000FFF7E4FF002207201146FFF7D1FB0822F0
:105B500001210220FFF7DAFF002208201146FFF79B
:105B6000C7FB092201210320FFF7D0FF00220920F3
:105B70001146FFF7BDFB0A2201210420FFF7C6FFF3
:105B800000220A201146FFF7B3FB05211722084621
:105B9000FFF7BCFF002217201146FFF7A9FB2822C0
:105BA00006210A20FFF7B2FF002228201146FFF746
:105BB0009FFB074A6B4692E8030083E80300054811
:105BC000194682681268904703B05DF804FB00BF75
:105BD00028FC000884F30008034680B1B0FA80F284
:105BE000C2F11F02D2B2074931F912004FF0B042A0
:105BF000D2F880100B43C2F88030FFF76BBBFF2256
:105C0000F1E700BFB801002430B5B0B1B0FA80F3BD
:105C1000C3F11F03DBB20B4850F833408C4204D170
:105C200000EBC3056D68954205D044B940F83310C8
:105C300000EBC3004260002030BDFF23EBE76FF0B4
:105C40000F00F9E74412002460B1B0FA80F3C3F109
:105C50001F03DBB2044A002142F8331002EBC302F7
:105C600051607047FF23F5E74412002400F003025F
:105C70000F23043292009340094A43EA900000F057
:105C80000303023352F82320030C93FAA3F3B3FA6D
:105C900083F302EA104003F01F03D840704700BFAF
:105CA00000040058044B05489B6A03F00303022BD1
:105CB00018BF0020704700BF0044025800127A004D
:105CC00008B50A4B1B6903F03803102B09D0182BB9
:105CD00009D1FFF7E7FF40F213138008584340084B
:105CE00008BD0348FBE70020F9E700BF0044025865
:105CF00000127A0008B5314B18680B680D2B27D8B5
:105D000013B96FF0850022E0013B0C2BF9D801A1FB
:105D100051F823F0795D0008735D00087F5D00088D
